:100000000C9449000C9468000C9468000C946800EF
:100010000C9468000C9468000C9468000C946800C0
:100020000C9468000C9468000C9468000C946800B0
:100030000C9468000C9468000C9468000C946800A0
:100040000C9468000C9468000C9468000C94680090
:100050000C9468000C9468000C9468000C94680080
:100060000C9468000C9468000C9468000C94680070
:100070000C9468000C9468000C9468000C94680060
:100080000C9468000C9468000C94680000081C181C
:10009000141011241FBECFEFD0E1DEBFCDBF11E0A1
:1000A000A0E0B1E0E4E3F2E000E00BBF02C00790A3
:1000B0000D92A030B107D9F711E0A0E0B1E001C086
:1000C0001D92A430B107E1F70E948E000C94190133
:1000D0000C9400008FB7F894992708958FBF089566
:1000E000809100018F3F19F480E090E00895282F5F
:1000F0003327F901E050FF4F8081809300018F3F4B
:1001000011F4809303018FEF808390E02F3F09F477
:1001100091E081E09827892F99270895CDEFD0E1CC
:10012000DEBFCDBF1FB7F8948FEF8093000180939F
:10013000030181E08EBD83E083BF4CB55DB584EFE4
:100140008A8309C02CB53DB52417350718F48A8178
:1001500081508A83A9018A818823A1F782B7898384
:1001600092B789819817E1F32CB53DB582B78983A1
:1001700092B789819817E1F38CB59DB5821B930BDB
:10018000409625E0969587952A95E1F79093020190
:100190008093010113BE83B78EBD8EB580BF12BEA2
:1001A0001DBC1CBC8FEF86BF86B780937C0080B7D8
:1001B000992787709070892BD1F715BA8FEF84BB80
:1001C00080E285BF0E9470008823E1F70E947000E2
:1001D0008823E1F7812F99278FBF78948FEF81BB18
:1001E0008AEA82BB8FB7F894482F55276FEFECE867
:1001F000F0E0C895902D08C085B7837E8062892B7A
:1002000085BF78948895F894809100018F3FA1F381
:10021000282F3327F901E050FF4F808180930001A0
:100220008F3F11F48093030160832F3F29F34FBF69
:04023000D9CFFFCF54
:00000001FF
