S01A00006275696C642F626967415652362F6D61696E2E73726563A6
S11300000C9439010C9458010C9458010C94580127
S11300100C9458010C9458010C9458010C945801F8
S11300200C9458010C9458010C9458010C945801E8
S11300300C9458010C9458010C9458010C949E0291
S11300400C948D020C9458010C9458010C94580192
S11300500C9458010C9458010C9458010C945801B8
S11300600C9458010C9458010C9458010C945801A8
S11300700C9458010C9458010C9458010C94580198
S11300800C9458010C9458010C94580100081C1845
S11300901410000000000000005F000000070007CB
S11300A000147F147F14242A7F2A12231308646205
S11300B036495522500005030000001C224100006F
S11300C041221C00082A1C2A0808083E080800507F
S11300D030000008080808080060600000201008CC
S11300E004023E5149453E00427F4000426151496D
S11300F0462141454B311814127F10274545453997
S11301003C4A4949300171090503364949493606D3
S11301104949291E00363600000056360000000802
S1130120142241141414141441221408000201511D
S11301300906324979413E7E1111117E7F494949B0
S1130140363E414141227F4141221C7F4949494178
S11301507F090901013E414151327F0808087F00AF
S1130160417F41002040413F017F081422417F40EC
S11301704040407F0204027F7F0408107F3E4141DB
S1130180413E7F090909063E4151215E7F09192933
S113019046464949493101017F01013F4040403F02
S11301A01F2040201F7F2018207F6314081463033E
S11301B004780403615149454300007F414102042E
S11301C008102041417F0000040201020440404025
S11301D04040000102040020545454787F484444B1
S11301E0383844444420384444487F3854545418DC
S11301F0087E090102081454543C7F080404780062
S1130200447D40002040443D00007F1028440041CC
S11302107F40007C041804787C0804047838444443
S113022044387C14141408081414187C7C0804043E
S1130230084854545420043F4440203C4040207C0F
S11302401C2040201C3C4030403C44281028440CD6
S11302505050503C4464544C440008364100000063
S11302607F0000004136080008082A1C08081C2AE0
S1130270080811241FBECFEFD0E1DEBFCDBF11E0CF
S1130280A0E0B1E0EEEFF4E100E00BBF02C00790A4
S11302900D92A831B107D9F711E0A8E1B1E001C08E
S11302A01D92A136B107E1F70E94FE070C947E0A65
S11302B00C9400008FB7F894992708958FBF089580
S11302C07FB7F89462B720915B0130915C01409153
S11302D05D0150915E0106B601FE0FC081B792B771
S11302E0280F311D411D511D2F5F3F4F4F4F5F4F51
S11302F0290F311D411D511D04C0260F311D411D03
S1130300511D872F99278FBFCA01B9010895282F3E
S11303109FB7F894E82FFF27E45DFE4F80818F3F5D
S113032081F4E0916001E21771F40BC0209357014E
S113033004C0FF27E45DFE4F20832093600120E08A
S113034007C025E005C0809157018F3F91F7EECF9C
S1130350892F99278FBF822F992708956093500181
S11303604093290190933E0180933D0183E00E94D4
S113037087010895DF92EF92FF920F931F938FB737
S1130380F894282F3327D22E91B782B746B79817FF
S113039011F041FF02C02FBF6AC080915F01882322
S11303A0E1F10E946001E0903F01F0904001009172
S11303B04101109142012091350130913601409163
S11303C03701509138016E197F09800B910B621728
S11303D073078407950720F010925F0171E01EC037
S11303E02E0D3F1D401F511F80915B0190915C01B8
S11303F0A0915D01B0915E01281B390B4A0B5B0B88
S1130400273E31054105510540F4822F223010F07A
S113041070E005C070E082E002C070E086EE682FF4
S1130420615000B601FCFDCF82B7681709F46F5F15
S113043020915B0130915C0140915D0150915E011E
S1130440DA01C9010196A11DB11D860F911DA11DDF
S1130450B11D82179307A407B50710F4622F6095A6
S113046061BFDFBE772319F087E00E9487011F91E7
S11304700F91FF90EF90DF900895AFB7F894BB27EA
S1130480E1E0E0935F0160933F017093400180934A
S113049041019093420120933501309336014093FA
S11304A0370150933801AFBF0E94BA0108950F93EA
S11304B01F93182F062F80E00E9487011E9A112394
S11304C031F483B18F7C83B98FEF8ABB02C01D984E
S11304D01C9A0BBB0000000000000000000000009C
S11304E0000000001E981F910F9108951F93162F6E
S11304F0803418F41B9A1A9802C01A9A1B988F73A6
S11305008064682F80E00E9457021F73186B612F6C
S113051080E00E9457021F9108951F920F920FB618
S11305200F9211248F9383B783BF00B600FCFDCFD5
S11305308F910F900FBE0F901F9018951F920F92DE
S11305400FB60F9211242F933F934F935F936F93A2
S11305507F938F939F93AF93BF93EF93FF93809178
S11305601A018A3F21F583B783BF00B600FCFDCF93
S113057081B799270196AA27BB2720915B01309167
S11305805C0140915D0150915E01280F391F4A1FA3
S11305905B1F20935B0130935C0140935D0150939A
S11305A05E0178940E94BA0110921A0103C08F5F11
S11305B080931A01FF91EF91BF91AF919F918F9119
S11305C07F916F915F914F913F912F910F900FBE4B
S11305D00F901F901895DF92EF92FF920F931F9345
S11305E0D82E062FE62EE694E694E6946E2D0E940D
S11305F07602FF2480E00E94870183B1806683B97C
S11306001C9A1ABA0000000000000000000000005C
S11306100000000019B383B18F7983B98FEF8ABBCF
S1130620F39482E0F81631F76E2D8D2D0E94760238
S1130630077081E090E002C0880F991F0A95E2F7E5
S1130640182B612F81E00E9457021F910F91FF9098
S1130650EF90DF900895EF92FF920F931F93E09134
S11306604B01E1FF52C0209143013091440140917C
S1130670450150914601E0904701F09048010091F6
S1130680490110914A01621B730B840B950B6E1583
S11306907F0580079107C8F1E0FF04C0ED7FE09378
S11306A04B010CC02E0D3F1D401F511F20934301D1
S11306B0309344014093450150934601B59B05C0D6
S11306C042E060E080E091E004C042E060E082E06B
S11306D091E00E94AE01B69B05C043E060E084E077
S11306E091E004C043E060E082E091E00E94AE014A
S11306F0B79B05C044E060E086E091E004C044E0BC
S113070060E082E091E00E94AE0188E00E948701EF
S11307101F910F91FF90EF9008952F923F924F9267
S11307205F926F927F928F929F92AF92BF92CF927D
S1130730DF92EF92FF920F931F93CF93DF93843056
S113074009F41DC1853058F48130C1F08130C8F0FE
S1130750823009F45DC0833009F020C40DC08630B6
S113076009F4FFC2863008F428C1873009F498C31D
S1130770883009F013C4C7C3FF24F8C0C0E0D0E038
S113078025C01ABA1D9A1C981E9A06C01E9800000D
S113079000001E9A00000000CF99F8CF1E981D9A01
S11307A08FEF8ABBFBC360912701610F80914E01DB
S11307B00E94EB0280912701180F80914E019091C5
S11307C04C01890F612F81500E94EB021C2F21964E
S11307D080913C01181738F3C0E0D0E012C080913A
S11307E04E0160912701810F0E94EB026091270165
S11307F080913C01680F615080914E01810F0E94ED
S1130800EB021C2F219680914C01181740F3C6C3AC
S1130810D090280180914F01D81A80915A01E82E76
S1130820FF24C701880F991FC3E0D0E0C81BD90B70
S1130830AA24BB24882499245AC0609128016E0DEF
S113084080914F018A0D0E94EB02609128016E197C
S113085080914F018A0D0E94EB02609128016E0D78
S113086080914F018A190E94EB02609128016E1950
S113087080914F018A190E94EB0280912801682F10
S11308806A0D8E0D8D190E94EB0280912801682F4C
S11308906A198E0D8D190E94EB0280912801682F30
S11308A06A0D8E198D190E94EB0280912801682F20
S11308B06A198E198D190E94EB02D7FF04C026967F
S11308C0C80DD91D0DC0C5018E199F09880F991F28
S11308D0880F991F2A96C80FD91F0894E108F108B8
S11308E00894A11CB11C24E030E0820E931EEA148B
S11308F0FB040CF0A2CF52C300E010E08F2D800F58
S11309009091500160912901890F0E947602E09133
S11309103D01F0913E01E08185E0E802F0011124FF
S1130920E00FF11FEE50F040C895E02D6E2F81E0EE
S11309300E9457020F5F1F4F05301105F9F635E08D
S1130940F30E80915001609129018F0D0E9476026F
S113095060E081E00E945702F39480913D01909100
S11309603E01019690933E0180933D01E0913D014B
S1130970F0913E018081882309F0BECF0FC310920D
S11309804D011092190180E060914D010E947602A0
S11309906091180181E00E945702809119018F5FD4
S11309A08093190187FFF0CF80914D018F5F809371
S11309B04D01883008F0F2C2E4CF70903B016090A2
S11309C05101872D861980931E01809026019090F5
S11309D02A01981458F00F2EF0E02F2EF0E03F2E4D
S11309E0F0E04F2EF0E05F2EF02D25C0682D772724
S11309F069197109882777FD8095982F0E94B0099D
S1130A007B018C01672D772766197109882777FD8B
S1130A108095982F0E94B0099B01AC01C801B701D1
S1130A200E944D091B012C0182E080931F01882D37
S1130A30891980931D018914E8F5692D77276819B0
S1130A407109882777FD8095982F0E94B0095B0172
S1130A506C01672D772767FD7095872F972F0E946C
S1130A60B0097B018C0177FE08C020E030E040E84B
S1130A7053E40E940B097B018C01662D772788279C
S1130A8077FD8095982F0E94B0099B01AC01C801A5
S1130A90B7010E940A099B01AC01C601B5010E947D
S1130AA04D091B012C0181E080931F01892D8819B8
S1130AB080931D0190911D0180911E01891748F4B6
S1130AC080911D0160911E010E94720A80931C0195
S1130AD002C010921C01891461F410921F010F2EA0
S1130AE0F0E02F2EF0E03F2EF0E04F2EF0E05F2EEE
S1130AF0F02D6714E9F4109220010CC080912001BC
S1130B00680F809151010E94EB02809120018F5F58
S1130B10809320012091200160912A013327809144
S1130B2026019927861B9109281739073CF336C2F9
S1130B301092200107C180911F01813009F098C0F3
S1130B4010921B018DC060912A017727882777FDB9
S1130B508095982F0E94B0095B016C0110912001CF
S1130B6090901B01612F772767FD7095872F972F32
S1130B700E94B00917FF06C020E030E040E853E4CB
S1130B800E940B099B01AC01C201B1010E942A0A17
S1130B909B01AC01C601B5010E940A097B018C01CD
S1130BA0692D7727882777FD8095982F0E94B009B3
S1130BB09B01AC01C801B7010E940B097B018C01A8
S1130BC0609126017727882777FD8095982F0E94CA
S1130BD0B0099B01AC01C801B7010E94BD0988237B
S1130BE0D4F11091200190901B0180902001612F7D
S1130BF0772767FD7095872F972F0E94B00917FFFD
S1130C0006C020E030E040E853E40E940B099B0159
S1130C10AC01C201B1010E942A0A9B01AC01C601C8
S1130C20B5010E940A097B018C01692D7727882769
S1130C3077FD8095982F0E94B0099B01AC01C801F3
S1130C40B7010E940B090E94930920915101882D3C
S1130C50820F0E94EB0280911B018F5F80931B0126
S1130C6090911B0180911C01891708F06CCF65C01D
S1130C7080911F01823009F055C010921B014AC0B7
S1130C8010912001B0901B01A090200160912A01D5
S1130C907727882777FD8095982F0E94B0096B01EC
S1130CA07C01612F772767FD7095872F972F0E940E
S1130CB0B00917FF06C020E030E040E853E40E948A
S1130CC00B099B01AC01C201B1010E942A0A9B01DC
S1130CD0AC01C701B6010E940B097B018C016B2D8D
S1130CE07727882777FD8095982F0E94B0099B016C
S1130CF0AC01C801B7010E940B090E94930920911D
S1130D0051018A2D820F0E94EB0280911B018F5F9B
S1130D1080931B0190911B0180911C01891708F09D
S1130D20AFCF0BC080911F01882339F4809120013B
S1130D3060912A01840F0E94EB02809120018F5F51
S1130D40809320012091200140915101332780910B
S1130D503B019927841B9109821793070CF0EBCE72
S1130D601DC11092240194C080912B019927877092
S1130D709070892B71F520913A01822F9927877001
S1130D809070892B31F5269526952695209322017E
S1130D901092230118C09091230180912401609145
S1130DA02B01669566956695690F90915201890F9E
S1130DB00E9476026FEF81E00E9457028091230126
S1130DC08F5F8093230190912301809122019817D2
S1130DD010F320913A012830E0F560912B01862F21
S1130DE0992787709070892BA1F58091220188231F
S1130DF001F52770209322011092230141E050E075
S1130E0012C08091210120912301FA0102C0EE0F4A
S1130E10FF1F2A95E2F78E2B8093210180912301F5
S1130E208F5F809323019091230180912201981771
S1130E3040F38091240166956695669590915201E0
S1130E40890F0E9476026091210181E00E9457027D
S1130E501AC01092230111C06091230180912401D2
S1130E6090912B01690F90915201890F0E94EB021E
S1130E70809123018F5F80932301909123018091BE
S1130E803A01981748F3809124018F5F80932401DD
S1130E909091240180912501981708F465CF7EC0B4
S1130EA080913901882361F52091530130915401D7
S1130EB04091550150915601EFB7F894FF27609186
S1130EC03F01709140018091410190914201E09075
S1130ED03501F090360100913701109138016E0D03
S1130EE07F1D801F911FEFBF209353013093540146
S1130EF04093550150935601109239010E943D02CE
S1130F000E94600139C00E9460017B018C018FB78F
S1130F10F894992710925F018FBF80914B0181FF54
S1130F203DC08091430190914401A0914501B0914D
S1130F304601A8019701281B390B4A0B5B0BDA0108
S1130F40C9012091470130914801409149015091D4
S1130F504A01281B390B4A0B5B0B2F3F8FEF3807D5
S1130F608FEF48078FE75807C9F0121613061406C7
S1130F7015062CF0C801B7010E942B030FC0209363
S1130F80530130935401409355015093560181E02D
S1130F9080933901C801B7010E943D02DF91CF91CE
S1130FA01F910F91FF90EF90DF90CF90BF90AF9083
S1130FB09F908F907F906F905F904F903F902F9075
S1130FC00895809157018F3FB1F0282F3327F901FD
S1130FD0E45DFE4F8081809357018F3F11F480932D
S1130FE060018FEF80832F3F31F0822F0E948D03A9
S1130FF081E090E0089580E090E00895CDEFD0E1A5
S1131000DEBFCDBF1FB7F89449E050E06FEF70E04A
S11310108CE291E00E9403098FEF80935701809343
S1131020600181E08EBD83E083BF4CB55DB58AE786
S11310308A8309C02CB53DB52417350718F48A8175
S113104081508A83A9018A818823A1F782B7898381
S113105092B789819817E1F32CB53DB582B789839E
S113106092B789819817E1F38CB59DB5821B930BD8
S1131070409645E0969587954A95E1F790935901F6
S11310808093580113BE83B78EBD8EB580BF12BE48
S11310901DBC1CBC8FEF86BF86B780937C0080B7D5
S11310A0992787709070892BD1F715BA8FEF84BB7D
S11310B080E285BF0E94E1078823E1F780B788704A
S11310C080BF8BE083BF86EE81BF87B7826087BF16
S11310D00E94BA010E94E1078823E1F7812F992732
S11310E08FBF789482B18C6F82B98AB38FEF8ABB39
S11310F083B1837083B91BBA1F9A6FE380E00E94A7
S113110057021092180110924D011092190180E0BB
S113111060914D010E9476026091180181E00E9465
S11311205702809119018F5F8093190187FFF0CFD7
S113113080914D018F5F80934D01883030F340E002
S113114060E088E091E00E94AE01BD98BE98BF982F
S11311500E946001609343017093440180934501B0
S11311609093460188EC90E0A0E0B0E080934701C2
S113117090934801A0934901B0934A0180914B0197
S11311808E7F826080934B0188E00E9487018FB735
S1131190F894482F55277FEFECE8F0E0C895602DD0
S11311A01AC087B7992783709070892B61F080B734
S11311B0992787709070892BD1F781B792B7891BD3
S11311C08C3008F082B785B7837E8062862B85BF1A
S11311D078948895F894809157018F3F11F3282FC4
S11311E03327F901E45DFE4F9081909357019F3FAF
S11311F011F49093600170832F3F99F24FBF822FB7
S11312000E948D03C4CFDC0101C06D934150504056
S1131210E0F708955058192EEFD001D0D2C0BA1774
S11312206207730784079507B1F188F40EF41094EC
S11312300B2EBA2FA02D062E622F202D072E732FD2
S1131240302D082E842F402D092E952F502DFF2749
S11312505523B9F0591B49F0573E98F046953795F8
S11312602795A795F0405395C9F776F0BA0F621FFA
S1131270731F841F30F4879577956795B795F04071
S1131280939517FA0F2E0895BF1BBB27BA0B620B59
S1131290730B840BF6CFDEF6DBC0AED001D091C069
S11312A0552359F0992369F09F575F57951B33F4E1
S11312B042F4903811F4915805C09BC091589F3F57
S11312C009F4C6C0BB27112462177307840730F4DE
S11312D0660F771F881FBB1F915098F311D00F9290
S11312E00FD00F920DD0A0E82617370748071B062A
S11312F009F0A048BA2F602D7F918F9100240895A2
S1131300A0E80024621773078407B10528F0621B64
S1131310730B840BB1090A2A660F771F881FBB1F42
S1131320A69581F7089597FB73D09F3738F0FEE9AF
S1131330F91B982F872F762F6B2F05C086C09695A3
S1131340879577956795F150D0F73EF49095809501
S1131350709561957F4F8F4F9F4F0895E89403C018
S113136097FB0EF4F3DFB62F672F782F892F9EE9B2
S1131370002427C00ED05EF004C00BD026F001C0BC
S113138008D019F020F48FEF089580E0089581E0EB
S1131390089597FB092E052600F8689430D0E89448
S11313A007FC07C0621773078407950721F008F448
S11313B000940794989408959A95BB0F661F771F1D
S11313C0881F11249923A1F08823B2F79F3F59F075
S11313D0BB0F48F421F4002011F460FF04C06F5FD8
S11313E07F4F8F4F9F4F881F9795879597F9089543
S11313F02CC09FEF80EC0895052E092607FA440FB0
S1131400551F5F3F79F0AA27A51708F051E04795CB
S1131410880F991F9F3F31F0BB27B91708F091E05F
S1131420879508959F919F911124E3CF97FB880F8F
S1131430991F9F3F31F0BB27B91708F091E08795BA
S113144008959F919F911124D4CF662777278827E9
S113145099270895D1DF01D0B4CF992339F05523CA
S113146029F09F575F57950F13F49AF1F1CF9158D4
S11314709F3FE1F3629FA12D0F92BB27639FA00DB5
S1131480B11DEE27729FA00DB11DEE1FAF93AA27C9
S1131490649FB00DE11D739FB00DE11DAA1F662767
S11314A0829FB00DE11DA61F5527749FE00DA11D5D
S11314B0551F839FE00DA11D561F849FA00D511D34
S11314C0852F7A2F6E2F1F900F9088231AF49395EF
S11314D039F48FCF000C111CBB1F661F771F881FA8
S11314E001280895991B79E004C0991F961708F004
S11114F0961B881F7A95C9F780950895FFCF43
S11314FE31002D0032003300427574746F6E205427
S10B150E657374202E2E2E00DB
S9030000FC
