S01A00006275696C642F626967415652362F6D61696E2E73726563A6
S11300000C944C010C9487070C9491070C949B0757
S11300100C94C4070C94CE070C94D8070C94E207F4
S11300200C94EC070C946B010C946B010C946B0115
S11300300C946B010C946B010C946B010C94F607FB
S11300400C948D050C94D0060C9410060C946B0142
S11300500C9464060C949E050C946B010C946B0137
S11300600C946B010C946B010C946B010C946B015C
S11300700C946B010C946B010C94B3060C946B01FF
S11300800C94C5060C946B010C946B01830F910FB7
S1130090C40F11103B111B103310A411800FEC116D
S11300A07E0FC712F612CD1471157415A415E1153F
S11300B0F61500081C181410000000000000005F72
S11300C000000007000700147F147F14242A7F2AED
S11300D012231308646236495522500005030000B8
S11300E0001C2241000041221C00082A1C2A080886
S11300F0083E08080050300000080808080800609E
S113010060000020100804023E5149453E00427F31
S1130110400042615149462141454B311814127F38
S11301201027454545393C4A4949300171090503C1
S11301303649494936064949291E00363600000029
S113014056360000000814224114141414144122D9
S11301501408000201510906324979413E7E111109
S1130160117E7F494949363E414141227F41412226
S11301701C7F494949417F090901013E41415132EE
S11301807F0808087F00417F41002040413F017FF4
S1130190081422417F404040407F0204027F7F04D4
S11301A008107F3E4141413E7F090909063E415105
S11301B0215E7F09192946464949493101017F01D8
S11301C0013F4040403F1F2040201F7F2018207FD8
S11301D0631408146303047804036151494543001C
S11301E0007F4141020408102041417F00000402C5
S11301F001020440404040400001020400205454E5
S113020054787F484444383844444420384444486B
S11302107F3854545418087E090102081454543C7D
S11302207F0804047800447D40002040443D0000E1
S11302307F10284400417F40007C041804787C0827
S113024004047838444444387C14141408081414FE
S1130250187C7C080404084854545420043F444047
S1130260203C4040207C1C2040201C3C4030403C32
S113027044281028440C5050503C4464544C4400CE
S11302800836410000007F000000413608000808DD
S11302902A1C08081C2A080811241FBECFEFD0E12D
S11302A0DEBFCDBF11E0A0E0B1E0EEECF2E300E090
S11302B00BBF02C007900D92A236B107D9F712E026
S11302C0A2E6B1E001C01D92A63CB107E1F70E948D
S11302D036160C9466190C9400008FB7F89499277D
S11302E008958FBF0895882311F06E9A08956E982B
S11302F008951F93182F81E00E9473011FB9779B03
S1130300FECF8FB199271F9108951F93162FC09880
S11303100E947901812F0E947901C09A99271F9127
S113032008951F93182FC0988FEB0E94790183E0E2
S11303300E947901C09AC0988FE90E947901812FA7
S11303400E947901C09A1F9108951F93162FC09897
S113035080680E947901812F0E947901C09A1F91BF
S11303600895282F9FB7F894E82FFF27E05AFD4FF0
S113037080818F3F81F4E091C302E21771F40BC0D6
S11303802093B50204C0FF27E05AFD4F2083209339
S1130390C30220E007C025E005C08091B5028F3F6D
S11303A091F7EECF892F99278FBF822F9927089530
S11303B00F931F93982F1FB7F89480916701823091
S11303C099F580915201891779F58091500120E0C7
S11303D030E08F3F11F421E030E0232BF1F49FEF64
S11303E0909352018F3F19F42FEF30E00DC0282F66
S11303F03327F901E558FD4F8081809350018F3FE9
S113040011F490935101908320937A0281E08093B8
S1130410670182E10E94B10105C08FEF8093520110
S11304201092670101E001C000E0812F99278FBF7E
S11304301FB7F89480916701882311F40E94730117
S1130440812F99278FBF90E0013009F491E081E07A
S11304509827892F99271F910F9108956093A902D6
S11304604093530290938202809381028AE00E9417
S1130470B10108959C018091690180FD0FC067FD61
S11304800DC0483058F480916901816080936901FE
S1130490C9010E942E0280E090E0089581E090E07E
S11304A00895882311F06F9A08956F9808950F9313
S11304B01F93182F062F82E00E949101612F84E57B
S11304C00E94850161E082E10E94A50183E00E940F
S11304D091016AE08AE00E94850180937E01809107
S11304E07E0180FDF6CF82E00E94910160E082E50A
S11304F00E948501002349F068E188E10E9485019A
S113050080937E0169E189E108C069E189E10E9483
S1130510850180937E0168E188E10E9485018093D2
S11305207E0180917E0199271F910F91089556981D
S113053057981092A30210927F02539A549A579A92
S113054080E090E008952FB7F89433278CB95E9A31
S11305502FBF08951ABA1D9A1C981E9A06C01E9899
S1130560000000001E9A00000000CF99F8CF1E98EA
S11305708FEF8ABB08950F931F93182F062F0E94A5
S1130580AA021E9A112321F483B18F7C83B902C07D
S11305901D981C9A000000000000000000000000EC
S11305A00000000000000000000000000000000047
S11305B0000000000BBB0000000000000000000071
S11305C00000000000000000000000000000000027
S11305D00000000000001E981F910F9108951F93C2
S11305E0162F803418F41B9A1A9802C01A9A1B9872
S11305F08F738064682F80E00E94BB021F73186BA6
S1130600612F80E00E94BB021F910895DF92EF9258
S1130610FF920F931F93D82E062FE62EE694E694AE
S1130620E6946E2D0E94EF02FF240E94AA021E98F7
S11306301D9A1C9A1ABA00000000000000001E9ABD
S11306400000000000000000000019B383B18F799E
S113065083B98FEF8ABBF39482E0F81631F76E2DDD
S11306608D2D0E94EF02077081E090E002C0880F98
S1130670991F0A95E2F7182B612F81E00E94BB02B3
S11306801F910F91FF90EF90DF900895AC016115D9
S1130690710519F481E090E008958FB7F894282F3C
S11306A033278091900290919102892B21F02FBFE2
S11306B085E090E0089550939102409390027093E6
S11306C0C5026093C4021092C2021092C1028091CA
S11306D0A30281608093A302579A2FBF80E090E029
S11306E00895982F969596959695E6E9F2E0E90F88
S11306F0F11D877021E030E002C0220F331F8A957C
S1130700E2F780818223992708952091860230910F
S1130710870280918802909189028217930740F49E
S113072030938902209388029093870280938602F3
S113073020918A0230918B0280918C0290918D02DB
S11307408217930740F430938D0220938C02909388
S11307508B0280938A0220918602309187028091D5
S11307608A0290918B028217930708F4C901409181
S113077088025091890220918C0230918D022417B5
S1130780350718F4820F931F02C0840F951F9695A6
S1130790879508958091B902882321F02FE1F0E034
S11307A0E0E008C0F7E0E1E08FB7F89499272091E2
S11307B050028FBF622FAFB7F894809179028E7F79
S11307C08093790287B1782F7F712E2F33278295FA
S11307D086958695837099272817390719F080E044
S11307E090E013C0862F8850863118F081E090E0A5
S11307F00CC040E050E0262F3327872F9927281775
S1130800390711F441E050E0CA01982F9170990F13
S1130810809179028178262F2F71422F440F440F43
S1130820892B842B80937902E295EE0FEE0FE07C06
S11308302E2B332727B9F83059F58091B6029091C1
S1130840B70221E08638920718F087E090E01FC0D5
S1130850833C910518F086E090E019C0813691053B
S113086018F085E090E013C08033910518F084E01F
S113087090E00DC08831910518F083E090E007C046
S11308800C9718F082E090E002C080E090E0F82F2E
S1130890F770887D8F2B886D992786B98A2F9927C1
S11308A08FBF0895CF93DF93CDB7DEB724970FB6EC
S11308B0F894DEBF0FBECDBF9C0119823FC085B343
S11308C0837085BB413011F4AA9A01C0AA98AB9AEF
S11308D08981F901E80FF11D8081807F8B8385B3C5
S11308E09B81892B85BBAB9885B38F7085BBAB9AF5
S11308F08981F901E80FF11D80818F708B838B81D1
S11309008295807F8B8385B39B81892B85BBAB9834
S113091085B3837085BB1A820BC01C8203C08C8193
S11309208F5F8C838C818430D0F38A818F5F8A833C
S11309308A818A3F90F389818F5F898389818617B1
S113094008F4BDCF82E0809356014130C9F4809110
S11309506A01863010F040936B0180916A0188230C
S113096011F410926B0180916B01882321F4809122
S11309706A018F5F03C080916A01815080936A018C
S113098024960FB6F894DEBF0FBECDBFDF91CF9192
S113099008957FB7F89462B72091BA023091BB02F0
S11309A04091BC025091BD0206B601FE0FC081B752
S11309B092B7280F311D411D511D2F5F3F4F4F4FDF
S11309C05F4F290F311D411D511D04C0260F311DDC
S11309D0411D511D872F99278FBFCA01B901089561
S11309E0DF92EF92FF920F931F938FB7F894282F03
S11309F03327D22E91B782B746B7981711F041FF2B
S1130A0002C02FBF6AC08091BE028823E1F10E9418
S1130A10C904E0909202F090930200919402109124
S1130A2095022091730230917402409175025091A5
S1130A3076026E197F09800B910B62177307840786
S1130A40950720F01092BE0271E01EC02E0D3F1DCE
S1130A50401F511F8091BA029091BB02A091BC0229
S1130A60B091BD02281B390B4A0B5B0B273E3105A5
S1130A704105510540F4822F223010F070E005C08A
S1130A8070E082E002C070E086EE682F615000B62C
S1130A9001FCFDCF82B7681709F46F5F2091BA0299
S1130AA03091BB024091BC025091BD02DA01C901F0
S1130AB00196A11DB11D860F911DA11DB11D8217A7
S1130AC09307A407B50710F4622F609561BFDFBEDA
S1130AD0772319F081E00E94B1011F910F91FF90DB
S1130AE0EF90DF900895AFB7F894BB27E1E0E0936F
S1130AF0BE02609392027093930280939402909347
S1130B0095022093730230937402409375025093BC
S1130B107602AFBF0E94F00408951F920F920FB6A1
S1130B200F9211248F9383B783BF00B600FCFDCFCF
S1130B308F910F900FBE0F901F9018951F920F92D8
S1130B400FB60F9211242F933F934F935F936F939C
S1130B507F938F939F93AF93BF93EF93FF9344B18E
S1130B6055B178948FB7F894992720917902322F50
S1130B703695317021708FBF2223D9F43398809138
S1130B808502813021F0823009F039C00AC0332354
S1130B9051F05093A6024093A50286E00E94B10151
S1130BA02EC0332319F40E94CA0329C0109285026F
S1130BB026C08FB7F89499278FBF2FB7F89433279F
S1130BC086B1582F5770482F4072987D942B952BDF
S1130BD08074977B982B90619F77892F992786B98A
S1130BE0887D842B852B87738061992786B9887DBE
S1130BF0842B852B877B8069992786B92FBFFF912A
S1130C00EF91BF91AF919F918F917F916F915F9180
S1130C104F913F912F910F900FBE0F901F901895F9
S1130C201F920F920FB60F9211242F933F934F935D
S1130C305F936F937F938F939F93AF93BF93EF9340
S1130C40FF935F9B30C02CB1E0919002F091910230
S1130C50309749F18091C1029091C202E80FF91FC7
S1130C60208301969093C2028093C1022091C40212
S1130C703091C50282179307B0F020919002309111
S1130C80910210929102109290028091A3028330FB
S1130C9019F057981092A30230938F0120938E017C
S1130CA080E00E94B101FF91EF91BF91AF919F91BC
S1130CB08F917F916F915F914F913F912F910F9001
S1130CC00FBE0F901F90189578941F920F920FB635
S1130CD00F9211242F933F934F935F936F937F93BE
S1130CE08F939F93AF93BF93EF93FF9320917D02D4
S1130CF030917E028091AF029091B002281739079B
S1130D0080F4E0918302F0918402E20FF31F80816A
S1130D102F5F3F4F30937E0220937D020E94A302F7
S1130D2011C0109284021092830210927F0256988E
S1130D308EE00E94B1018FB7F894992722E02093A6
S1130D4053018FBFFF91EF91BF91AF919F918F910D
S1130D507F916F915F914F913F912F910F900FBEB3
S1130D600F901F9018951F920F920FB60F92112497
S1130D708F9380919B0087FF02C080919C008F918C
S1130D800F900FBE0F901F90189578941F920F929A
S1130D900FB60F9211240F900FBE0F901F9018954D
S1130DA01F920F920FB60F9211248F929F92AF92BF
S1130DB0BF92CF92DF92EF92FF920F931F932F93E4
S1130DC03F934F935F936F937F938F939F93AF93CF
S1130DD0BF93CF93DF93EF93FF932FB1E091A002E2
S1130DE0F091A102309739F080918E0290918F0298
S1130DF0E80FF91F208380918E0290918F02019653
S1130E0090938F0280938E0280E00E945102C091E1
S1130E108E02D0918F028091310290913202C817D4
S1130E20D90708F046C00091BF021091C00280901B
S1130E30A0029090A1020F2EFAE0AF2EBB24F02D59
S1130E40AC0EBD1E8A159B0508F45C016401CC0E32
S1130E50DD1E7801EC0EFD1E15C00115110519F0FB
S1130E60F701808101C080E00E947901811491041E
S1130E7011F0F601808321960894C11CD11C0894BA
S1130E80E11CF11CC5010197C817D90730F381E0B3
S1130E900E9451020115110531F00C0F1D1FF801BC
S1130EA080818FB901C01FB8D0938F02C0938E0286
S1130EB011C01092A1021092A0021092C0021092CE
S1130EC0BF02109232021092310210928F021092DD
S1130ED08E028FB1FF91EF91DF91CF91BF91AF91CE
S1130EE09F918F917F916F915F914F913F912F913E
S1130EF01F910F91FF90EF90DF90CF90BF90AF9034
S1130F009F908F900F900FBE0F901F9018951F9277
S1130F100F920FB60F9211240F900FBE0F901F90D7
S1130F2018951F920F920FB60F9211240F900FBEB7
S1130F300F901F9018951F920F920FB60F921124C5
S1130F402F933F934F935F936F937F938F939F93CD
S1130F50AF93BF93EF93FF9360E08BE50E9485010D
S1130F6080E10E94B101FF91EF91BF91AF919F91F8
S1130F708F917F916F915F914F913F912F910F903E
S1130F800FBE0F901F9018951F920F920FB60F92DD
S1130F9011240F900FBE0F901F9018951F920F925F
S1130FA00FB60F9211240F900FBE0F901F9018953B
S1130FB01F920F920FB60F9211240F900FBE0F9035
S1130FC01F9018951F920F920FB60F9211240F9035
S1130FD00FBE0F901F9018951F920F920FB60F928D
S1130FE011240F900FBE0F901F9018951F920F920F
S1130FF00FB60F9211242F933F934F935F936F93E8
S11310007F938F939F93AF93BF93EF93FF938091BD
S113101062018A3F21F583B783BF00B600FCFDCF90
S113102081B799270196AA27BB272091BA0230914C
S1131030BB024091BC025091BD02280F391F4A1FC8
S11310405B1F2093BA023093BB024093BC025093BF
S1131050BD0278940E94F0041092620103C08F5F75
S113106080936201FF91EF91BF91AF919F918F9116
S11310707F916F915F914F913F912F910F900FBE90
S11310800F901F9018950F931F93CF93DF93182FF2
S11310900FB7F89480916701882381F40E9473014B
S11310A0BA9ABB98B99A6C9A80E00E945102709ADD
S11310B06B986A98689881E00E947301802F992741
S11310C08FBF8FB7F894C82FDD272C2F809167012D
S11310D0882361F481E08093670110937A0282E1AE
S11310E00E94B101CFBF80E090E021C0E12FFF2733
S11310F0E558FD4F80818F3F89F4E0915101E1175C
S113110089F40CC01093500104C0FF27E558FD4F2B
S113111010831093510180E090E002C085E090E0DC
S11311202FBF05C0809150018F3F79F7EBCFDF913E
S1131130CF911F910F9108950F931F93CF93DF9336
S1131140182F8FB7F894282F3327022F809164012A
S1131150882359F581E0809364011093AC022FBF7A
S11311608FB7F8949927379A8FBF8FB7F894C82F01
S1131170DD279C2F80914F018130A9F48091640177
S1131180813021F485E00E94B10109C0823059F414
S11311908091AC0280934F0183E080936401CFBFC0
S11311A080E090E025C09FBFFBCF8091AC02811707
S11311B011F42FBFF5CF812F0E947103882319F0FA
S11311C085E090E014C0E12FE695E695E695FF27CB
S11311D0EA56FD4F177081E090E002C0880F991F16
S11311E01A95E2F72081282B208380E090E00FBF3E
S11311F0DF91CF911F910F910895DF92EF92FF92AB
S11312000F931F93CF93DF93EC018B017A01D22EBE
S113121080916D018230C9F480E00E9443088130DE
S1131220A1F0D0926E01D0932B02C0932A021093A6
S11312302D0200932C02F0922F02E0922E0284E001
S113124080936D0180E090E002C081E090E0DF9146
S1131250CF911F910F91FF90EF90DF900895EF923F
S1131260FF920F931F93CF93DF93CDB7DEB72197F0
S11312700FB6F894DEBF0FBECDBFE0919F02E1FF31
S1131280F6C12091970230919802409199025091B1
S11312909A02E0909B02F0909C0200919D021091B2
S11312A09E02621B730B840B950B6E157F058007E2
S11312B0910708F4DCC1E0FF04C0ED7FE0939F02D6
S11312C00CC02E0D3F1D401F511F209397023093D9
S11312D098024093990250939A0280915601823069
S11312E041F516E01093560140E061E081E090E0A2
S11312F00E94520490916A01809156018230C9F48F
S113130010935601913108F090E09068998340E081
S113131061E0CE0101960E94520480E091E0909336
S11313209601809395018CE08093940183E00E9460
S1131330B1012091820180916901822F99270A9637
S11313408038910594F480916901806280936901E9
S11313502093AB0285E0809355028AE080933002AB
S1131360809378028DE00E94B1018FB7F894282F02
S1131370332780915301823011F02FBF18C02FBF43
S11313808DE091E090939D0180939C018DE090E02D
S113139090939F0180939E018FE00E94B101882366
S11313A031F48FB7F8949927109253018FBF10929C
S11313B0560280E58093570281E1809358028BE5C1
S11313C08093590210925D0210925C0284E1809332
S11313D05B0210925A028AE191E090935F0280933B
S11313E05E021092DA0188E28093DB011092E3013D
S11313F01092E201809190018093E8018091910123
S11314008093E901809192018093EA018091930194
S11314108093EB0186E592E09093ED018093EC01DB
S113142020E030E040E050E0E8EDF1E0819191917E
S1131430AA27BB27280F391F4A1F5B1F81E0EC3EF8
S1131440F807A1F706C040705070280F391F4A1FD3
S11314505B1FCA01AA27BB270097A105B10599F70D
S11314602095309540955095C9012093E201892F2C
S113147099278093E3019091E4018091E801981702
S1131480F9F49091E5018091E9019817C9F49091DC
S1131490E6018091EA01981799F48091E70180911F
S11314A0EB018091E80180934C028091E9018093E3
S11314B04D028091EA0180934E028091EB0109C0B4
S11314C080EC80934C0288EA80934D0281E0809303
S11314D04E0280934F0220E0E0916C01FF27EA5511
S11314E0FE4F90818091E8019817F1F4E0916C012E
S11314F0FF27EA55FE4F95818091E9019817A1F4E1
S1131500E0916C01FF27EA55FE4F92858091EA0134
S1131510981751F4E0916C01FF27EA55FE4F978527
S11315208091EB01981779F080916C018F5F809323
S11315306C0180916C01853011F410926C012F5F65
S1131540253051F66EC0E0916C01FF27EA55FE4F3D
S113155084898093A001E0916C01FF27EA55FE4F36
S1131560818D8093A101E0916C01FF27EA55FE4F24
S1131570868D8093A201E0916C01FF27EA55FE4F0E
S113158083A18093A301E0916C01FF27EA55FE4FEC
S113159080A58093A401E0916C01FF27EA55FE4FDA
S11315A085A58093A50181E08093570121E048E25D
S11315B050E060EA71E088ED91E00E94FD088091BE
S11315C082018F5F8093820180918201883271F45D
S11315D010928201809169018091690180618093F8
S11315E06901109265018BE00E94B1018091540160
S11315F0882321F4809155018F5F03C080915501A8
S113160081508093550180915501853018F081E017
S11316108093540180915501882349F51092540117
S113162026C08FEF8093A0018093A1018093A20133
S11316308093A3018093A4018093A5011092460294
S113164010924702109248021092490210924A02E4
S113165010924B0281E080933B021092570120E0EC
S11316604CE150E060EA71E084E392E0A6CF82E0CE
S11316700E94B10121960FB6F894DEBF0FBECDBF14
S1131680DF91CF911F910F91FF90EF900895CF922A
S1131690DF92EF92FF920F931F93CF93DF93CDB717
S11316A0DEB725970FB6F894DEBF0FBECDBF2FB7B8
S11316B0F894332780917A028093520182E08093D8
S11316C067012FBF80915201882309F0ACC31982AE
S11316D01B821A821D821C82C09A2FB7F89433276A
S11316E0809164008260809364002FBF2FB7F894C8
S11316F03327809165008260809365002FBF8091BD
S11317006D01833009F4CDC0843009F46AC281309C
S113171009F089C36FEF8FEF0E9485016DE18DE1C0
S11317200E9485018983898180FFF8CF80E00E942F
S1131730910160E088E40E94850166E089E40E94EA
S1131740850180E096E0909361018093600160E000
S11317508CE40E94850166E08DE40E9485016FEFB0
S11317608AE40E9485016FE18BE40E94850160E0B8
S113177084E40E94850160E085E40E94850160E8BC
S11317808EE50E94850181E00E94910161EA88E56D
S11317900E94850182E00E94910160E081E40E9440
S11317A0850161E080E40E94850162E382E40E9495
S11317B085016EEE8AE40E94850165E08BE40E9457
S11317C0850162E184E40E94850162E186E40E946D
S11317D085016CE087E40E94850183E00E94910109
S11317E061E081E40E94850166E180E40E94850154
S11317F06BEC83E40E9485016AEC82E40E9485011B
S11318006DE585E40E94850165E584E40E94850117
S113181082E00E94910160E184E50E948501898350
S113182060E086E50E948501898361E087E50E9486
S11318308501898364E184E50E948501898360E4EC
S113184086E50E948501898361E087E50E94850120
S1131850898362E184E50E948501898362E186E5EA
S11318600E948501898360E087E50E948501898360
S113187080E00E94910160ED8BE50E9485018983DF
S113188064E08FE10E94A50182E080936D0180E015
S11318900E94D80142E06AE086E291E00E943A02A6
S11318A0C2C280E00E949101609160017091610167
S11318B080E40E94850189836091600170916101D7
S11318C0672F772781E40E948501898360E08AE39A
S11318D00E94850199279093610180936001009192
S11318E060011091610160E08AE30E9485019927FB
S11318F0982F8827082B192B1093610100936001FE
S113190060E08AE30E94850199279D838C830C8182
S11319101D8160E08AE30E9485019927982F88271A
S1131920082B192B1D830C8360E08AE30E94850138
S1131930898360E08AE30E94850189831B821A827D
S11319400FC00A811B8160E08AE30E948501025175
S11319501E4FF80180838A819B8101969B838A8331
S11319602A813B818C819D812817390750F360912E
S11319706001709161018CE40E948501898360910A
S1131980600170916101672F77278DE40E948501C2
S1131990898360EC8EE50E94850180E00E94D80175
S11319A022E020936D018C819D818091EE018F3F17
S11319B009F09CC08091EF018F3F09F097C080919E
S11319C0F0018F3F09F092C08091F1018F3F09F03F
S11319D08DC08091F2018F3F09F088C08091F3019E
S11319E08F3F09F083C08091FA01883009F0F4C078
S11319F08091FB01863009F0EFC08091FC018823BF
S1131A0009F0EAC08091FD01813009F0E5C08091C0
S1131A10FE01883009F0E0C08091FF01882309F0BD
S1131A20DBC080911402803C09F0D6C0809115027D
S1131A30883A09F0D1C080911602813009F0CCC0F7
S1131A40809117028A3009F0C7C08091020288236E
S1131A5009F0C2C090910302913009F0BDC0809199
S1131A60FA0180934C028091FB0180934D02809196
S1131A70FC0180934E028091FD0180934F0290936C
S1131A80460286E1809347028BEC809348028AECFD
S1131A90809349028DE580934A0285E580934B0249
S1131AA08091F4018093A0018091F5018093A101BC
S1131AB08091F6018093A2018091F7018093A301A4
S1131AC08091F8018093A4018091F9018093A5018C
S1131AD020933B021092570120E04CE150E060EA71
S1131AE071E084E392E00E94FD0876C08091FA01DF
S1131AF0883009F06BC08091FB01863009F066C024
S1131B0080910202882309F067C080910302823029
S1131B1009F062C0E0917F01FF2780910A02EA5533
S1131B20FE4F8083E0917F01FF2780910B02EA55ED
S1131B30FE4F8583E0917F01FF2780910C02EA55D7
S1131B40FE4F8287E0917F01FF2780910D02EA55C5
S1131B50FE4F8787E0917F01FF2780910402EA55B9
S1131B60FE4F848BE0917F01FF2780910502EA55A7
S1131B70FE4F818FE0917F01FF2780910602EA5595
S1131B80FE4F868FE0917F01FF2780910702EA557F
S1131B90FE4F83A3E0917F01FF2780910802EA555D
S1131BA0FE4F80A7E0917F01FF2780910902EA554B
S1131BB0FE4F85A780917F018F5F80937F01809185
S1131BC07F01853049F410927F0106C08091800125
S1131BD0909181018091120260ED8BE50E94850154
S1131BE022C180E00E94910160E082E40E948501AC
S1131BF060E083E40E94850160E08AE70E94850139
S1131C0080916E01813061F500912C0210912D02BA
S1131C10F801608171818AE70E948501F801608181
S1131C207181672F77278AE70E948501F801628115
S1131C3073818AE70E948501F80162817381672FAD
S1131C4077278AE70E948501F801648175818AE714
S1131C500E948501F80164817581672F772715C07B
S1131C606FEF8AE70E9485016FEF8AE70E94850182
S1131C706FEF8AE70E9485016FEF8AE70E94850172
S1131C806FEF8AE70E9485016FEF8AE70E94850162
S1131C9061E08AE70E94850166E18AE70E94850186
S1131CA06BEC8AE70E9485016AEC8AE70E94850151
S1131CB06DE58AE70E94850165E58AE70E94850152
S1131CC068E08AE70E94850180916E01813009F005
S1131CD05FC060E08AE70E948501C0902A02D0902C
S1131CE02B02EE24FF248601F801608171818AE7CA
S1131CF00E948501F801619171918F01672F772707
S1131D008AE70E94850182E090E0E80EF91E94E1E2
S1131D10E916F10449F7F601E488F588870128E01B
S1131D20C22ED12CCE0CDF1CF801608171818AE7B0
S1131D300E948501F801619171918F01672F7727C6
S1131D408AE70E9485010C151D0571F7F7010085CE
S1131D501185EE24FF2412C0F801608171818AE7A5
S1131D600E948501F801619171918F01672F772796
S1131D708AE70E9485010894E11CF11C80912E02DF
S1131D8090912F0296958795E816F90628F326C0B8
S1131D9066E08AE70E94850100912A0210912B02D5
S1131DA0EE24FF2412C0F801608171818AE70E9449
S1131DB08501F801619171918F01672F77278AE777
S1131DC00E9485010894E11CF11C80912E029091DF
S1131DD02F0296958795E816F90628F380912E022E
S1131DE090912F020E9690932F0280932E02609171
S1131DF02E0270912F0286E40E94850160912E02CA
S1131E0070912F02672F772787E40E94850168E08D
S1131E108FE10E94A50180E00E94D80182E08093B6
S1131E206D018091570125960FB6F894DEBF0FBE61
S1131E30CDBFDF91CF911F910F91FF90EF90DF9075
S1131E40CF900895109297012FB7F8943327E4E6C2
S1131E50F0E08081886080832FBF2FB7F894332708
S1131E608081806180832FBFE1E6F0E080818E7FF6
S1131E70808380818D7F80832FB7F8943327E5E6B4
S1131E80F0E08081886080832FBF2FB7F8943327D8
S1131E9080818F7E80832FBFE2E6F0E080818E7F99
S1131EA0808380818D7F80838FB7F89499271092E7
S1131EB050028FBF80E00E949C0808952F923F92A9
S1131EC04F925F926F927F928F929F92AF92BF9246
S1131ED0CF92DF92EF92FF920F931F93CF93DF93F2
S1131EE0E82FFF27E331F10508F090C6EA5BFF4FC6
S1131EF0EE0FFF1F0590F491E02D0994FF241DC3FC
S1131F00C0E0D0E044C20FB7F894112740916801B3
S1131F106AE080918E0190918F010E943A020FBF76
S1131F2075C680917702882361F52091B1023091C2
S1131F30B2024091B3025091B402EFB7F894FF2774
S1131F406091920270919302809194029091950213
S1131F50E0907302F0907402009175021091760281
S1131F606E0D7F1D801F911FEFBF2093B102309330
S1131F70B2024093B3025093B402109277020E94CB
S1131F8073050E94C9043AC00E94C9047B018C01F4
S1131F908FB7F89499271092BE028FBF80919F0249
S1131FA081FF34C68091970290919802A091990282
S1131FB0B0919A02A8019701281B390B4A0B5B0BBD
S1131FC0DA01C90120919B0230919C0240919D024B
S1131FD050919E02281B390B4A0B5B0B2F3F8FEF4E
S1131FE038078FEF48078FE7580709F40FC6121612
S1131FF01306140615062CF0C801B7010E942F0918
S113200005C62093B1023093B2024093B3025093B9
S1132010B40281E080937702C801B7010E9473057E
S1132020F5C56091940141E08091950190919601EC
S11320300E945204EBC52FB7F89433278091AC0269
S113204080934F0183E0809364012FBF80914F01FF
S1132050882309F0DBC581E0809385021092B902E0
S11320600E94CA03D3C510928502E090A502F090A5
S1132070A6028091B902882309F0C8C58FB7F894E5
S1132080C82E80916401833009F041C080914F01D2
S11320908823E9F580919602882309F0B1C5A9C582
S11320A0ED2DE695E695E695FF274D2D5527EA5645
S11320B0FD4F9A012770307081E090E002C0880FD4
S11320C0991F2A95E2F78095208128232083009385
S11320D0630112C00F5F1F4F0130110511F400E0BE
S11320E010E0D02E802F0E9471038823C9F60C17AC
S11320F01D0781F74FEF50E04093AC028FEF8093C0
S11321004F0181E08093640185E00E94B101CFBE5C
S113211080919701843009F449C0853050F48130AE
S1132120D9F0813098F08230A9F1833009F06EC57E
S113213037C0863009F467C0863008F45EC0873043
S113214009F467C0883009F061C569C0F09299014B
S1132150E092980181E010C09FE1E916F10490F04B
S113216080916F01882319F010926F014FC5F0928E
S11321708702E092860282E08093970180E00E94C9
S11321809C0844C580916F018823C1F384E00E94B8
S1132190B1013CC5F0928902E092880283E0ECCF61
S11321A0F0928B02E0928A0284E0E6CFF0928D02F4
S11321B0E0928C020E948503909399018093980188
S11321C085E0809397012FB7F894332780916500B9
S11321D0877F809365002FBF2FB7F89433278091B2
S11321E065008061809365002FBF8FB7F8949927AD
S11321F021E0209350028FBFC1CFF0928702E0927A
S1132200860286E0B9CFF0928902E092880287E0E4
S1132210B3CFF0928B02E0928A0288E0ADCFF092C5
S11322208D02E0928C020E94850390939B0180931F
S11322309A0140919A0150919B012091980130910B
S11322409901809170018130C9F430935901209330
S1132250580150935B0140935A0182E080937001CE
S1132260109265018BE00E94B10140E067E284E3D3
S113227091E00E942E020E94220FC8C48091700136
S1132280823049F580915801909159018C599F4FA2
S11322908217930780F780915A0190915B018C59C2
S11322A09F4F8417950738F730935D0120935C01A5
S11322B050935F0140935E0183E08093700110921C
S11322C065018BE00E94B10140E26EE184E491E09B
S11322D00E942E029BC480915C0190915D0128179D
S11322E0390708F093C480915801909159018217DD
S11322F0930708F08BC480915E0190915F014817A9
S1132300590708F083C480915A0190915B018417A6
S1132310950708F07BC480915801909159018091F0
S11323205A0190915B0180915C0190915D018091D3
S113233058019091590180915E0190915F018091C3
S11323405A0190915B0162C41ABA1D9A1C9806C086
S11323501E9A000000001E9800000000CF99F8CFDC
S11323601D9A8FEF8ABB52C460915102610F809114
S1132370A7020E94060380915102180F8091A702C0
S11323809091A202890F612F81500E9406031C2F95
S1132390219680918002181738F3C0E0D0E012C073
S11323A08091A70260915102810F0E9406036091FF
S11323B0510280918002680F61508091A702810FC1
S11323C00E9406031C2F21968091A202181740F345
S11323D0809169018B7F82C3D09052028091A802C0
S11323E0D81A8091B802E82EFF24C701880F991FDC
S11323F0C3E0D0E0C81BD90BAA24BB2488249924A9
S11324005AC0609152026E0D8091A8028A0D0E94FA
S11324100603609152026E198091A8028A0D0E94EF
S11324200603609152026E0D8091A8028A190E94DF
S11324300603609152026E198091A8028A190E94C3
S1132440060380915202682F6A0D8E0D8D190E9429
S1132450060380915202682F6A198E0D8D190E940D
S1132460060380915202682F6A0D8E198D190E94FD
S1132470060380915202682F6A198E198D190E94E1
S11324800603D7FF04C02696C80DD91D0DC0C5018B
S11324908E199F09880F991F880F991F2A96C80FB4
S11324A0D91F0894E108F1080894A11CB11CE4E0C8
S11324B0F0E08E0E9F1EEA14FB040CF0A2CF809174
S11324C069018D7F0BC300E010E08F2D800F909188
S11324D0A90260915302890F0E94EF02E0918102E8
S11324E0F0918202E08185E0E802F0011124E00F1E
S11324F0F11FE85EFF4FC895E02D6E2F81E00E942A
S1132500BB020F5F1F4F05301105F9F6F5E0FF0E12
S11325108091A902609153028F0D0E94EF0260E046
S113252081E00E94BB02F394809181029091820227
S113253001969093820280938102E0918102F0914E
S113254082028081882309F0BECF809169018E7F49
S11325508093690180916901813009F457C38091A6
S11325606901823009F452C36AE070E083E891E0C3
S11325700E944603809168018F5F80936801809177
S11325806801883008F442C3109268013FC3109276
S1132590A4021092660180E06091A4020E94EF02FE
S11325A06091650181E00E94BB02809166018F5FAA
S11325B08093660187FFF0CF8091A4028F5F8093A0
S11325C0A402883030F3809169018F7E8093690181
S11325D080916901813009F419C3809169018230C5
S11325E009F414C3809169018F7E78C270907C02D3
S11325F06090AA02872D861980937401809033021B
S113260090905402981458F00F2EF0E02F2EF0E022
S11326103F2EF0E04F2EF0E05F2EF02D25C0682D08
S1132620772769197109882777FD8095982F0E946B
S113263098187B018C01672D772766197109882703
S113264077FD8095982F0E9498189B01AC01C801D2
S1132650B7010E9435181B012C0182E0809375019B
S1132660882D8919809373018914E8F5692D7727DA
S113267068197109882777FD8095982F0E9498180A
S11326805B016C01672D772767FD7095872F972F66
S11326900E9498187B018C0177FE08C020E030E08E
S11326A040E853E40E94F3177B018C01662D7727E1
S11326B0882777FD8095982F0E9498189B01AC017C
S11326C0C801B7010E94F2179B01AC01C601B50114
S11326D00E9435181B012C0181E080937501892D1E
S11326E08819809373019091730180917401891703
S11326F048F480917301609174010E945A19809387
S1132700720102C010927201891461F41092750171
S11327100F2EF0E02F2EF0E03F2EF0E04F2EF0E0F1
S11327205F2EF02D6714E9F4109276010CC08091AD
S11327307601680F8091AA020E94060380917601B7
S11327408F5F809376012091760160915402332744
S1132750809133029927861B9109281739073CF386
S113276018C11092760107C180917501813009F07A
S113277098C0109271018DC0609154027727882708
S113278077FD8095982F0E9498185B016C01109139
S1132790760190907101612F772767FD7095872FDF
S11327A0972F0E94981817FF06C020E030E040E8F9
S11327B053E40E94F3179B01AC01C201B1010E94D2
S11327C012199B01AC01C601B5010E94F2177B01ED
S11327D08C01692D7727882777FD8095982F0E9493
S11327E098189B01AC01C801B7010E94F3177B0143
S11327F08C01609133027727882777FD8095982F85
S11328000E9498189B01AC01C801B7010E94A51849
S11328108823D4F110917601909071018090760113
S1132820612F772767FD7095872F972F0E9498183F
S113283017FF06C020E030E040E853E40E94F3179D
S11328409B01AC01C201B1010E9412199B01AC01B0
S1132850C601B5010E94F2177B018C01692D77270F
S1132860882777FD8095982F0E9498189B01AC01CA
S1132870C801B7010E94F3170E947B182091AA0295
S1132880882D820F0E940603809171018F5F8093CF
S113289071019091710180917201891708F06CCFD8
S11328A065C080917501823009F055C010927101A4
S11328B04AC010917601B0907101A09076016091A8
S11328C054027727882777FD8095982F0E949818BF
S11328D06B017C01612F772767FD7095872F972FF8
S11328E00E94981817FF06C020E030E040E853E447
S11328F00E94F3179B01AC01C201B1010E9412199D
S11329009B01AC01C701B6010E94F3177B018C0146
S11329106B2D7727882777FD8095982F0E9498182C
S11329209B01AC01C801B7010E94F3170E947B18F8
S11329302091AA028A2D820F0E94060380917101C0
S11329408F5F809371019091710180917201891759
S113295008F0AFCF0BC080917501882339F48091C2
S1132960760160915402840F0E94060380917601DF
S11329708F5F80937601209176014091AA023327DC
S113298080917C029927841B9109821793070CF08C
S1132990EBCE80916901877FA1C010927A0194C027
S11329A080915502992787709070892B71F5209139
S11329B07802822F992787709070892B31F526959C
S11329C026952695209378011092790118C090914C
S11329D0790180917A0160915502669566956695B4
S11329E0690F9091AB02890F0E94EF026FEF81E0B3
S11329F00E94BB02809179018F5F8093790190914D
S1132A00790180917801981710F320917802283089
S1132A10E0F560915502862F992787709070892B75
S1132A20A1F580917801882301F52770209378011E
S1132A301092790141E050E012C080917701209119
S1132A407901FA0102C0EE0FFF1F2A95E2F78E2BDF
S1132A5080937701809179018F5F809379019091C0
S1132A60790180917801981740F380917A016695F5
S1132A70669566959091AB02890F0E94EF02609172
S1132A80770181E00E94BB021AC01092790111C043
S1132A906091790180917A0190915502690F90912A
S1132AA0AB02890F0E940603809179018F5F8093A6
S1132AB079019091790180917802981748F3809177
S1132AC07A018F5F80937A0190917A01809130022C
S1132AD0981708F465CF809169018F7D809369010F
S1132AE095C00E94970292C00E94970220919E0175
S1132AF030919F01E0919C01F0919D0121153105D8
S1132B0009F484C08091830290918402892B09F096
S1132B107DC03093B0022093AF02F0938402E0931F
S1132B20830210927E0210927D0281E080937F02E4
S1132B305E9A569A808121E030E030937E022093A1
S1132B407D020E94A30262C06CE18CE10E948501B7
S1132B5080937D0160E083E10E94570261E083E19C
S1132B600E94570280917D0186FF08C080E00E9488
S1132B704308813019F083E080936D0180917D01D9
S1132B8084FF44C060E081E00E94570280937C018E
S1132B9060E081E00E94570280937C0161E081E162
S1132BA00E94570280937B0190917C0180917B016C
S1132BB0981741F780917C0160ED8BE50E948501B7
S1132BC025C08FB7F89499271092A1021092A00201
S1132BD01092C0021092BF0210923202109231027F
S1132BE010928F0210928E028FBF10C00E94470B6A
S1132BF00DC081E080934F0110926401379887CA19
S1132C0080916301C82FDD278E0164CADF91CF91C3
S1132C101F910F91FF90EF90DF90CF90BF90AF90F6
S1132C209F908F907F906F905F904F903F902F90E8
S1132C3008958091B5028F3FB1F0282F3327F90111
S1132C40E05AFD4F80818093B5028F3F11F4809349
S1132C50C3028FEF80832F3F31F0822F0E945E0FDB
S1132C6081E090E0089580E090E00895CDEFD0E118
S1132C70DEBFCDBF0FB7F89443E150E06FEF70E0D3
S1132C8080E692E00E94EB178FEF8093B502809369
S1132C90C30281E08EBD83E083BF4CB55DB584EF94
S1132CA08A8309C02CB53DB52417350718F48A81E9
S1132CB081508A83A9018A818823A1F782B78983F5
S1132CC092B789819817E1F32CB53DB582B7898312
S1132CD092B789819817E1F38CB59DB5821B930B4C
S1132CE0409635E0969587953A95E1F79093B7022B
S1132CF08093B60213BE83B78EBD8EB580BF12BE5D
S1132D001DBC1CBC8FEF86BF86B780937C0080B748
S1132D10992787709070892BD1F715BA8FEF84BBF0
S1132D2016B880E285BF0E9419168823E1F792E065
S1132D3026E088E089B9109290009BB92093950011
S1132D401AB8809399001092980090939B00209356
S1132D509D0010929A0084E490E09093AE028093D8
S1132D60AD021092960280B7887080BF8CE083BF5A
S1132D7086EE81BF87B7826087BF0E94F0040E94FD
S1132D8019168823E1F7802F99278FBF7894109222
S1132D908D011A82809156018630D1F085B38F70EF
S1132DA085BB84B3806F84BB88E28A838E010E5F07
S1132DB01F4F40E061E0C8010E9452048FE08A8303
S1132DC040E061E0C8010E94520482E08093560111
S1132DD082B18C6F82B98AB38FEF8ABB83B183705F
S1132DE083B91BBA1F9A6FE380E00E94BB0281E0A3
S1132DF0809365011092A4021092660180E06091B4
S1132E00A4020E94EF026091650181E00E94BB026E
S1132E10809166018F5F8093660187FFF0CF809178
S1132E20A4028F5F8093A402883030F3109234029E
S1132E3001E00093350288E0809336021092370255
S1132E4086E08093380234E03093390210923A02DB
S1132E5085E580933C028DE580933D028AEC809366
S1132E603E028BEC80933F0286E180934002009304
S1132E70410220EC2093420298EA9093430200938B
S1132E8044028AE0809345022093E4019093E50193
S1132E900093E6018093E70185E48093D8011092C2
S1132EA0D90186E696E69093DD018093DC011092C9
S1132EB0DF011092DE018FEF8093E00181E18093C6
S1132EC0E10180916D018823C9F4B89AC09ABC9A33
S1132ED0C49A38BF80916A00806280936A008091AE
S1132EE06A008F7E80936A0089B7846089BF80E01E
S1132EF00E944308813011F000936D0180EC8093AF
S1132F00900188EA8093910181E08093920184E6A4
S1132F10809393010E94C90460939702709398026E
S1132F208093990290939A028CE291E0A0E0B0E041
S1132F3080939B0290939C02A0939D02B0939E0267
S1132F4080919F028E7F826080939F0282E00E9424
S1132F50B1016AE070E083E891E00E9446038FB714
S1132F60F894482F55277FEFE2EBF0E0C895602DE9
S1132F701AC087B7992783709070892B61F080B746
S1132F80992787709070892BD1F781B792B7891BE5
S1132F90883008F082B785B7837E8062862B85BF30
S1132FA078948895F8948091B5028F3F11F3282F77
S1132FB03327F901E05AFD4F90819093B5029F3F6A
S1132FC011F49093C30270832F3F99F24FBF822F65
S1132FD00E945E0FC4CFDC0101C06D93415050408C
S1132FE0E0F708955058192EEFD001D0D2C0BA1787
S1132FF06207730784079507B1F188F40EF41094FF
S11330000B2EBA2FA02D062E622F202D072E732FE4
S1133010302D082E842F402D092E952F502DFF275B
S11330205523B9F0591B49F0573E98F0469537950A
S11330302795A795F0405395C9F776F0BA0F621F0C
S1133040731F841F30F4879577956795B795F04083
S1133050939517FA0F2E0895BF1BBB27BA0B620B6B
S1133060730B840BF6CFDEF6DBC0AED001D091C07B
S1133070552359F0992369F09F575F57951B33F4F3
S113308042F4903811F4915805C09BC091589F3F69
S113309009F4C6C0BB27112462177307840730F4F0
S11330A0660F771F881FBB1F915098F311D00F92A2
S11330B00FD00F920DD0A0E82617370748071B063C
S11330C009F0A048BA2F602D7F918F9100240895B4
S11330D0A0E80024621773078407B10528F0621B77
S11330E0730B840BB1090A2A660F771F881FBB1F55
S11330F0A69581F7089597FB73D09F3738F0FEE9C2
S1133100F91B982F872F762F6B2F05C086C09695B5
S1133110879577956795F150D0F73EF49095809513
S1133120709561957F4F8F4F9F4F0895E89403C02A
S113313097FB0EF4F3DFB62F672F782F892F9EE9C4
S1133140002427C00ED05EF004C00BD026F001C0CE
S113315008D019F020F48FEF089580E0089581E0FD
S1133160089597FB092E052600F8689430D0E8945A
S113317007FC07C0621773078407950721F008F45A
S113318000940794989408959A95BB0F661F771F2F
S1133190881F11249923A1F08823B2F79F3F59F087
S11331A0BB0F48F421F4002011F460FF04C06F5FEA
S11331B07F4F8F4F9F4F881F9795879597F9089555
S11331C02CC09FEF80EC0895052E092607FA440FC2
S11331D0551F5F3F79F0AA27A51708F051E04795DE
S11331E0880F991F9F3F31F0BB27B91708F091E072
S11331F0879508959F919F911124E3CF97FB880FA2
S1133200991F9F3F31F0BB27B91708F091E08795CC
S113321008959F919F911124D4CF662777278827FB
S113322099270895D1DF01D0B4CF992339F05523DC
S113323029F09F575F57950F13F49AF1F1CF9158E6
S11332409F3FE1F3629FA12D0F92BB27639FA00DC7
S1133250B11DEE27729FA00DB11DEE1FAF93AA27DB
S1133260649FB00DE11D739FB00DE11DAA1F662779
S1133270829FB00DE11DA61F5527749FE00DA11D6F
S1133280551F839FE00DA11D561F849FA00D511D46
S1133290852F7A2F6E2F1F900F9088231AF4939501
S11332A039F48FCF000C111CBB1F661F771F881FBA
S11332B001280895991B79E004C0991F961708F016
S11132C0961B881F7A95C9F780950895FFCF55
S11332CE68656C6C6F20776F726C64210068656C36
S11332DE6C6F20776F726C640A0068656C6C6F207B
S11332EE776F726C64005544502052454144592EF8
S11332FE2E2E000050726573732052696768742F06
S113330E546F700043616C6962726174656400018C
S113331EFFFFFF0201060501360080006103200352
S105332E000693
S9030000FC
