:100000000C9449000C9468000C9468000C946800EF
:100010000C9468000C9468000C9468000C946800C0
:100020000C9468000C9468000C9468000C946800B0
:100030000C9468000C9468000C9468000C945B03AA
:100040000C944A030C9468000C9468000C946800AB
:100050000C9468000C9468000C9468000C94680080
:100060000C9468000C9468000C9468000C94680070
:100070000C9468000C9468000C9468000C94680060
:100080000C9468000C9468000C94680000081C181C
:10009000141011241FBECFEFD0E1DEBFCDBF11E0A1
:1000A000A0E0B1E0E4ECFAE000E00BBF02C0079092
:1000B0000D92A030B107D9F711E0A0E0B1E001C086
:1000C0001D92AF33B107E1F70E946D040C946105F6
:1000D0000C9400008FB7F894992708958FBF089566
:1000E0007FB7F89462B720910201309103014091EB
:1000F00004015091050106B601FE0FC081B792B709
:10010000280F311D411D511D2F5F3F4F4F4F5F4F36
:10011000290F311D411D511D04C0260F311D411DE8
:10012000511D872F99278FBFCA01B90108958FB735
:10013000F894992725B332E0232725BB8FBF089574
:10014000282F9FB7F894E82FFF27EA5FFE4F8081A2
:100150008F3F81F4E0913E01E21771F40BC02093D0
:10016000360104C0FF27EA5FFE4F208320933E0143
:1001700020E007C025E005C0809136018F3F91F750
:10018000EECF892F99278FBF822F99270895EF925D
:10019000FF920F931F93E0912D01E1FF2DC020915D
:1001A0002501309126014091270150912801E090CE
:1001B0002901F0902A0100912B0110912C01621B62
:1001C000730B840B950B6E157F0580079107A0F0CC
:1001D000E0FF04C0ED7FE0932D010CC02E0D3F1D0C
:1001E000401F511F20932501309326014093270182
:1001F000509328010E94970083E00E94A0001F9165
:100200000F91FF90EF900895DF92EF92FF920F937E
:100210001F938FB7F894282F3327D22E91B782B728
:1002200046B7981711F041FF02C02FBF6AC08091F6
:1002300013018823E1F10E947000E0900F01F0901B
:100240001001009111011091120120912E013091A5
:100250002F0140913001509131016E197F09800BBF
:10026000910B621773078407950720F01092130112
:1002700071E01EC02E0D3F1D401F511F80910201D5
:1002800090910301A0910401B0910501281B390B45
:100290004A0B5B0B273E31054105510540F4822F87
:1002A000223010F070E005C070E082E002C070E023
:1002B00086EE682F615000B601FCFDCF82B768174B
:1002C00009F46F5F20910201309103014091040114
:1002D00050910501DA01C9010196A11DB11D860FDA
:1002E000911DA11DB11D82179307A407B50710F436
:1002F000622F609561BFDFBE772319F082E00E9414
:10030000A0001F910F91FF90EF90DF900895AFB77D
:10031000F894BB27E1E0E093130160930F01709321
:100320001001809311019093120120932E013093BC
:100330002F014093300150933101AFBF0E9404015F
:100340000895EF92FF920F931F930E9470007B011C
:100350008C018FB7F8949927109213018FBF809169
:100360002D0181FF3DC08091250190912601A09132
:100370002701B0912801A8019701281B390B4A0BCE
:100380005B0BDA01C9012091290130912A014091CA
:100390002B0150912C01281B390B4A0B5B0B2F3F73
:1003A0008FEF38078FEF48078FE75807C9F012160D
:1003B0001306140615062CF0C801B7010E94C700E9
:1003C0000FC02093210130932201409323015093C9
:1003D000240181E080930101C801B7010E948701D7
:1003E0001F910F91FF90EF9008957FB7F89462B737
:1003F0002091390130913A0140913B0150913C01EB
:1004000006B601FE0FC081B792B7280F311D411DFE
:10041000511D2F5F3F4F4F4F5F4F290F311D411D22
:10042000511D04C0260F311D411D511D872F9927D5
:100430008FBFCA01B9010895EF92FF920F931F93E6
:10044000E0912001E1FF2DC02091180130911901A8
:1004500040911A0150911B01E0901C01F0901D0188
:1004600000911E0110911F01621B730B840B950BF1
:100470006E157F0580079107A0F0E0FF04C0ED7FB7
:10048000E09320010CC02E0D3F1D401F511F2093F3
:1004900018013093190140931A0150931B010E94D7
:1004A000970081E00E94A0001F910F91FF90EF90B4
:1004B0000895DF92EF92FF920F931F938FB7F894F6
:1004C000282F3327D22E91B782B746B7981711F04D
:1004D00041FF02C02FBF6AC080913D018823E1F136
:1004E0000E94F501E0901401F090150100911601B1
:1004F0001091170120910A0130910B0140910C01DC
:1005000050910D016E197F09800B910B62177307D3
:100510008407950720F010923D0171E01EC02E0D5A
:100520003F1D401F511F8091390190913A01A091C8
:100530003B01B0913C01281B390B4A0B5B0B273E5A
:1005400031054105510540F4822F223010F070E052
:1005500005C070E082E002C070E086EE682F615056
:1005600000B601FCFDCF82B7681709F46F5F2091D8
:10057000390130913A0140913B0150913C01DA013F
:10058000C9010196A11DB11D860F911DA11DB11DAF
:1005900082179307A407B50710F4622F609561BF17
:1005A000DFBE772319F080E00E94A0001F910F9119
:1005B000FF90EF90DF900895AFB7F894BB27E1E08C
:1005C000E0933D016093140170931501809316012F
:1005D0009093170120930A0130930B0140930C0173
:1005E00050930D01AFBF0E9459020895EF92FF9200
:1005F0000F931F930E94F5017B018C018FB7F89434
:10060000992710923D018FBF8091200181FF3DC04D
:100610008091180190911901A0911A01B0911B01CC
:10062000A8019701281B390B4A0B5B0BDA01C901A2
:1006300020911C0130911D0140911E0150911F011C
:10064000281B390B4A0B5B0B2F3F8FEF38078FEFBF
:1006500048078FE75807C9F0121613061406150647
:100660002CF0C801B7010E941C020FC02093320178
:1006700030933301409334015093350181E08093EE
:100680000E01C801B7010E94DC021F910F91FF907B
:10069000EF9008951F920F920FB60F9211248F932F
:1006A00083B783BF00B600FCFDCF8F910F900FBEC4
:1006B0000F901F9018951F920F920FB60F92112452
:1006C0002F933F934F935F936F937F938F939F935A
:1006D000AF93BF93EF93FF93809100018A3F09F09E
:1006E00040C083B783BF00B600FCFDCF81B7992718
:1006F0000196AA27BB272091020130910301409166
:10070000040150910501280F391F4A1F5B1F2093D8
:100710000201309303014093040150930501789442
:100720000E94040181B799270196AA27BB2720912F
:10073000390130913A0140913B0150913C01280F21
:10074000391F4A1F5B1F2093390130933A014093B0
:100750003B0150933C0178940E9459021092000191
:1007600003C08F5F80930001FF91EF91BF91AF9124
:100770009F918F917F916F915F914F913F912F91B9
:100780000F900FBE0F901F901895EF92FF920F934E
:100790001F9380910101882361F5209121013091FF
:1007A00022014091230150912401EFB7F894FF27D3
:1007B00060910F01709110018091110190911201CF
:1007C000E0902E01F0902F01009130011091310145
:1007D0006E0D7F1D801F911FEFBF2093210130936D
:1007E00022014093230150932401109201010E94A1
:1007F00087010E9470000E94C7001F910F91FF9017
:10080000EF900895EF92FF920F931F9380910E0146
:10081000882361F5209132013091330140913401F8
:1008200050913501EFB7F894FF2760911401709152
:1008300015018091160190911701E0900A01F09046
:100840000B0100910C0110910D016E0D7F1D801F99
:10085000911FEFBF20933201309333014093340155
:100860005093350110920E010E94DC020E94F501A6
:100870000E941C021F910F91FF90EF9008958091AC
:1008800036018F3F39F1282F3327F901EA5FFE4FF8
:100890008081809336018F3F11F480933E018FEF6A
:1008A00080832F3FB9F0213051F0213028F02230E1
:1008B00049F0233051F00BC00E94020408C00E948E
:1008C000F60205C00E94C50302C00E94A10181E09A
:1008D00090E0089580E090E00895CDEFD0E1DEBF94
:1008E000CDBFFFB6F89444E050E06FEF70E086E0D3
:1008F00091E00E945A058FEF8093360180933E016C
:1009000081E08EBD83E083BF4CB55DB58AE78A8305
:1009100009C02CB53DB52417350718F48A818150DC
:100920008A83A9018A818823A1F782B7898392B734
:1009300089819817E1F32CB53DB582B7898392B7C9
:1009400089819817E1F38CB59DB5821B930B409676
:1009500025E0969587952A95E1F790933801809345
:10096000370113BE83B78EBD8EB580BF12BE1DBCCE
:100970001CBC8FEF86BF86B780937C0080B7992719
:1009800087709070892BD1F715BA8FEF84BB80E206
:1009900085BF0E943F048823E1F780B7887080BF3D
:1009A0000BE003BF16EE11BF87B7826087BF0E94BE
:1009B000040180B7887080BF03BF11BF87B7826012
:1009C00087BF0E9459020E943F048823E1F78F2DC0
:1009D00099278FBF78940E947000609325017093CF
:1009E0002601809327019093280188E290E0A0E0FF
:1009F000B0E08093290190932A01A0932B01B0933A
:100A00002C0180912D018E7F826080932D0183E0E7
:100A10000E94A000A19AA59A8FB7F894482F552755
:100A20007FEFECE8F0E0C895602D1AC087B79927F2
:100A300083709070892B61F080B7992787709070D0
:100A4000892BD1F781B792B7891B8C3008F082B718
:100A500085B7837E8062862B85BF78948895F894CD
:100A6000809136018F3F11F3282F3327F901EA5F78
:100A7000FE4F8081809336018F3F11F480933E01B9
:100A800070832F3F99F24FBF213059F0213030F061
:100A9000223051F0233009F0BFCF09C00E94020478
:100AA000BBCF0E94F602B8CF0E94C503B5CF0E940B
:100AB000A101B2CFDC0101C06D9341505040E0F77D
:040AC0000895FFCFC7
:00000001FF
