S01A00006275696C642F626967415652362F6D61696E2E73726563A6
S11300000C9449000C9468000C9468000C946800EB
S11300100C9468000C9468000C9468000C946800BC
S11300200C9468000C9468000C9468000C946800AC
S11300300C9468000C9468000C9468000C94C8013B
S11300400C94B7010C9468000C9468000C9468003C
S11300500C9468000C9468000C9468000C9468007C
S11300600C9468000C9468000C9468000C9468006C
S11300700C9468000C9468000C9468000C9468005C
S11300800C9468000C9468000C94680000081C1818
S1130090141011241FBECFEFD0E1DEBFCDBF11E09D
S11300A0A0E0B1E0E6E6F8E000E00BBF02C0079094
S11300B00D92A230B107D9F711E0A2E0B1E001C07E
S11300C01D92A832B107E1F70E9419030C9432047F
S11300D00C9400008FB7F894992708958FBF089562
S11300E07FB7F89462B720912201309123014091A7
S11300F024015091250106B601FE0FC081B792B7C5
S1130100280F311D411D511D2F5F3F4F4F4F5F4F32
S1130110290F311D411D511D04C0260F311D411DE4
S1130120511D872F99278FBFCA01B9010895282F20
S11301309FB7F894E82FFF27EA5FFE4F80818F3F37
S113014081F4E0912701E21771F40BC020931F01A1
S113015004C0FF27EA5FFE4F20832093270120E09D
S113016007C025E005C080911F018F3F91F7EECFB6
S1130170892F99278FBF822F99270895DF92EF92B5
S1130180FF920F931F938FB7F894282F3327D22E03
S113019091B782B746B7981711F041FF02C02FBF3D
S11301A06AC0809126018823E1F10E947000E090EA
S11301B00E01F0900F010091100110911101209196
S11301C0090130910A0140910B0150910C016E1903
S11301D07F09800B910B621773078407950720F042
S11301E01092260171E01EC02E0D3F1D401F511FAD
S11301F08091220190912301A0912401B0912501C5
S1130200281B390B4A0B5B0B273E31054105510571
S113021040F4822F223010F070E005C070E082E0DC
S113022002C070E086EE682F615000B601FCFDCF7D
S113023082B7681709F46F5F20912201309123017E
S11302404091240150912501DA01C9010196A11DB3
S1130250B11D860F911DA11DB11D82179307A4071F
S1130260B50710F4622F609561BFDFBE772319F0E4
S113027081E00E9497001F910F91FF90EF90DF9013
S11302800895AFB7F894BB27E1E0E09326016093AB
S11302900E0170930F01809310019093110120932C
S11302A0090130930A0140930B0150930C01AFBF35
S11302B00E94BE000895CF93DF93CDB7DEB7249795
S11302C00FB6F894DEBF0FBECDBF9C0119823FC0AC
S11302D085B3837085BB413011F4AA9A01C0AA98F2
S11302E0AB9A8981F901E80FF11D8081807F8B83AE
S11302F085B39B81892B85BBAB9885B38F7085BBF8
S1130300AB9A8981F901E80FF11D80818F708B838D
S11303108B818295807F8B8385B39B81892B85BB61
S1130320AB9885B3837085BB1A820BC01C8203C053
S11303308C818F5F8C838C818430D0F38A818F5F32
S11303408A838A818A3F90F389818F5F8983898137
S1130350861708F4BDCF82E08093000124960FB67F
S1130360F894DEBF0FBECDBFDF91CF9108951F92E9
S11303700F920FB60F9211248F9383B783BF00B6E9
S113038000FCFDCF8F910F900FBE0F901F9018951A
S11303901F920F920FB60F9211242F933F934F93F6
S11303A05F936F937F938F939F93AF93BF93EF93D9
S11303B0FF93809102018A3F21F583B783BF00B682
S11303C000FCFDCF81B799270196AA27BB2720916E
S11303D02201309123014091240150912501280FDD
S11303E0391F4A1F5B1F209322013093230140933E
S11303F024015093250178940E94BE0010920201BA
S113040003C08F5F80930201FF91EF91BF91AF9181
S11304109F918F917F916F915F914F913F912F9118
S11304200F900FBE0F901F901895EF92FF920F93AD
S11304301F93E0911A01E1FF33C020911201309122
S113044013014091140150911501E0901601F090B0
S113045017010091180110911901621B730B840B91
S1130460950B6E157F0580079107D0F0E0FF04C05F
S1130470ED7FE0931A010CC02E0D3F1D401F511F4C
S113048020931201309313014093140150931501EA
S11304908FB7F894992728B330E2232728BB8FBF5E
S11304A082E00E9497001F910F91FF90EF900895B2
S11304B0EF92FF920F931F930E9470007B018C01B7
S11304C08FB7F8949927109226018FBF80911A0153
S11304D081FF3DC08091120190911301A0911401FC
S11304E0B0911501A8019701281B390B4A0B5B0B2E
S11304F0DA01C901209116013091170140911801C8
S113050050911901281B390B4A0B5B0B2F3F8FEFBE
S113051038078FEF48078FE75807C9F012161306FC
S1130520140615062CF0C801B7010E9415020FC06D
S113053020931B0130931C0140931D0150931E0115
S113054081E080930D01C801B7010E9441011F9110
S11305500F91FF90EF900895EF92FF920F931F93E6
S113056080910D01882361F520911B0130911C01BC
S113057040911D0150911E01EFB7F894FF2760913F
S11305800E0170910F018091100190911101E09082
S11305900901F0900A0100910B0110910C016E0DFC
S11305A07F1D801F911FEFBF20931B0130931C01FF
S11305B040931D0150931E0110920D010E944101B0
S11305C00E9470000E9415021F910F91FF90EF90FE
S11305D0089580911F018F3F49F1282F3327F90196
S11305E0EA5FFE4F808180931F018F3F11F4809357
S11305F027018FEF80832F3FC9F0213079F021301C
S113060018F0223071F00FC06091030141E0809135
S11306100401909105010E945B0105C00E94AC0297
S113062002C00E94580281E090E0089580E090E0CA
S11306300895CDEFD0E1DEBFCDBF1FB7F89443E0FE
S113064050E06FEF70E086E091E00E942B048FEFA2
S113065080931F018093270181E08EBD83E083BFD7
S11306604CB55DB584EF8A8309C02CB53DB524171C
S1130670350718F48A8181508A83A9018A818823E5
S1130680A1F782B7898392B789819817E1F32CB5D2
S11306903DB582B7898392B789819817E1F38CB508
S11306A09DB5821B930B409625E0969587952A95D8
S11306B0E1F7909321018093200113BE83B78EBD8F
S11306C08EB580BF12BE1DBC1CBC8FEF86BF86B723
S11306D080937C0080B7992787709070892BD1F71D
S11306E015BA8FEF84BB80E285BF0E94E90288239C
S11306F0E1F780B7887080BF8CE083BF86EE81BF4E
S113070087B7826087BF0E94BE000E94E9028823E7
S1130710E1F7812F99278FBF78941A828091000185
S11307208630D1F085B3837085BB84B38C6F84BB72
S113073088E28A838E010E5F1F4F40E061E0C801AA
S11307400E945B018CE08A8340E061E0C8010E9462
S11307505B0182E08093000180910001823049F4C2
S113076086E08093000140E061E081E090E00E9437
S11307705B01BD9AC59A0E94700060931201709348
S11307801301809314019093150182E390E0A0E09B
S1130790B0E08093160190931701A0931801B093D1
S11307A0190180911A018E7F826080931A0182E080
S11307B00E94970000910401109105018FB7F894ED
S11307C0482F55277FEFECE8F0E0C895602D1AC05C
S11307D087B7992783709070892B61F080B7992728
S11307E087709070892BD1F781B792B7891B8830B5
S11307F008F082B785B7837E8062862B85BF7894A4
S11308008895F89480911F018F3F11F3282F332787
S1130810F901EA5FFE4F808180931F018F3F11F43D
S11308208093270170832F3F99F24FBF213069F0E5
S1130830213020F0223009F0C1CF0AC060910301B9
S113084041E0C8010E945B01B9CF0E94AC02B6CF5F
S11308500E945802B3CFDC0101C06D934150504057
S1090860E0F70895FFCF4C
S1050866050087
S9030000FC
