:100000000C9449000C9468000C9468000C946800EF
:100010000C9468000C9468000C9468000C946800C0
:100020000C9468000C9468000C9468000C946800B0
:100030000C9468000C9468000C9468000C94F50112
:100040000C94E4010C9468000C9468000C94680013
:100050000C9468000C9468000C9468000C94680080
:100060000C9468000C9468000C9468000C94680070
:100070000C9468000C9468000C9468000C94680060
:100080000C9468000C9468000C94680000081C181C
:10009000141011241FBECFEFD0E1DEBFCDBF11E0A1
:1000A000A0E0B1E0EEEAF8E000E00BBF02C007908C
:1000B0000D92AA30B107D9F711E0AAE0B1E001C072
:1000C0001D92AC32B107E1F70E943A030C9456043A
:1000D0000C9400008FB7F894992708958FBF089566
:1000E0007FB7F89462B720912601309127014091A3
:1000F00028015091290106B601FE0FC081B792B7C1
:10010000280F311D411D511D2F5F3F4F4F4F5F4F36
:10011000290F311D411D511D04C0260F311D411DE8
:10012000511D872F99278FBFCA01B9010895282F24
:100130009FB7F894E82FFF27E55FFE4F80818F3F40
:1001400081F4E0912B01E21771F40BC0209323019D
:1001500004C0FF27E55FFE4F208320932B0120E0A2
:1001600007C025E005C0809123018F3F91F7EECFB6
:10017000892F99278FBF822F99270895DF92EF92B9
:10018000FF920F931F938FB7F894282F3327D22E07
:1001900091B782B746B7981711F041FF02C02FBF41
:1001A0006AC080912A018823E1F10E947000E090EA
:1001B0001201F0901301009114011091150120918A
:1001C0000D0130910E0140910F01509110016E19F7
:1001D0007F09800B910B621773078407950720F046
:1001E00010922A0171E01EC02E0D3F1D401F511FAD
:1001F0008091260190912701A0912801B0912901B9
:10020000281B390B4A0B5B0B273E31054105510575
:1002100040F4822F223010F070E005C070E082E0E0
:1002200002C070E086EE682F615000B601FCFDCF81
:1002300082B7681709F46F5F20912601309127017A
:100240004091280150912901DA01C9010196A11DAF
:10025000B11D860F911DA11DB11D82179307A40723
:10026000B50710F4622F609561BFDFBE772319F0E8
:1002700080E00E9497001F910F91FF90EF90DF9018
:100280000895AFB7F894BB27E1E0E0932A016093AB
:100290001201709313018093140190931501209320
:1002A0000D0130930E0140930F0150931001AFBF29
:1002B0000E94BE000895CF93DF93CDB7DEB7249799
:1002C0000FB6F894DEBF0FBECDBF9C0119823FC0B0
:1002D00085B3837085BB413011F4AA9A01C0AA98F6
:1002E000AB9A8981F901E80FF11D8081807F8B83B2
:1002F00085B39B81892B85BBAB9885B38F7085BBFC
:10030000AB9A8981F901E80FF11D80818F708B8391
:100310008B818295807F8B8385B39B81892B85BB65
:10032000AB9885B3837085BB1A820BC01C8203C057
:100330008C818F5F8C838C818530D0F38A818F5F35
:100340008A838A818F3F91F789818F5F8983898131
:10035000861708F4BDCF24960FB6F894DEBF0FBE03
:10036000CDBFDF91CF910895FF920F931F93CF934D
:10037000DF93CDB7DEB721970FB6F894DEBF0FBE7F
:10038000CDBF8C01F62E213108F020E0413009F478
:10039000205C2068298322E440E061E0CE010196E0
:1003A0000E945B0122E441E06F2DC8010E945B01C5
:1003B00021960FB6F894DEBF0FBECDBFDF91CF916F
:1003C0001F910F91FF9008951F920F920FB60F92F9
:1003D00011248F9383B783BF00B600FCFDCF8F91AC
:1003E0000F900FBE0F901F9018951F920F920FB68F
:1003F0000F9211242F933F934F935F936F937F93AB
:100400008F939F93AF93BF93EF93FF9380910A01D4
:100410008A3F21F583B783BF00B600FCFDCF81B7CB
:1004200099270196AA27BB27209126013091270101
:100430004091280150912901280F391F4A1F5B1F45
:1004400020932601309327014093280150932901DE
:1004500078940E94BE0010920A0103C08F5F8093BF
:100460000A01FF91EF91BF91AF919F918F917F9181
:100470006F915F914F913F912F910F900FBE0F9011
:100480001F901895EF92FF920F931F93E0911E011A
:10049000E1FF33C0209116013091170140911801FE
:1004A00050911901E0901A01F0901B0100911C017C
:1004B00010911D01621B730B840B950B6E157F054C
:1004C00080079107D0F0E0FF04C0ED7FE0931E01AC
:1004D0000CC02E0D3F1D401F511F2093160130935D
:1004E000170140931801509319018FB7F894992779
:1004F00028B330E2232728BB8FBF81E00E949700FA
:100500001F910F91FF90EF900895EF92FF920F933C
:100510001F930E9470007B018C018FB7F89499277C
:1005200010922A018FBF80911E0181FF3DC08091F2
:10053000160190911701A0911801B0911901A8011D
:100540009701281B390B4A0B5B0BDA01C90120917B
:100550001A0130911B0140911C0150911D01281B73
:10056000390B4A0B5B0B2F3F8FEF38078FEF480794
:100570008FE75807C9F012161306140615062CF05B
:10058000C801B7010E9442020FC020931F0130939F
:100590002001409321015093220181E080931101B9
:1005A000C801B7010E9441011F910F91FF90EF9088
:1005B0000895EF92FF920F931F938091110188236A
:1005C00061F520911F01309120014091210150914E
:1005D0002201EFB7F894FF27609112017091130187
:1005E0008091140190911501E0900D01F0900E01A1
:1005F00000910F01109110016E0D7F1D801F911F42
:10060000EFBF20931F0130932001409321015093AD
:100610002201109211010E9441010E9470000E946B
:1006200042021F910F91FF90EF9008958091230156
:100630008F3FE9F0282F3327F901E55FFE4F8081D6
:10064000809323018F3F11F480932B018FEF8083E0
:100650002F3F69F0222319F0213021F005C00E94BC
:10066000D90202C00E94850281E090E0089580E0F6
:1006700090E00895CDEFD0E1DEBFCDBF0FB7F89485
:1006800042E050E06FEF70E08BE091E00E944F0499
:100690008FEF8093230180932B0181E08EBD83E057
:1006A00083BF4CB55DB584EF898309C02CB53DB5DA
:1006B0002417350718F4898181508983A90189811C
:1006C0008823A1F782B78A8392B78A819817E1F3CA
:1006D0002CB53DB582B78A8392B78A819817E1F32A
:1006E0008CB59DB5821B930B409625E0969587951A
:1006F0002A95E1F7909325018093240113BE83B7D7
:100700008EBD8EB580BF12BE1DBC1CBC8FEF86BFD8
:1007100086B780937C0080B7992787709070892B6B
:10072000D1F715BA8FEF84BB80E285BF0E94160314
:100730008823E1F780B7887080BF8CE083BF86EEA6
:1007400081BF87B7826087BF0E94BE000E941603E8
:100750008823E1F7802F99278FBF789485B3837022
:1007600085BB84B38C6F84BB88E2898322E440E03C
:1007700061E08E010F5F1F4FC8010E945B018CE09A
:10078000898322E440E061E0C8010E945B0181E0CE
:100790008A8322E440E061E0CE0102960E945B0180
:1007A00090E390930301909304019093060181E3F9
:1007B000809305019093070120E040E065E083E02D
:1007C00091E00E94B40125E040E062E080E091E029
:1007D0000E94B401BD9AC59A0E94700060931601F0
:1007E00070931701809318019093190182E390E0B0
:1007F000A0E0B0E080931A0190931B01A0931C012C
:10080000B0931D0180911E018E7F826080931E0136
:1008100081E00E9497008FB7F894482F55277FEF0B
:10082000ECE8F0E0C895602D1AC087B7992783706F
:100830009070892B61F080B7992787709070892B11
:10084000D1F781B792B7891B863008F082B785B798
:10085000837E8062862B85BF78948895F8948091FA
:1008600023018F3F11F3282F3327F901E55FFE4F56
:100870008081809323018F3F11F480932B0170833B
:100880002F3F99F24FBF222321F0213009F0C3CF2F
:1008900003C00E94D902BFCF0E948502BCCFDC01F9
:0E08A00001C06D9341505040E0F70895FFCF26
:0A08AE006D73003030303030000070
:00000001FF
