:100000000C9449000C9468000C9468000C946800EF
:100010000C9468000C9468000C9468000C946800C0
:100020000C9468000C9468000C9468000C946800B0
:100030000C9468000C9468000C9468000C946800A0
:100040000C9468000C9468000C948E000C9468006A
:100050000C94CB000C9468000C9468000C9468001D
:100060000C9468000C9468000C9468000C94680070
:100070000C9468000C9468000C940A010C946800BD
:100080000C941C010C9468000C94680000081C1867
:10009000141011241FBECFEFD0E1DEBFCDBF11E0A1
:1000A000A0E0B1E0E4EAF3E000E00BBF02C007909B
:1000B0000D92A030B107D9F711E0A0E0B1E001C086
:1000C0001D92A431B107E1F70E9427010C94D101E0
:1000D0000C9400008FB7F894992708958FBF089566
:1000E00080910C018F3F19F480E090E00895282F53
:1000F0003327F901E050FF4F808180930C018F3F3F
:1001000011F4809311018FEF808390E02F3F09F469
:1001100091E081E09827892F992708951F920F92E7
:100120000FB60F9211242F933F938F939F93EF93CA
:10013000FF935F9B25C02CB1E0910501F091060172
:100140003097F1F080910F0190911001E80FF91FA5
:10015000208301969093100180930F01209112014A
:10016000309113018217930758F0109206011092F4
:10017000050180910701833019F05798109207010B
:10018000FF91EF919F918F913F912F910F900FBE13
:100190000F901F90189578941F920F920FB60F92A0
:1001A00011242F934F935F938F939F93EF93FF931C
:1001B000409100015091010180910A0190910B0141
:1001C00048175907A0F4E0910301F0910401E40FEE
:1001D000F51F20814F5F5F4F509301014093000155
:1001E0008FB7F89499272CB95E9A8FBF07C01092E9
:1001F000040110920301109202015698FF91EF91B1
:100200009F918F915F914F912F910F900FBE0F9003
:100210001F9018951F920F920FB60F9211248F9373
:1002200080919B0087FF02C080919C008F910F906E
:100230000FBE0F901F90189578941F920F920FB6D3
:100240000F9211240F900FBE0F901F901895CDEFB5
:10025000D0E1DEBFCDBF1FB7F8948FEF80930C01C4
:100260008093110181E08EBD83E083BF4CB55DB505
:1002700084EF8A8309C02CB53DB52417350718F4DF
:100280008A8181508A83A9018A818823A1F782B754
:10029000898392B789819817E1F32CB53DB582B770
:1002A000898392B789819817E1F38CB59DB5821B3C
:1002B000930B409625E0969587952A95E1F79093C4
:1002C0000E0180930D0113BE83B78EBD8EB580BF26
:1002D00012BE1DBC1CBC8FEF86BF86B780937C000E
:1002E00080B7992787709070892BD1F715BA8FEF57
:1002F00084BB80E285BF0E9470008823E1F792E012
:1003000026E088E089B9109290009BB9209395006F
:100310001AB8809399001092980090939B002093B4
:100320009D0010929A0084E490E0909309018093DC
:1003300008010E9470008823E1F7812F99278FBF61
:100340007894569857981092070110920201539A88
:10035000549A579A8FB7F894482F55276FEFECE8C7
:10036000F0E0C895902D08C085B7837E8062892B08
:1003700085BF78948895F89480910C018F3FA1F304
:10038000282F3327F901E050FF4F808180930C0123
:100390008F3F11F48093110160832F3F29F34FBFEA
:0403A000D9CFFFCFE3
:00000001FF
