S01A00006275696C642F626967415652362F6D61696E2E73726563A6
S11300000C9439010C9458010C9458010C94580127
S11300100C9458010C9458010C9458010C945801F8
S11300200C9458010C9458010C9458010C945801E8
S11300300C9458010C9458010C9458010C94C2036C
S11300400C94B1030C9458010C9458010C9458016D
S11300500C9458010C9429030C9458010C945801E5
S11300600C9458010C9458010C9458010C945801A8
S11300700C9458010C9458010C9458010C94580198
S11300800C9458010C9458010C94580100081C1845
S11300901410000000000000005F000000070007CB
S11300A000147F147F14242A7F2A12231308646205
S11300B036495522500005030000001C224100006F
S11300C041221C00082A1C2A0808083E080800507F
S11300D030000008080808080060600000201008CC
S11300E004023E5149453E00427F4000426151496D
S11300F0462141454B311814127F10274545453997
S11301003C4A4949300171090503364949493606D3
S11301104949291E00363600000056360000000802
S1130120142241141414141441221408000201511D
S11301300906324979413E7E1111117E7F494949B0
S1130140363E414141227F4141221C7F4949494178
S11301507F090901013E414151327F0808087F00AF
S1130160417F41002040413F017F081422417F40EC
S11301704040407F0204027F7F0408107F3E4141DB
S1130180413E7F090909063E4151215E7F09192933
S113019046464949493101017F01013F4040403F02
S11301A01F2040201F7F2018207F6314081463033E
S11301B004780403615149454300007F414102042E
S11301C008102041417F0000040201020440404025
S11301D04040000102040020545454787F484444B1
S11301E0383844444420384444487F3854545418DC
S11301F0087E090102081454543C7F080404780062
S1130200447D40002040443D00007F1028440041CC
S11302107F40007C041804787C0804047838444443
S113022044387C14141408081414187C7C0804043E
S1130230084854545420043F4440203C4040207C0F
S11302401C2040201C3C4030403C44281028440CD6
S11302505050503C4464544C440008364100000063
S11302607F0000004136080008082A1C08081C2AE0
S1130270080811241FBECFEFD0E1DEBFCDBF11E0CF
S1130280A0E0B1E0E8E7F6E100E00BBF02C00790B0
S11302900D92A231B107D9F711E0A2E1B1E001C09A
S11302A01D92AE35B107E1F70E94DD080C943B0BBB
S11302B00C9400008FB7F894992708958FBF089580
S11302C07FB7F89462B7209156013091570140915D
S11302D058015091590106B601FE0FC081B792B77B
S11302E0280F311D411D511D2F5F3F4F4F4F5F4F51
S11302F0290F311D411D511D04C0260F311D411D03
S1130300511D872F99278FBFCA01B9010895782FEE
S1130310522FBFB7F89480912F018E7F80932F01C5
S113032087B1A82FAF71262F33278295869586959E
S1130330837099272817390719F020E030E013C09B
S1130340872F8850863118F021E030E00CC0E0E0BF
S1130350F0E0272F33278A2F99272817390711F41C
S1130360E1E0F0E09F01E22FE1702E2F220F809157
S11303702F018178372F3F71932F990F990F822B7B
S1130380892B80932F0141704295440F407E407227
S11303906295660F660F607C432B462B842F99274A
S11303A087B9583061F5809152019091530121E051
S11303B08638920718F027E030E020C0833C91058E
S11303C018F026E030E01AC08136910518F025E0D7
S11303D030E014C08033910518F024E030E00EC002
S11303E08831910518F023E030E008C08C30910585
S11303F018F022E030E002C020E030E0522F5770C5
S1130400887D852B886D992786B98B2F99278FBF77
S11304108E2F99270895282F9FB7F894E82FFF2748
S1130420E25EFE4F80818F3F81F4E0915D01E2172F
S113043071F40BC02093510104C0FF27E25EFE4F0C
S1130440208320935D0120E007C025E005C0809152
S113045051018F3F91F7EECF892F99278FBF822FBC
S113046099270895DF92EF92FF920F931F938FB70E
S1130470F894282F3327D22E91B782B746B798170E
S113048011F041FF02C02FBF6AC080915A01882336
S1130490E1F10E946001E0903601F0903701009193
S11304A038011091390120912A0130912B0140919A
S11304B02C0150912D016E197F09800B910B62174D
S11304C073078407950720F010925A0171E01EC04B
S11304D02E0D3F1D401F511F8091560190915701D1
S11304E0A0915801B0915901281B390B4A0B5B0BA1
S11304F0273E31054105510540F4822F223010F08A
S113050070E005C070E082E002C070E086EE682F03
S1130510615000B601FCFDCF82B7681709F46F5F24
S11305202091560130915701409158015091590141
S1130530DA01C9010196A11DB11D860F911DA11DEE
S1130540B11D82179307A407B50710F4622F6095B5
S113055061BFDFBE772319F08AE00E940B021F916E
S11305600F91FF90EF90DF900895AFB7F894BB27F9
S1130570E1E0E0935A016093360170933701809370
S113058038019093390120932A0130932B01409331
S11305902C0150932D01AFBF0E943202089520E038
S11305A040E060E08FE10E94870108950F931F935C
S11305B0182F062F82E00E940B02112329F483B125
S11305C08F7C83B91E9A04C01D9883B1806583B95A
S11305D08FEF8ABB0BBB000000000000000000008E
S11305E00000000000001E981F910F9108951F93B2
S11305F0162F803418F41B9A1A9802C01A9A1B9862
S11306008F738064682F80E00E94D6021F73186B7A
S1130610612F80E00E94D6021F9108959C01809171
S11306201001882319F481E090E0089510921001DC
S113063060934A0140931C013093340120933301A9
S113064085E00E940B0281E08093100180E090E03D
S113065008951F920F920FB60F9211240F931F93B8
S11306602F933F934F935F936F937F938F939F93B6
S1130670AF93BF93CF93DF93EF93FF93C4B1D5B1FF
S113068078948FB7F894992720912F01322F3695BB
S1130690317021708FBF222349F533988091350141
S11306A0813019F0823099F40AC0332351F0D09389
S11306B04701C093460189E00E940B0208C033231E
S11306C019F40E94CF0203C081E0809335010FB773
S11306D0F8941127D0935C01C0935B0180E00E94E1
S11306E00B0281E00E940B020FBF26C08FB7F89463
S11306F099278FBF2FB7F894332786B1582F577097
S1130700482F4072987D942B952B8074977B982B5F
S113071090619F77892F992786B9887D842B852BB3
S113072087738061992786B9887D842B852B877B85
S11307308069992786B92FBFFF91EF91DF91CF91FF
S1130740BF91AF919F918F917F916F915F914F91E5
S11307503F912F911F910F910F900FBE0F901F90FB
S113076018951F920F920FB60F9211248F9383B78F
S113077083BF00B600FCFDCF8F910F900FBE0F908A
S11307801F9018951F920F920FB60F9211242F935A
S11307903F934F935F936F937F938F939F93AF9305
S11307A0BF93EF93FF93809118018A3F21F583B79C
S11307B083BF00B600FCFDCF81B799270196AA2715
S11307C0BB27209156013091570140915801509117
S11307D05901280F391F4A1F5B1F2093560130937C
S11307E05701409358015093590178940E94320262
S11307F01092180103C08F5F80931801FF91EF914D
S1130800BF91AF919F918F917F916F915F914F9124
S11308103F912F910F900FBE0F901F901895EF925C
S1130820FF920F931F93E0914301E1FF6CC020916D
S11308303B0130913C0140913D0150913E01E090DB
S11308403F01F09040010091410110914201621B6F
S1130850730B840B950B6E157F058007910708F4C5
S113086052C0E0FF04C0ED7FE09343010CC02E0DA5
S11308703F1D401F511F20933B0130933C01409387
S11308803D0150933E011FB7F894809113018823D2
S1130890D9F0809165008061809365008091650046
S11308A0877F809365001092120105C08091120128
S11308B08F5F80931201809112018F3FB9F725E079
S11308C040E061E081E01AC0809165008860809317
S11308D06500809165008F7E8093650010921201FF
S11308E005C0809112018F5F8093120180911201E3
S11308F08F3FB9F725E040E061E080E00E94870186
S1130900812F99278FBF8BE00E940B021F910F91BB
S1130910FF90EF900895DF92EF92FF920F931F9351
S1130920D82E062FE62EE694E694E6946E2D0E94C9
S1130930F702FF2482E00E940B0283B1806683B930
S11309401C9A1ABA00000000000000000000000019
S11309500000000019B383B18F7983B98FEF8ABB8C
S1130960F39482E0F81631F76E2D8D2D0E94F70274
S1130970077081E090E002C0880F991F0A95E2F7A2
S1130980182B612F81E00E94D6021F910F91FF90D6
S1130990EF90DF9008955F926F927F928F929F9273
S11309A0AF92BF92CF92DF92EF92FF920F931F9379
S11309B0CF93DF93CDB7DEB721970FB6F894DEBFA0
S11309C00FBECDBF182F853049F1863088F48230B0
S11309D009F496C0833030F4882329F1813009F07A
S11309E0B9C373C08330E1F0843009F0B3C3D3C01A
S11309F0883009F4B9C2893038F4863009F48FC1DB
S1130A00873009F0A7C3A9C18A3009F417C38A3013
S1130A1008F4C2C28B3009F09DC343C3FF2473C1E1
S1130A20EE24FF2492C01982EFB7F894FF27209197
S1130A305B0130915C01C9016AE070E00E94270B00
S1130A4089838981805D809309018981281B31090B
S1130A50C9016AE070E00E94270B9B01CB016AE0A8
S1130A6070E00E94270B89838981805D809308014F
S1130A708981281B3109C9016AE070E00E94270BB3
S1130A809B01CB016AE070E00E94270B8983898176
S1130A90805D809307018981281B3109C9016AE0BF
S1130AA070E00E94270BCB0170935C0160935B01A3
S1130AB06AE070E00E94270B89838981805D8093BE
S1130AC0060110920A01EFBF45C30FB7F894809155
S1130AD01301882349F044E16DE286E091E00E942D
S1130AE00E031092130108C04EE16DE286E091E01E
S1130AF00E940E0310931301802F99278FBF2AC3DE
S1130B001ABA1D9A1C981E9A06C01E98000000006E
S1130B101E9A00000000CF99F8CF1E981D9A8FEFFF
S1130B208ABB18C360911A01610F809148010E9429
S1130B308B0480911A01180F809148019091320121
S1130B40890F612F81500E948B041E2D0894E11C93
S1130B50F11C80914401181728F3EE24FF2412C0DD
S1130B608091480160911A01810F0E948B04609169
S1130B701A0180914401680F615080914801810FEE
S1130B800E948B041E2D0894E11CF11C80913201FB
S1130B90181730F3DFC2B0901B0180914901B81AD5
S1130BA080915401C82EDD24C601880F991F33E0BB
S1130BB0E32EF12CE81AF90A882499246624772470
S1130BC060C060911B016C0D80914901880D0E94E9
S1130BD08B0460911B016C1980914901880D0E945E
S1130BE08B0460911B016C0D8091490188190E944E
S1130BF08B0460911B016C198091490188190E9432
S1130C008B0480911B01682F680D8C0D8B190E9439
S1130C108B0480911B01682F68198C0D8B190E941D
S1130C208B0480911B01682F680D8C198B190E940D
S1130C308B0480911B01682F68198C198B190E94F1
S1130C408B04F7FE07C026E030E0E20EF31EE60C4C
S1130C50F71C10C0C4018C199D09880F991F880FB7
S1130C60991F4AE050E0E40EF51EE80EF91E0894C0
S1130C70C108D1080894811C911C84E090E0680E9E
S1130C80791EC814D9040CF09CCF64C200E010E0B3
S1130C9060911C016695669566958F2D800F9091E5
S1130CA04A01890F0E94F702E0913301F091340167
S1130CB0E08185E0E802F0011124E00FF11FEE501D
S1130CC0F040C895E02D6E2F81E00E94D6020F5FA0
S1130CD01F4F05301105E1F695E0F90E80914A01A8
S1130CE060911C018F0D0E94F70260E081E00E9478
S1130CF0D602F3948091330190913401019690933C
S1130D00340180933301E0913301F0913401808107
S1130D10882309F0BBCF81E0809310011BC210929D
S1130D2045011092150180E0609145010E94F7028F
S1130D306091140181E00E94D602809115018F5FB9
S1130D408093150187FFF0CF809145018F5F8093D9
S1130D504501883008F0FEC1E4CF6090190170901D
S1130D601D01761408F5662D772767197109882700
S1130D7077FD8095982F0E94870A7B018C016091F2
S1130D803101772720914B01621B7109882777FD78
S1130D908095982F0E94870A9B01AC01C801B70176
S1130DA00E94240A5B016C01671418F092E0592E2A
S1130DB03BC0672D772766197109882777FD8095D1
S1130DC0982F0E94870A4B015C0110913101612F19
S1130DD0772767FD7095872F972F0E94870A6B01ED
S1130DE07C0117FF08C020E030E040E853E40E9493
S1130DF0E2096B017C0160914B017727882777FD1D
S1130E008095982F0E94870A9B01AC01C701B60107
S1130E100E94E1099B01AC01C501B4010E94240AAE
S1130E205B016C0181E0582E671459F455240F2E90
S1130E30F0E0AF2EF0E0BF2EF0E0CF2EF0E0DF2E9A
S1130E40F02D90914B0180913101981719F066248F
S1130E5077247BC000E010E005C0640F80914B0153
S1130E600E948B04402F60911D010F5F1F4F242FA0
S1130E703327809119019927861B9109281739076F
S1130E8064F368C121E0521641F560911D01772792
S1130E90882777FD8095982F0E94870A7B018C0113
S1130EA0692D772767FD7095872F972F0E94870AF2
S1130EB067FE06C020E030E040E853E40E94E20907
S1130EC09B01AC01C601B5010E94DF0A9B01AC0184
S1130ED0C801B7010E94E1092AC032E0531651F556
S1130EE060911D017727882777FD8095982F0E94B0
S1130EF0870A7B018C01692D772767FD7095872F01
S1130F00972F0E94870A67FE06C020E030E040E881
S1130F1053E40E94E2099B01AC01C601B5010E94A1
S1130F20DF0A9B01AC01C801B7010E94E2090E94DB
S1130F306A0A04C0552031F460911D01882D890D81
S1130F400E948B040894611C711C962C80904B01A8
S1130F50262D332780913101992788199109821709
S1130F6093070CF08FCFF6C02FB7F89433278091F6
S1130F704C018093110183E0809317012FBF80916E
S1130F801101882309F0E6C081E0809335011092B5
S1130F9055010E94CF02DEC081E08093350180912B
S1130FA05501882309F0D6C08FB7F894F82E8091A4
S1130FB01701833009F040C0809111018823E1F5C5
S1130FC080913A01882309F0BFC0B7C09095A92346
S1130FD0A0836093160125C06F5F7F4F6130710558
S1130FE011F460E070E0862F869586958695E82F4B
S1130FF0FF27E65CFE4FA081462F55279A012770F4
S1131000307081E090E002C0880F991F2A95E2F7C2
S1131010982F8A2F8923D1F660177107E9F64FEFCD
S113102050E040934C018FEF8093110181E0809355
S1131030170188E00E940B02FFBE8CC080912E0134
S1131040882361F520914D0130914E0140914F016B
S113105050915001EFB7F894FF27609136017091D9
S113106037018091380190913901E0902A01F09084
S11310702B0100912C0110912D016E0D7F1D801FFD
S1131080911FEFBF20934D0130934E0140934F01C8
S11310905093500110922E010E94B5020E946001EB
S11310A039C00E9460017B018C018FB7F8949927A5
S11310B010925A018FBF8091430181FF4BC08091F0
S11310C03B0190913C01A0913D01B0913E01A801EA
S11310D09701281B390B4A0B5B0BDA01C9012091DC
S11310E03F01309140014091410150914201281B40
S11310F0390B4A0B5B0B2F3F8FEF38078FEF4807F5
S11311008FE7580739F112161306140615062CF04A
S1131110C801B7010E940F041DC020934D013093F4
S11311204E0140934F015093500181E080932E0172
S1131130C801B7010E94B5020DC081E0809311017E
S113114010921701379878CF80911601082F112734
S1131150B80142CF21960FB6F894DEBF0FBECDBFC3
S1131160DF91CF911F910F91FF90EF90DF90CF907F
S1131170BF90AF909F908F907F906F905F900895F5
S1131180809151018F3FB1F0282F3327F901E25E9E
S1131190FE4F8081809351018F3F11F480935D0154
S11311A08FEF80832F3F31F0822F0E94CB0481E0A8
S11311B090E0089580E090E00895CDEFD0E1DEBFA7
S11311C0CDBF1FB7F8944CE050E06FEF70E08EE1B4
S11311D091E00E94DA098FEF8093510180935D01C1
S11311E081E08EBD83E083BF4CB55DB58AE78A8319
S11311F009C02CB53DB52417350718F48A818150F0
S11312008A83A9018A818823A1F782B7898392B747
S113121089819817E1F32CB53DB582B7898392B7DC
S113122089819817E1F38CB59DB5821B930B409689
S113123055E0969587955A95E1F7909353018093DD
S1131240520113BE83B78EBD8EB580BF12BE1DBCC6
S11312501CBC8FEF86BF86B780937C0080B799272C
S113126087709070892BD1F715BA8FEF84BB16B8AD
S113127080E285BF0E94C0088823E1F780B78870A8
S113128080BF8BE083BF86EE81BF87B7826087BF54
S11312900E94320210923A010E94C0088823E1F7AA
S11312A0812F99278FBF78948091640088618093FF
S11312B064001092650082B18C6F82B98FEF8ABB93
S11312C083B1837083B91BBA1F9A6FE380E00E94D5
S11312D0D60281E08093140186E00E940B020E94F2
S11312E0600160933B0170933C0180933D019093B6
S11312F03E0184E690E0A0E0B0E080933F0190934B
S11313004001A0934101B0934201809143018E7F3B
S11313108260809343018BE00E940B0244E164E10C
S113132080E091E00E940E038823C1F74EE164E15E
S113133083E091E00E940E038823C1F78FB7F894ED
S1131340482F55277FEFECE8F0E0C895602D1AC0D0
S113135087B7992783709070892B61F080B799279C
S113136087709070892BD1F781B792B7891B8C3025
S113137008F082B785B7837E8062862B85BF789418
S11313808895F894809151018F3F11F3282F3327CA
S1131390F901E25EFE4F9081909351019F3F11F459
S11313A090935D0170832F3F99F24FBF822F0E946B
S11313B0CB04C4CFDC0101C06D9341505040E0F731
S11313C008955058192ECDD001D0B0C0BA17620775
S11313D0730784079507B1F188F40EF410940B2E6B
S11313E0BA2FA02D062E622F202D072E732F302DFD
S11313F0082E842F402D092E952F502DFF2755237D
S1131400B9F0591B49F0573E98F046953795279502
S1131410A795F0405395C9F776F0BA0F621F731F72
S1131420841F30F4879577956795B795F040939529
S113143017FA0F2E0895BF1BBB27BA0B620B730B51
S1131440840BF6CFDEF6B9C08CD001D06FC0552323
S113145059F0992369F09F575F57951B33F442F471
S1131460903811F4915805C079C091589F3F09F400
S1131470A4C0BB27112462177307840730F4660FD6
S1131480771F881FBB1F915098F311D00F920FD074
S11314900F920DD0A0E82617370748071B0609F05E
S11314A0A048BA2F602D7F918F9100240895A0E861
S11314B00024621773078407B10528F0621B730BBD
S11314C0840BB1090A2A660F771F881FBB1FA695D4
S11314D081F7089597FB51D09F3738F0FEE9F91B47
S11314E0982F872F762F6B2F05C064C0969587950C
S11314F077956795F150D0F73EF490958095709567
S113150061957F4F8F4F9F4F0895E89403C097FBD9
S11315100EF4F3DFB62F672F782F892F9EE900246E
S113152005C09A95BB0F661F771F881F1124992346
S1131530A1F08823B2F79F3F59F0BB0F48F421F480
S1131540002011F460FF04C06F5F7F4F8F4F9F4FE7
S1131550881F9795879597F908952CC09FEF80EC85
S11315600895052E092607FA440F551F5F3F79F0A9
S1131570AA27A51708F051E04795880F991F9F3FA8
S113158031F0BB27B91708F091E0879508959F9132
S11315909F911124E3CF97FB880F991F9F3F31F050
S11315A0BB27B91708F091E0879508959F919F9103
S11315B01124D4CF66277727882799270895D1DF68
S11315C001D0B4CF992339F0552329F09F575F57A1
S11315D0950F13F49AF1F1CF91589F3FE1F3629F75
S11315E0A12D0F92BB27639FA00DB11DEE27729F03
S11315F0A00DB11DEE1FAF93AA27649FB00DE11D8E
S1131600739FB00DE11DAA1F6627829FB00DE11DD7
S1131610A61F5527749FE00DA11D551F839FE00D44
S1131620A11D561F849FA00D511D852F7A2F6E2F4B
S11316301F900F9088231AF4939539F48FCF000CE0
S1131640111CBB1F661F771F881F01280895AA1B42
S1131650BB1B51E107C0AA1FBB1FA617B70710F099
S1131660A61BB70B881F991F5A95A9F780959095CB
S10B1670BC01CD010895FFCF78
S1131678583A00593A0032313331323331000000DC
S105168801015A
S9030000FC
