S01A00006275696C642F626967415652362F6D61696E2E73726563A6
S11300000C9439010C9458010C9458010C94580127
S11300100C9458010C9458010C9458010C945801F8
S11300200C9458010C9458010C9458010C945801E8
S11300300C9458010C9458010C9458010C94F2023D
S11300400C94E1020C9458010C9458010C9458013E
S11300500C9458010C9458010C9458010C945801B8
S11300600C9458010C9458010C9458010C945801A8
S11300700C9458010C9458010C9458010C94580198
S11300800C9458010C9458010C94580100081C1845
S11300901410000000000000005F000000070007CB
S11300A000147F147F14242A7F2A12231308646205
S11300B036495522500005030000001C224100006F
S11300C041221C00082A1C2A0808083E080800507F
S11300D030000008080808080060600000201008CC
S11300E004023E5149453E00427F4000426151496D
S11300F0462141454B311814127F10274545453997
S11301003C4A4949300171090503364949493606D3
S11301104949291E00363600000056360000000802
S1130120142241141414141441221408000201511D
S11301300906324979413E7E1111117E7F494949B0
S1130140363E414141227F4141221C7F4949494178
S11301507F090901013E414151327F0808087F00AF
S1130160417F41002040413F017F081422417F40EC
S11301704040407F0204027F7F0408107F3E4141DB
S1130180413E7F090909063E4151215E7F09192933
S113019046464949493101017F01013F4040403F02
S11301A01F2040201F7F2018207F6314081463033E
S11301B004780403615149454300007F414102042E
S11301C008102041417F0000040201020440404025
S11301D04040000102040020545454787F484444B1
S11301E0383844444420384444487F3854545418DC
S11301F0087E090102081454543C7F080404780062
S1130200447D40002040443D00007F1028440041CC
S11302107F40007C041804787C0804047838444443
S113022044387C14141408081414187C7C0804043E
S1130230084854545420043F4440203C4040207C0F
S11302401C2040201C3C4030403C44281028440CD6
S11302505050503C4464544C440008364100000063
S11302607F0000004136080008082A1C08081C2AE0
S1130270080811241FBECFEFD0E1DEBFCDBF11E0CF
S1130280A0E0B1E0E6EEF8E100E00BBF02C00790A9
S11302900D92A238B107D9F711E0A2E8B1E001C08C
S11302A01D92AC3DB107E1F70E94F8090C94720C61
S11302B00C9400008FB7F894992708958FBF089580
S11302C0282F9FB7F894E82FFF27E956FE4F808127
S11302D08F3F81F4E091DB01E21771F40BC02093AE
S11302E0D00104C0FF27E956FE4F20832093DB0191
S11302F020E007C025E005C08091D0018F3F91F731
S1130300EECF892F99278FBF822F99270895609365
S1130310C801409394019093AD018093AC0183E0B4
S11303200E94600108959FB7F894662311F48BBB73
S11303300FC0613011F488BB0BC0623011F485BB6F
S113034007C0633011F482BB03C0643009F483B97D
S1130350892F99278FBF08957FB7F89462B72091AA
S1130360D5013091D6014091D7015091D80106B6FC
S113037001FE0FC081B792B7280F311D411D511DD9
S11303802F5F3F4F4F4F5F4F290F311D411D511DAF
S113039004C0260F311D411D511D872F99278FBF82
S11303A0CA01B90108959FB7F894292F3327422F22
S11303B090918001981741F480918501833021F454
S11303C02FBF81E090E008954FBF80E090E0089552
S11303D0CF93DF93982F8FB7F894282F3327422F8A
S11303E080918501882321F581E080938501909394
S11303F0CB012FBF8FB7F894C82FDD279C2F809196
S11304008001823099F480918501813021F489E062
S11304100E94600109C0823049F48091CB0180932D
S1130420800183E080938501CFBF07C09FBF05C0D3
S11304308091CB01891721F42FBF80E090E021C087
S1130440E92FFF27E955FE4F80818F3F89F4E09122
S11304507F01E91789F40CC090937E0104C0FF2743
S1130460E955FE4F908390937F0180E090E002C0B5
S113047085E090E04FBF05C080917E018F3F79F702
S1130480EBCFDF91CF910895DF92EF92FF920F931C
S11304901F938FB7F894282F3327D22E91B782B7A2
S11304A046B7981711F041FF02C02FBF6AC0809170
S11304B0DA018823E1F10E94AC01E090AE01F090F2
S11304C0AF010091B0011091B1012091A1013091CF
S11304D0A2014091A3015091A4016E197F09800BE0
S11304E0910B621773078407950720F01092DA01C5
S11304F071E01EC02E0D3F1D401F511F8091D5017C
S11305009091D601A091D701B091D801281B390B45
S11305104A0B5B0B273E31054105510540F4822F00
S1130520223010F070E005C070E082E002C070E09C
S113053086EE682F615000B601FCFDCF82B76817C4
S113054009F46F5F2091D5013091D6014091D70114
S11305505091D801DA01C9010196A11DB11D860F80
S1130560911DA11DB11D82179307A407B50710F4AF
S1130570622F609561BFDFBE772319F087E00E9488
S113058060011F910F91FF90EF90DF900895AFB736
S1130590F894BB27E1E0E093DA016093AE01709335
S11305A0AF018093B0019093B1012093A1013093E6
S11305B0A2014093A3015093A401AFBF0E9444023F
S11305C008951F920F920FB60F9211248F9383B741
S11305D083BF00B600FCFDCF8F910F900FBE0F902C
S11305E01F9018951F920F920FB60F9211242F93FC
S11305F03F934F935F936F937F938F939F93AF93A7
S1130600BF93EF93FF93809184018A3F21F583B7D1
S113061083BF00B600FCFDCF81B799270196AA27B6
S1130620BB272091D5013091D6014091D70150913B
S1130630D801280F391F4A1F5B1F2093D50130931F
S1130640D6014093D7015093D80178940E94440274
S11306501092840103C08F5F80938401FF91EF9116
S1130660BF91AF919F918F917F916F915F914F91C6
S11306703F912F910F900FBE0F901F901895EF92FE
S11306800F931F93AE2D99E0899FF0011124EE542E
S1130690FE4F4083518362837383048315832683CF
S11306A03783A17080858E7F8A2B8260808788E063
S11306B00E9460011F910F91EF900895EF92FF92B5
S11306C00F931F93482F8FB7F894282F33278091C7
S11306D08501833021F02FBF8FEF90E004C080911B
S11306E080012FBF9927F82E841719F081E090E03C
S11306F01EC06093D401662351F48091C3018D7FA1
S11307008093C30162E080E00E9493010CC00E94C8
S1130710AC01AB01BC01EE2404EF11E020E030E0B9
S113072081E00E943F03F092AA0180E090E01F91D3
S11307300F91FF90EF9008950F931F93182F062F9A
S113074080E00E9460011E9A112331F483B18F7CF2
S113075083B98FEF8ABB02C01D981C9A0BBB0000A3
S113076000000000000000000000000000001E98CF
S11307701F910F9108951F93162F803418F41B9A1C
S11307801A9802C01A9A1B988F738064682F80E0AD
S11307900E949C031F73186B612F80E00E949C03CE
S11307A01F910895DF92EF92FF920F931F93D82E1B
S11307B0062FE62EE694E694E6946E2D0E94BB0383
S11307C0FF2480E00E94600183B1806683B91C9A93
S11307D01ABA000000000000000000000000000041
S11307E0000019B383B18F7983B98FEF8ABBF39477
S11307F082E0F81631F76E2D8D2D0E94BB03077031
S113080081E090E002C0880F991F0A95E2F7182B47
S1130810612F81E00E949C031F910F91FF90EF9044
S1130820DF9008951F93982F8FB7F894182F809115
S113083085018330B1F580918001891791F580910C
S11308407E0120E030E08F3F11F421E030E0232BE3
S1130850F9F48F3F19F42FEF30E00EC0282F33271F
S1130860F901E955FE4F808180937E018F3F11F499
S113087080937F018FEF80832093CB018FEF809350
S1130880800181E08093850189E00E94600105C0B8
S113089082E080938001109285011FBF80E090E088
S11308A003C01FBF81E090E01F910895AF92BF92F3
S11308B0CF92DF92EF92FF920F931F93CF93DF9328
S11308C0CDB7DEB721970FB6F894DEBF0FBECDBF0C
S11308D05B016C016091BA0161FF1FC02091B201FC
S11308E03091B3014091B4015091B501E090B6014B
S11308F0F090B7010091B8011091B901D601C5017A
S1130900821B930BA40BB50B8E159F05A007B10793
S113091020F0E2EBF1E090E021C0EBEBF1E060913C
S1130920C30161FF80C02091BB013091BC014091A3
S1130930BD015091BE01E090BF01F090C001009153
S1130940C1011091C201A21AB30AC40AD50AAE1495
S1130950BF04C006D10608F466C091E060FF04C07D
S113096080858D7F808708C02E0D3F1D401F511F3D
S11309702083318342835383992321F0913009F0FA
S113098052C03DC0B59B1CC080E00E94D3018823A7
S113099061F060E080E00E945E0380E00E94120447
S11309A041E060E080E091E009C080E00E94E8015D
S11309B0882331F441E060E084E191E00E94870102
S11309C0B69B31C081E00E94D301882361F060E0CE
S11309D081E00E945E0381E00E94120441E060E035
S11309E086E291E009C081E00E94E8018823D9F4FD
S11309F041E060E08AE391E00E94870114C08091A5
S1130A00D901882339F062E080E00E9493011092BA
S1130A10D90109C062E08091D40199830E949301B5
S1130A2099819093D90188E00E94600121960FB6C4
S1130A30F894DEBF0FBECDBFDF91CF911F910F9110
S1130A40FF90EF90DF90CF90BF90AF9008952F92DA
S1130A503F924F925F926F927F928F929F92AF924A
S1130A60BF92CF92DF92EF92FF920F931F93CF9397
S1130A70DF93843009F423C1853058F48130F1F0D8
S1130A808130F8F0823009F463C0833009F080C407
S1130A9013C0873009F4A4C3883038F4853009F4CE
S1130AA02CC1863009F074C4FCC2883009F4CBC36D
S1130AB0893009F06DC447C4FF24F8C0C0E0D0E019
S1130AC025C01ABA1D9A1C981E9A06C01E980000CA
S1130AD000001E9A00000000CF99F8CF1E981D9ABE
S1130AE08FEF8ABB55C460919201610F8091C6015A
S1130AF00E94D20380919201180F8091C6019091B7
S1130B00C401890F612F81500E94D2031C2F2196AA
S1130B108091AB01181738F3C0E0D0E012C0809187
S1130B20C60160919201810F0E94D20360919201EB
S1130B308091AB01680F61508091C601810F0E94C2
S1130B40D2031C2F21968091C401181740F320C4AE
S1130B50D09093018091C701D81A8091D301E82ED7
S1130B60FF24C701880F991FC3E0D0E0C81BD90B2D
S1130B70AA24BB24882499245AC0609193016E0D41
S1130B808091C7018A0D0E94D203609193016E196E
S1130B908091C7018A0D0E94D203609193016E0D6A
S1130BA08091C7018A190E94D203609193016E1942
S1130BB08091C7018A190E94D20380919301682F02
S1130BC06A0D8E0D8D190E94D20380919301682FB6
S1130BD06A198E0D8D190E94D20380919301682F9A
S1130BE06A0D8E198D190E94D20380919301682F8A
S1130BF06A198E198D190E94D203D7FF04C0269654
S1130C00C80DD91D0DC0C5018E199F09880F991FE4
S1130C10880F991F2A96C80FD91F0894E108F10874
S1130C200894A11CB11C24E030E0820E931EEA1447
S1130C30FB040CF0A2CFACC300E010E08F2D800FBA
S1130C409091C80160919401890F0E94BB03E091C7
S1130C50AC01F091AD01E08185E0E802F0011124DE
S1130C60E00FF11FEE50F040C895E02D6E2F81E0AB
S1130C700E949C030F5F1F4F05301105F9F635E004
S1130C80F30E8091C801609194018F0D0E94BB0303
S1130C9060E081E00E949C03F3948091AC01909108
S1130CA0AD0101969093AD018093AC01E091AC014C
S1130CB0F091AD018081882309F0BECF69C3109201
S1130CC0C5011092830180E06091C5010E94BB03BD
S1130CD06091820181E00E949C03809183018F5F77
S1130CE08093830187FFF0CF8091C5018F5F80934C
S1130CF0C501883008F04CC3E4CF7090A90160901E
S1130D00C901872D86198093890180909101909063
S1130D109501981458F00F2EF0E02F2EF0E03F2E9E
S1130D20F0E04F2EF0E05F2EF02D25C0682D7727E0
S1130D3069197109882777FD8095982F0E94A40B63
S1130D407B018C01672D772766197109882777FD48
S1130D508095982F0E94A40B9B01AC01C801B70198
S1130D600E94410B1B012C0182E080938A01882D93
S1130D708919809388018914E8F5692D7727681902
S1130D807109882777FD8095982F0E94A40B5B0139
S1130D906C01672D772767FD7095872F972F0E9429
S1130DA0A40B7B018C0177FE08C020E030E040E812
S1130DB053E40E94FF0A7B018C01662D7727882764
S1130DC077FD8095982F0E94A40B9B01AC01C8016C
S1130DD0B7010E94FE0A9B01AC01C601B5010E9445
S1130DE0410B1B012C0181E080938A01892D881914
S1130DF0809388019091880180918901891748F432
S1130E0080918801609189010E94660C809387011A
S1130E1002C010928701891461F410928A010F2E86
S1130E20F0E02F2EF0E03F2EF0E04F2EF0E05F2EAA
S1130E30F02D6714E9F410928B010CC080918B01A2
S1130E40680F8091C9010E94D20380918B018F5F4A
S1130E5080938B0120918B016091950133278091C0
S1130E6091019927861B9109281739073CF390C2F1
S1130E7010928B0107C180918A01813009F098C0DA
S1130E80109286018DC0609195017727882777FDA0
S1130E908095982F0E94A40B5B016C0110918B012B
S1130EA090908601612F772767FD7095872F972F84
S1130EB00E94A40B17FF06C020E030E040E853E492
S1130EC00E94FF0A9B01AC01C201B1010E941E0CE9
S1130ED09B01AC01C601B5010E94FE0A7B018C0195
S1130EE0692D7727882777FD8095982F0E94A40B7A
S1130EF09B01AC01C801B7010E94FF0A7B018C0170
S1130F00609191017727882777FD8095982F0E941B
S1130F10A40B9B01AC01C801B7010E94B10B88234B
S1130F20D4F110918B019090860180908B01612FF8
S1130F30772767FD7095872F972F0E94A40B17FFC3
S1130F4006C020E030E040E853E40E94FF0A9B0121
S1130F50AC01C201B1010E941E0C9B01AC01C6018F
S1130F60B5010E94FE0A7B018C01692D7727882731
S1130F7077FD8095982F0E94A40B9B01AC01C801BA
S1130F80B7010E94FF0A0E94870B2091C901882D96
S1130F90820F0E94D203809186018F5F8093860125
S1130FA09091860180918701891708F06CCF65C004
S1130FB080918A01823009F055C0109286014AC09E
S1130FC010918B01B0908601A0908B0160919501E6
S1130FD07727882777FD8095982F0E94A40B6B01B3
S1130FE07C01612F772767FD7095872F972F0E94CB
S1130FF0A40B17FF06C020E030E040E853E40E9451
S1131000FF0A9B01AC01C201B1010E941E0C9B01AD
S1131010AC01C701B6010E94FF0A7B018C016B2D54
S11310207727882777FD8095982F0E94A40B9B0132
S1131030AC01C801B7010E94FF0A0E94870B2091EE
S1131040C9018A2D820F0E94D203809186018F5F8D
S1131050809386019091860180918701891708F019
S1131060AFCF0BC080918A01882339F480918B0122
S113107060919501840F0E94D20380918B018F5F50
S113108080938B0120918B014091C901332780917A
S1131090A9019927841B9109821793070CF0EBCEC1
S11310A077C110928F0194C080919601992787701F
S11310B09070892B71F52091A601822F9927877052
S11310C09070892B31F526952695269520938D01D0
S11310D010928E0118C090918E0180918F016091C1
S11310E09601669566956695690F9091CA01890F78
S11310F00E94BB036FEF81E00E949C0380918E01EC
S11311008F5F80938E0190918E0180918D0198174D
S113111010F32091A6012830E0F560919601862F06
S1131120992787709070892BA1F580918D01882370
S113113001F5277020938D0110928E0141E050E05B
S113114012C080918C0120918E01FA0102C0EE0F31
S1131150FF1F2A95E2F78E2B80938C0180918E01DC
S11311608F5F80938E0190918E0180918D019817ED
S113117040F380918F016695669566959091CA01BA
S1131180890F0E94BB0360918C0181E00E949C0343
S11311901AC010928E0111C060918E0180918F014E
S11311A090919601690F9091CA01890F0E94D20310
S11311B080918E018F5F80938E0190918E0180913A
S11311C0A601981748F380918F018F5F80938F0158
S11311D090918F0180919001981708F465CFD8C041
S11311E08091A501882361F52091CC013091CD0136
S11311F04091CE015091CF01EFB7F894FF27609151
S1131200AE017091AF018091B0019091B101E09075
S1131210A101F090A2010091A3011091A4016E0D0F
S11312207F1D801F911FEFBF2093CC013093CD0110
S11312304093CE015093CF011092A5010E94C702A2
S11312400E94AC016DC00E94AC015B016C018FB7C0
S1131250F89499271092DA018FBF8091BA0181FF27
S113126025C08091B2019091B301A091B401B091D5
S1131270B501A6019501281B390B4A0B5B0BE090C5
S1131280B601F090B7010091B8011091B901E21ACA
S1131290F30A040B150B3FEFE3163FEFF3063FEFA2
S11312A003073FE7130711F061E009C08FEFE82E51
S11312B08FEFF82E8FEF082F8FE7182F60E08091C3
S11312C0C30181FF21C08091BB019091BC01A09119
S11312D0BD01B091BE01A6019501281B390B4A0B33
S11312E05B0BDA01C9012091BF013091C00140912B
S11312F0C1015091C201281B390B4A0B5B0B2E15FF
S11313003F05400751072CF0662309F441C0A801AA
S1131310970112161306140615062CF0C601B50122
S11313200E94560435C02093CC013093CD014093E4
S1131330CE015093CF0181E08093A501C601B50190
S11313400E94C70225C08FB7F89499272091CB013A
S11313502093800123E0209385018FBF8091800139
S1131360882319F08130A1F409C041E060E08CE4E5
S113137091E00E9487016FE080E008C041E060E0F6
S11313808FE591E00E94870160EF81E00E945E0397
S1131390DF91CF911F910F91FF90EF90DF90CF904D
S11313A0BF90AF909F908F907F906F905F904F9081
S11313B03F902F9008958091D0018F3FB1F0282F56
S11313C03327F901E956FE4F80818093D0018F3F86
S11313D011F48093DB018FEF80832F3F31F0822F54
S11313E00E94270581E090E0089580E090E0089550
S11313F0CDEFD0E1DEBFCDBF1FB7F8944AE050E097
S11314006FEF70E087E991E00E94F70A8FEF809315
S1131410D0018093DB0181E08EBD83E083BF4CB5B6
S11314205DB58AE78A8309C02CB53DB52417350715
S113143018F48A8181508A83A9018A818823A1F7BB
S113144082B7898392B789819817E1F32CB53DB5AA
S113145082B7898392B789819817E1F38CB59DB5DA
S1131460821B930B409645E0969587954A95E1F744
S11314709093D2018093D10113BE83B78EBD8EB5F4
S113148080BF12BE1DBC1CBC8FEF86BF86B7809385
S11314907C0080B7992787709070892BD1F7D09AF8
S11314A0D19AD29AD89AD99ADA9A15BA8FEF84BB7C
S11314B080E285BF0E94DB098823E1F742E050E027
S11314C06FEF70E087EA91E00E94F70A80B78870B6
S11314D080BF8BE083BF86EE81BF87B7826087BF02
S11314E00E9444020E94DB098823E1F7812F992797
S11314F08FBF789482B18C6F82B98AB38FEF8ABB25
S113150083B1837083B91BBA1F9A6FE380E00E9492
S11315109C03109282011092C5011092830180E015
S11315206091C5010E94BB036091820181E00E9429
S11315309C03809183018F5F8093830187FFF0CFA9
S11315408091C5018F5F8093C501883030F340E0FE
S113155060E082E791E00E948701BD98BE980E94F6
S1131560AC01AB01BC01EE2404EF11E020E030E05B
S113157080E00E943F038FB7F894482F55277FEFF0
S1131580ECE8F0E0C895602D1AC087B799278370FE
S11315909070892B61F080B7992787709070892BA0
S11315A0D1F781B792B7891B8C3008F082B785B721
S11315B0837E8062862B85BF78948895F894809189
S11315C0D0018F3F11F3282F3327F901E956FE4F3D
S11315D090819093D0019F3F11F49093DB0170832D
S11315E02F3F99F24FBF822F0E942705C4CFDC0101
S11315F001C06D9341505040E0F708955058192EA2
S1131600EFD001D0D2C0BA176207730784079507D9
S1131610B1F188F40EF410940B2EBA2FA02D062EDF
S1131620622F202D072E732F302D082E842F402D4E
S1131630092E952F502DFF275523B9F0591B49F03A
S1131640573E98F0469537952795A795F0405395C2
S1131650C9F776F0BA0F621F731F841F30F48795A1
S113166077956795B795F040939517FA0F2E0895DF
S1131670BF1BBB27BA0B620B730B840BF6CFDEF6D2
S1131680DBC0AED001D091C0552359F0992369F045
S11316909F575F57951B33F442F4903811F49158D7
S11316A005C09BC091589F3F09F4C6C0BB271124B5
S11316B062177307840730F4660F771F881FBB1FF8
S11316C0915098F311D00F920FD00F920DD0A0E843
S11316D02617370748071B0609F0A048BA2F602DC4
S11316E07F918F9100240895A0E800246217730766
S11316F08407B10528F0621B730B840BB1090A2A15
S1131700660F771F881FBB1FA69581F7089597FB67
S113171073D09F3738F0FEE9F91B982F872F762F67
S11317206B2F05C086C09695879577956795F15080
S1131730D0F73EF490958095709561957F4F8F4FCB
S11317409F4F0895E89403C097FB0EF4F3DFB62F80
S1131750672F782F892F9EE9002427C00ED05EF0D2
S113176004C00BD026F001C008D019F020F48FEF8C
S1131770089580E0089581E0089597FB092E0526D9
S113178000F8689430D0E89407FC07C06217730728
S11317908407950721F008F4009407949894089519
S11317A09A95BB0F661F771F881F11249923A1F0F8
S11317B08823B2F79F3F59F0BB0F48F421F400206F
S11317C011F460FF04C06F5F7F4F8F4F9F4F881FDE
S11317D09795879597F908952CC09FEF80EC08950D
S11317E0052E092607FA440F551F5F3F79F0AA27F3
S11317F0A51708F051E04795880F991F9F3F31F0D6
S1131800BB27B91708F091E0879508959F919F91A0
S11318101124E3CF97FB880F991F9F3F31F0BB271B
S1131820B91708F091E0879508959F919F9111242D
S1131830D4CF66277727882799270895D1DF01D049
S1131840B4CF992339F0552329F09F575F57950F4B
S113185013F49AF1F1CF91589F3FE1F3629FA12DC8
S11318600F92BB27639FA00DB11DEE27729FA00DA1
S1131870B11DEE1FAF93AA27649FB00DE11D739FA6
S1131880B00DE11DAA1F6627829FB00DE11DA61FA2
S11318905527749FE00DA11D551F839FE00DA11DC9
S11318A0561F849FA00D511D852F7A2F6E2F1F90D8
S11318B00F9088231AF4939539F48FCF000C111CE0
S11318C0BB1F661F771F881F01280895991B79E0A5
S11318D004C0991F961708F0961B881F7A95C9F7BC
S10918E080950895FFCF7E
S11318E65265736F75726365302072656C656173DA
S11318F6656420005265736F757263653020627586
S11319067379202020005265736F757263653120E8
S113191672656C656173656420005265736F7572D8
S11319266365312062757379202020005265736FD8
S11319367572636530204772616E74656420005267
S113194665736F7572636531204772616E74656481
S113195620004172626974657244656D6F00FFFF11
S1051966020079
S9030000FC
