S01A00006275696C642F626967415652362F6D61696E2E73726563A6
S11300000C9449000C9468000C9468000C946800EB
S11300100C9468000C9468000C9468000C946800BC
S11300200C9468000C9468000C9468000C946800AC
S11300300C9468000C9468000C9468000C94D6032B
S11300400C94B8020C9468000C94C9020C946800D7
S11300500C94D7020C9468000C9468000C9468000B
S11300600C9468000C9468000C9468000C9468006C
S11300700C9468000C9468000C94E2020C946800E0
S11300800C9426030C9468000C94680000081C1857
S1130090141011241FBECFEFD0E1DEBFCDBF11E09D
S11300A0A0E0B1E0ECE5FEE000E00BBF02C0079089
S11300B00D92AA31B107D9F711E0AAE1B1E001C06C
S11300C01D92A237B107E1F70E9421060C942D0777
S11300D00C9400008FB7F894992708958FBF089562
S11300E07FB7F89462B720911C0130911D014091B3
S11300F01E0150911F0106B601FE0FC081B792B7D1
S1130100280F311D411D511D2F5F3F4F4F4F5F4F32
S1130110290F311D411D511D04C0260F311D411DE4
S1130120511D872F99278FBFCA01B9010895282F20
S11301309FB7F894E82FFF27E05EFE4F80818F3F42
S113014081F4E0916F01E21771F40BC02093650113
S113015004C0FF27E05EFE4F208320936F0120E060
S113016007C025E005C0809165018F3F91F7EECF70
S1130170892F99278FBF822F99270895EF92FF9295
S11301800F931F93E0915701E1FF2BC020914F0182
S1130190309150014091510150915201E09053012E
S11301A0F09054010091550110915601621B730B9C
S11301B0840B950B6E157F058007910790F0E0FF87
S11301C004C0ED7FE09357010CC02E0D3F1D401F6E
S11301D0511F20934F01309350014093510150938C
S11301E0520183E00E9497001F910F91FF90EF90BE
S11301F00895DF92EF92FF920F931F938FB7F894B5
S1130200282F3327D22E91B782B746B7981711F00B
S113021041FF02C02FBF68C0809132018823D1F111
S11302200E947000E0902901F0902A0100912B01B6
S113023010912C012091590130915A0140915B0198
S113024050915C016E197F09800B910B6217730743
S11302508407950728F01092320186EE71E01CC0E5
S11302602E0D3F1D401F511F80911C0190911D01B7
S1130270A0911E01B0911F01281B390B4A0B5B0B87
S1130280273E31054105510528F4822F223018F408
S113029082E001C086EE70E0682F615000B601FC78
S11302A0FDCF82B7681709F46F5F20911C0130916C
S11302B01D0140911E0150911F01DA01C9010196EF
S11302C0A11DB11D860F911DA11DB11D821793079C
S11302D0A407B50710F4622F609561BFDFBE7723D2
S11302E019F082E00E9497001F910F91FF90EF9008
S11302F0DF900895AFB7F894BB27E1E0E0933201B3
S11303006093290170932A0180932B0190932C010F
S11303102093590130935A0140935B0150935C013F
S1130320AFBF0E94F9000895EF92FF920F931F93BD
S11303300E9470007B018C018FB7F894992710926A
S113034032018FBF8091570181FF3DC080914F01E1
S113035090915001A0915101B0915201A8019701CF
S1130360281B390B4A0B5B0BDA01C901209153019D
S1130370309154014091550150915601281B390B7D
S11303804A0B5B0B2F3F8FEF38078FEF48078FE740
S11303905807C9F012161306140615062CF0C801E6
S11303A0B7010E94BE000FC020934B0130934C0153
S11303B040934D0150934E0181E080931B01C8018D
S11303C0B7010E947A011F910F91FF90EF90089559
S11303D07FB7F89462B72091680130916901409128
S11303E06A0150916B0106B601FE0FC081B792B746
S11303F0280F311D411D511D2F5F3F4F4F4F5F4F40
S1130400290F311D411D511D04C0260F311D411DF1
S1130410511D872F99278FBFCA01B90108952FB79E
S1130420F894332780939C00EBE9F0E080818064AA
S113043080832FBF0895DF92EF92FF920F931F9353
S11304408FB7F894282F3327D22E91B782B746B7A7
S1130450981711F041FF02C02FBF6AC080916C0150
S11304608823E1F10E94E801E0903501F090360123
S11304700091370110913801209124013091250118
S113048040912601509127016E197F09800B910B31
S1130490621773078407950720F010926C0171E0CE
S11304A01EC02E0D3F1D401F511F80916801909169
S11304B06901A0916A01B0916B01281B390B4A0BA9
S11304C05B0B273E31054105510540F4822F223054
S11304D010F070E005C070E082E002C070E086EECB
S11304E0682F615000B601FCFDCF82B7681709F48C
S11304F06F5F209168013091690140916A015091C8
S11305006B01DA01C9010196A11DB11D860F911D70
S1130510A11DB11D82179307A407B50710F4622F1C
S1130520609561BFDFBE772319F080E00E949700D9
S11305301F910F91FF90EF90DF900895AFB7F8945B
S1130540BB27E1E0E0936C016093350170933601C1
S1130550809337019093380120932401309325012F
S11305604093260150932701AFBF0E941B020895B8
S11305701F920F920FB60F9211248F9383B783BFEC
S113058000B600FCFDCF8F910F900FBE0F901F900F
S113059018951F920F920FB60F9211248F935F99A3
S11305A08CB18F910F900FBE0F901F901895789477
S11305B01F920F920FB60F9211240F900FBE0F903F
S11305C01F9018951F920F920FB60F9211242F931C
S11305D03F938F939F93EF93FF9380919B0087FFAB
S11305E02AC020919C00E0913301F09134013097AE
S11305F011F180916D0190916E01E80FF91F208334
S1130600019690936E0180936D0120917001309159
S113061071018217930778F010923401109233011C
S113062080915801833039F080919A008F778093BC
S11306309A0010925801FF91EF919F918F913F91F1
S11306402F910F900FBE0F901F90189578941F92C2
S11306500F920FB60F9211242F933F934F935F93F2
S11306606F937F938F939F93AF93BF93EF93FF9376
S113067020912D0130912E0180915F0190916001B4
S11306802817390780F4E0913001F0913101E20F2D
S1130690F31F80812F5F3F4F30932E0120932D0154
S11306A00E940F0215C01092310110923001109275
S11306B02F0180919A008F7B80939A0080919A00F9
S11306C0877F80939A0080919A008F7E80939A000E
S11306D0FF91EF91BF91AF919F918F917F916F9116
S11306E05F914F913F912F910F900FBE0F901F90EC
S11306F01895813019F480E091E002C085E091E022
S11307009093180180931701A0911701B0911801DB
S1130710FD0101900020E9F7EA1BFB0B80919A0090
S11307208F7B80939A0080919A008F7780939A00B0
S11307301092580110922F0180919A008860809342
S11307409A0080919A00806180939A0080919A0027
S1130750806880939A00309741F1809130019091A4
S11307603101892B11F5F0936001E0935F01B0939F
S11307703101A093300110922E0110922D0181E0DD
S113078080932F0180919B00806480939B008091D3
S11307909A00806480939A008C9121E030E0309339
S11307A02E0120932D010E940F0208951F920F9293
S11307B00FB60F9211242F933F934F935F936F9330
S11307C07F938F939F93AF93BF93EF93FF93809106
S11307D01A018A3F09F040C083B783BF00B600FC0A
S11307E0FDCF81B799270196AA27BB2720911C0129
S11307F030911D0140911E0150911F01280F391F96
S11308004A1F5B1F20931C0130931D0140931E015E
S113081050931F0178940E94F90081B7992701969B
S1130820AA27BB27209168013091690140916A0190
S113083050916B01280F391F4A1F5B1F20936801D9
S11308403093690140936A0150936B0178940E943C
S11308501B0210921A0103C08F5F80931A01FF914B
S1130860EF91BF91AF919F918F917F916F915F9124
S11308704F913F912F910F900FBE0F901F9018959D
S1130880EF92FF920F931F9380911B01882361F5D0
S113089020914B0130914C0140914D0150914E01FA
S11308A0EFB7F894FF276091290170912A01809194
S11308B02B0190912C01E0905901F0905A01009184
S11308C05B0110915C016E0D7F1D801F911FEFBFB6
S11308D020934B0130934C0140934D0150934E01B2
S11308E010921B010E947A010E9470000E94BE00B7
S11308F01F910F91FF90EF900895AF92BF92CF9206
S1130900DF92EF92FF920F931F935B016C01609152
S1130910410161FF1FC02091390130913A0140919A
S11309203B0150913C01E0903D01F0903E0100916B
S11309303F0110914001D601C501821B930BA40B0A
S1130940B50B8E159F05A007B10720F0E9E3F1E090
S113095090E021C0E2E4F1E060914A0161FF65C0EA
S1130960209142013091430140914401509145014D
S1130970E0904601F090470100914801109149012F
S1130980A21AB30AC40AD50AAE14BF04C006D1061B
S113099008F44BC091E060FF04C080858D7F8087A0
S11309A008C02E0D3F1D401F511F208331834283F9
S11309B05383913009F039C02FB7F89433278091CD
S11309C064008160809364002FBF2FB7F8943327AD
S11309D0809165008160809365002FBF2FB7F894E4
S11309E03327809165008E7F809365002FBF84EF4D
S11309F091E0019701960197E1F72FB7F894332717
S1130A00809164008E7F809364002FBF84E190E026
S1130A10019701960197E1F78091630080FD02C080
S1130A2081E001C080E00E94790381E00E94970088
S1130A301F910F91FF90EF90DF90CF90BF90AF90F8
S1130A400895AF92BF92CF92DF92EF92FF920F93ED
S1130A501F930E94E8015B016C018FB7F8949927FA
S1130A6010926C018FBF8091410181FF28C0809159
S1130A70390190913A01A0913B01B0913C01A6014A
S1130A809501281B390B4A0B5B0BDA01C901209134
S1130A903D0130913E0140913F0150914001281B9E
S1130AA0390B4A0B5B0B2F3F8FEF38078FEF48074B
S1130AB08FE7580721F079018A0161E009C08FEFBF
S1130AC0E82E8FEFF82E8FEF082F8FE7182F60E0B6
S1130AD080914A0181FF24C0809142019091430199
S1130AE0A0914401B0914501A6019501281B390B41
S1130AF04A0B5B0BDA01C901209146013091470191
S1130B004091480150914901281B390B4A0B5B0B5A
S1130B102E153F05400751071CF479018A0102C0D4
S1130B206623D9F01E141F04100611062CF0C6010A
S1130B30B5010E947D0411C0E0926101F09262014E
S1130B40009363011093640181E080932801A8015C
S1130B509701C601B5010E949E021F910F91FF905B
S1130B60EF90DF90CF90BF90AF900895EF92FF92F7
S1130B700F931F9380912801882361F520916101CF
S1130B80309162014091630150916401EFB7F89490
S1130B90FF27609135017091360180913701909162
S1130BA03801E0902401F090250100912601109174
S1130BB027016E0D7F1D801F911FEFBF20936101E0
S1130BC030936201409363015093640110922801B1
S1130BD00E949E020E94E8010E947D041F910F91D1
S1130BE0FF90EF900895809165018F3F39F1282F90
S1130BF03327F901E05EFE4F8081809365018F3FCA
S1130C0011F480936F018FEF80832F3FB9F021306F
S1130C1051F0213028F0223049F0233051F00BC03C
S1130C200E94B60508C00E94210505C00E94400428
S1130C3002C00E94940181E090E0089580E090E079
S1130C400895CDEFD0E1DEBFCDBFFFB6F89444E008
S1130C5050E06FEF70E080E291E00E9426078FEF92
S1130C608093650180936F0181E08EBD83E083BF33
S1130C704CB55DB58AE78A8309C02CB53DB5241708
S1130C80350718F48A8181508A83A9018A818823CF
S1130C90A1F782B7898392B789819817E1F32CB5BC
S1130CA03DB582B7898392B789819817E1F38CB5F2
S1130CB09DB5821B930B409625E0969587952A95C2
S1130CC0E1F7909367018093660113BE83B78EBDED
S1130CD08EB580BF12BE1DBC1CBC8FEF86BF86B70D
S1130CE080937C0080B7992787709070892BD1F707
S1130CF015BA8FEF84BB80E285BF0E94F305882379
S1130D00E1F780B7887080BF0BE003BF16EE11BF18
S1130D1087B7826087BF0E94F90092E026E088E0EE
S1130D2089B9109290009BB9209395001AB88093CA
S1130D3099001092980090939B0020939D0010922C
S1130D409A0084E490E090935E0180935D0180B703
S1130D50887080BF03BF11BF87B7826087BF0E94BE
S1130D601B020E94F3058823E1F78F2D99278FBF7B
S1130D7078940E94E8016093420170934301809348
S1130D8044019093450180ED97E0A0E0B0E08093AA
S1130D90460190934701A0934801B0934901809183
S1130DA04A018E7F826080934A0181E00E9497000D
S1130DB08FB7F894482F55277FEFECE8F0E0C895FB
S1130DC0602D1AC087B7992783709070892B61F0C2
S1130DD080B7992787709070892BD1F781B792B724
S1130DE0891B8C3008F082B785B7837E8062862B9E
S1130DF085BF78948895F894809165018F3F11F3AD
S1130E00282F3327F901E05EFE4F8081809365012E
S1130E108F3F11F480936F0170832F3F99F24FBF7E
S1130E20213059F0213030F0223051F0233009F0D4
S1130E30BFCF09C00E94B605BBCF0E942105B8CF21
S1130E400E944004B5CF0E949401B2CFDC0101C0DE
S10F0E506D9341505040E0F70895FFCF2F
S1130E5C4641494C00594553535353003C4E4F544F
S10D0E6C20494E49543E000C0100D9
S9030000FC
