S01A00006275696C642F626967415652362F6D61696E2E73726563A6
S11300000C9439010C9458010C9458010C94580127
S11300100C9458010C9458010C9458010C945801F8
S11300200C9458010C9458010C9458010C945801E8
S11300300C9458010C9458010C9458010C943204FB
S11300400C94AE030C9458010C9458010C94580170
S11300500C9458010C94BF030C9458010C9458014F
S11300600C9458010C9458010C9458010C945801A8
S11300700C9458010C9458010C9458010C94580198
S11300800C9458010C9458010C94580100081C1845
S11300901410000000000000005F000000070007CB
S11300A000147F147F14242A7F2A12231308646205
S11300B036495522500005030000001C224100006F
S11300C041221C00082A1C2A0808083E080800507F
S11300D030000008080808080060600000201008CC
S11300E004023E5149453E00427F4000426151496D
S11300F0462141454B311814127F10274545453997
S11301003C4A4949300171090503364949493606D3
S11301104949291E00363600000056360000000802
S1130120142241141414141441221408000201511D
S11301300906324979413E7E1111117E7F494949B0
S1130140363E414141227F4141221C7F4949494178
S11301507F090901013E414151327F0808087F00AF
S1130160417F41002040413F017F081422417F40EC
S11301704040407F0204027F7F0408107F3E4141DB
S1130180413E7F090909063E4151215E7F09192933
S113019046464949493101017F01013F4040403F02
S11301A01F2040201F7F2018207F6314081463033E
S11301B004780403615149454300007F414102042E
S11301C008102041417F0000040201020440404025
S11301D04040000102040020545454787F484444B1
S11301E0383844444420384444487F3854545418DC
S11301F0087E090102081454543C7F080404780062
S1130200447D40002040443D00007F1028440041CC
S11302107F40007C041804787C0804047838444443
S113022044387C14141408081414187C7C0804043E
S1130230084854545420043F4440203C4040207C0F
S11302401C2040201C3C4030403C44281028440CD6
S11302505050503C4464544C440008364100000063
S11302607F0000004136080008082A1C08081C2AE0
S1130270080811241FBECFEFD0E1DEBFCDBF11E0CF
S1130280A0E0B1E0EAE9FDE100E00BBF02C00790A5
S11302900D92A433B107D9F711E0A4E3B1E001C092
S11302A01D92A439B107E1F70E943F0C0C94CC0EC7
S11302B00C9400008FB7F894992708958FBF089580
S11302C0982F969596959695E1E7F1E0E90FF11D43
S11302D0877021E030E002C0220F331F8A95E2F7D5
S11302E08081822399270895282F9FB7F894E82FB7
S11302F0FF27EC5AFE4F80818F3F81F4E0919301F8
S1130300E21771F40BC02093890104C0FF27EC5A53
S1130310FE4F20832093930120E007C025E005C011
S1130320809189018F3F91F7EECF892F99278FBF55
S1130330822F992708950F931F93CF93DF93182F3C
S11303408FB7F894282F3327022F809139018823FF
S113035059F581E080933901109384012FBF8FB741
S1130360F8949927379A8FBF8FB7F894C82FDD2751
S11303709C2F80912B018130A9F480913901813027
S113038021F48AE00E94740109C0823059F48091FA
S1130390840180932B0183E080933901CFBF80E0F7
S11303A090E025C09FBFFBCF80918401811711F499
S11303B02FBFF5CF812F0E946001882319F085E0BB
S11303C090E014C0E12FE695E695E695FF27EF58F7
S11303D0FE4F177081E090E002C0880F991F1A95B4
S11303E0E2F72081282B208380E090E00FBFDF918B
S11303F0CF911F910F91089590913A01906190933C
S11304003A018093350184E00E94740180E090E019
S113041008959C0180913A0180FF03C081E090E03F
S1130420089580913A01826080933A01609381013A
S11304304093510130936B0120936A0183E00E9441
S1130440740180E090E0089580918D01882321F06B
S11304502FE1F0E0E0E008C0F7E0E1E08FB7F894C6
S1130460992720914E018FBF622FAFB7F8948091E6
S113047066018E7F8093660187B1782F7F712E2F5E
S1130480332782958695869583709927281739078F
S113049019F080E090E013C0862F8850863118F060
S11304A081E090E00CC040E050E0262F3327872FF6
S11304B099272817390711F441E050E0CA01982F11
S11304C09170990F809166018178262F2F71422FA8
S11304D0440F440F892B842B80936601E295EE0F21
S11304E0EE0FE07C2E2B332727B9F83059F5809195
S11304F08A0190918B0121E08638920718F087E0F9
S113050090E01FC0833C910518F086E090E019C08C
S11305108136910518F085E090E013C08033910591
S113052018F084E090E00DC08831910518F083E064
S113053090E007C00C9718F082E090E002C080E0E1
S113054090E0F82FF770887D8F2B886D992786B9F6
S11305508A2F99278FBF08957FB7F89462B72091A7
S11305608E0130918F01409190015091910106B616
S113057001FE0FC081B792B7280F311D411D511DD7
S11305802F5F3F4F4F4F5F4F290F311D411D511DAD
S113059004C0260F311D411D511D872F99278FBF80
S11305A0CA01B9010895EF92FF920F931F93E0914E
S11305B07A01E1FF2EC020917201309173014091C4
S11305C0740150917501E0907601F09077010091EB
S11305D0780110917901621B730B840B950B6E15D6
S11305E07F0580079107A8F0E0FF04C0ED7FE0934A
S11305F07A010CC02E0D3F1D401F511F2093720124
S113060030937301409374015093750180E00E940C
S1130610FC0188E00E9474011F910F91FF90EF90FC
S11306200895DF92EF92FF920F931F938FB7F89480
S1130630282F3327D22E91B782B746B7981711F0D7
S113064041FF02C02FBF6AC0809192018823E1F16B
S11306500E94AC02E0906D01F0906E0100916F0178
S1130660109170012091600130916101409162010B
S1130670509163016E197F09800B910B6217730708
S11306808407950720F01092920171E01EC02E0D90
S11306903F1D401F511F80918E0190918F01A091A9
S11306A09001B0919101281B390B4A0B5B0B273E3B
S11306B031054105510540F4822F223010F070E0DD
S11306C005C070E082E002C070E086EE682F6150E1
S11306D000B601FCFDCF82B7681709F46F5F209163
S11306E08E0130918F014091900150919101DA0176
S11306F0C9010196A11DB11D860F911DA11DB11D3A
S113070082179307A407B50710F4622F609561BFA1
S1130710DFBE772319F087E00E9474011F910F91C7
S1130720FF90EF90DF900895AFB7F894BB27E1E016
S1130730E093920160936D0170936E0180936F0159
S113074090937001209360013093610140936201A2
S113075050936301AFBF0E94110308951F920F923B
S11307600FB60F9211248F9383B783BF00B600FC9A
S1130770FDCF8F910F900FBE0F901F9018951F9271
S11307800F920FB60F9211242F933F934F935F93C1
S11307906F937F938F939F93AF93BF93EF93FF9345
S11307A044B155B178948FB7F89499272091660194
S11307B0322F3695317021708FBF2223E1F43398A4
S11307C080916C01813021F0823009F03AC00AC076
S11307D0332351F050937E0140937D018BE00E94BE
S11307E074012FC0332319F40E9424022AC081E02B
S11307F080936C0126C08FB7F89499278FBF2FB7C9
S1130800F894332786B1582F5770482F4072987D3B
S1130810942B952B8074977B982B90619F77892FCD
S1130820992786B9887D842B852B877380619927C6
S113083086B9887D842B852B877B8069992786B927
S11308402FBFFF91EF91BF91AF919F918F917F91B6
S11308506F915F914F913F912F910F900FBE0F9029
S11308601F9018951F920F920FB60F9211242F9379
S11308703F934F935F936F937F938F939F93AF9324
S1130880BF93EF93FF93809137018A3F21F583B79C
S113089083BF00B600FCFDCF81B799270196AA2734
S11308A0BB2720918E0130918F014091900150918E
S11308B09101280F391F4A1F5B1F20938E0130932B
S11308C08F01409390015093910178940E941103F9
S11308D01092370103C08F5F80933701FF91EF912E
S11308E0BF91AF919F918F917F916F915F914F9144
S11308F03F912F910F900FBE0F901F901895282FA6
S1130900E62F6AE00E94990E90933401809134019D
S1130910805D80932401809134013327281B3109A1
S1130920C9016AE070E00E94A50E9B01862F6AE06F
S11309300E94990E9093340180913401805D8093DC
S11309402301809134013327281B3109C9016AE04E
S113095070E00E94A50E9B01862F6AE00E94990E0A
S11309609093340180913401805D809322018091C1
S113097034013327281B3109C9016AE070E00E9461
S1130980A50ECB016AE00E94990E909334018091E8
S11309903401805D809321018FE2809325018E2FA5
S11309A00E94990E9093340180913401805D80936C
S11309B0290180913401FF27E81BF109CF016AE086
S11309C070E00E94A50E9B01862F6AE00E94990E9A
S11309D09093340180913401805D8093280180914B
S11309E034013327281B3109C9016AE070E00E94F1
S11309F0A50E9B01862F6AE00E94990E9093340104
S1130A0080913401805D80932701809134013327E4
S1130A10281B3109C9016AE070E00E94A50ECB01D0
S1130A206AE00E94990E9093340180913401805DB4
S1130A308093260110922A0148E26DE281E291E05E
S1130A400E94090281E08093450189E00E947401BB
S1130A5008950F931F93182F062F80E00E947401AE
S1130A60112329F483B18F7C83B91E9A04C01D9885
S1130A7083B1806583B98FEF8ABB0BBB0000000094
S1130A800000000000000000000000001E981F91FC
S1130A900F9108951F93162F803418F41B9A1A98F7
S1130AA002C01A9A1B988F738064682F80E00E949A
S1130AB029051F73186B612F80E00E9429051F917F
S1130AC00895DF92EF92FF920F931F93D82E062F73
S1130AD0E62EE694E694E6946E2D0E944A05FF24E1
S1130AE080E00E94740183B1806683B91C9A1ABAAB
S1130AF000000000000000000000000000000000F2
S1130B0019B383B18F7983B98FEF8ABBF39482E0F1
S1130B10F81631F76E2D8D2D0E944A05077081E07D
S1130B2090E002C0880F991F0A95E2F7182B612FF5
S1130B3081E00E9429051F910F91FF90EF90DF90B3
S1130B40089581E080934701E4E6F0E080818061CC
S1130B508083808188608083E1E6F0E080818D7FFE
S1130B60808380818E7F8083E2E6F0E080818E7FC7
S1130B70808380818D7F8083E5E6F0E080818860DA
S1130B80808380818F7E80838FB7F8949927109219
S1130B904E018FBF80E00E949B0108952F923F92E7
S1130BA04F925F926F927F928F929F92AF92BF9279
S1130BB0CF92DF92EF92FF920F931F93CF93DF9325
S1130BC0853009F457C1863088F4823009F470C046
S1130BD0833030F4882329F1813009F020C61EC007
S1130BE08330D1F0843009F01AC624C1883009F466
S1130BF0E9C3893038F4863009F412C3873009F028
S1130C000EC6ADC38A3009F42DC48A3008F427C453
S1130C108B3009F004C63EC4FF2400C1C0E0D0E01C
S1130C2025C01ABA1D9A1C981E9A06C01E98000068
S1130C3000001E9A00000000CF99F8CF1E981D9A5C
S1130C408FEF8ABBECC560914F01610F80917F01EA
S1130C500E94610580914F01180F80917F0190914E
S1130C607B01890F612F81500E9461051C2F219601
S1130C7080916901181738F3C0E0D0E012C0809168
S1130C807F0160914F01810F0E94610560914F01C6
S1130C9080916901680F615080917F01810F0E94EA
S1130CA061051C2F219680917B01181740F3DEC04B
S1130CB0D090500180918001D81A80918C01E82E47
S1130CC0FF24C701880F991FC3E0D0E0C81BD90BCC
S1130CD0AA24BB24882499245AC0609150016E0D23
S1130CE0809180018A0D0E946105609150016E1906
S1130CF0809180018A0D0E946105609150016E0D02
S1130D00809180018A190E946105609150016E19D9
S1130D10809180018A190E94610580915001682F99
S1130D206A0D8E0D8D190E94610580915001682F06
S1130D306A198E0D8D190E94610580915001682FEA
S1130D406A0D8E198D190E94610580915001682FDA
S1130D506A198E198D190E946105D7FF04C0269661
S1130D60C80DD91D0DC0C5018E199F09880F991F83
S1130D70880F991F2A96C80FD91F0894E108F10813
S1130D800894A11CB11C24E030E0820E931EEA14E6
S1130D90FB040CF0A2CF80913A018B7F80933A013F
S1130DA03EC500E010E06091510166956695669538
S1130DB08F2D800F90918101890F0E944A05E09147
S1130DC06A01F0916B01E08185E0E802F0011124F1
S1130DD0E00FF11FEE50F040C895E02D6E2F81E03A
S1130DE00E9429050F5F1F4F05301105E1F635E01C
S1130DF0F30E80918101609151018F0D0E944A058B
S1130E0060E081E00E942905F39480916A01909149
S1130E106B01019690936B0180936A01E0916A01E2
S1130E20F0916B018081882309F0BBCF80913A0156
S1130E308D7FB4CF10927C011092360180E06091D6
S1130E407C010E944A056091350181E00E942905D8
S1130E50809136018F5F8093360187FFF0CF8091B8
S1130E607C018F5F80937C01883030F380913A015C
S1130E708F7E94CF7090680160908201872D8619CF
S1130E8080933E0180904D0190905201981458F047
S1130E900F2EF0E02F2EF0E03F2EF0E04F2EF0E08A
S1130EA05F2EF02D25C0682D7727691971098827D1
S1130EB077FD8095982F0E94D70D7B018C01672DBB
S1130EC0772766197109882777FD8095982F0E94E6
S1130ED0D70D9B01AC01C801B7010E94740D1B0121
S1130EE02C0182E080933F01882D891980933D0174
S1130EF08914E8F5692D772768197109882777FD22
S1130F008095982F0E94D70D5B016C01672D772780
S1130F1067FD7095872F972F0E94D70D7B018C0159
S1130F2077FE08C020E030E040E853E40E94320D30
S1130F307B018C01662D7727882777FD8095982F74
S1130F400E94D70D9B01AC01C801B7010E94310D6D
S1130F509B01AC01C601B5010E94740D1B012C015B
S1130F6081E080933F01892D881980933D01909100
S1130F703D0180913E01891748F480913D016091C3
S1130F803E010E94990E80933C0102C010923C01E4
S1130F90891461F410923F010F2EF0E02F2EF0E03F
S1130FA03F2EF0E04F2EF0E05F2EF02D6714E9F4B1
S1130FB0109240010CC080914001680F8091820121
S1130FC00E946105809140018F5F809340012091D0
S1130FD0400160915201332780914D019927861B6E
S1130FE09109281739073CF318C11092400107C131
S1130FF080913F01813009F098C010923B018DC06F
S1131000609152017727882777FD8095982F0E9459
S1131010D70D5B016C011091400190903B01612F51
S1131020772767FD7095872F972F0E94D70D17FF9D
S113103006C020E030E040E853E40E94320D9B01FA
S1131040AC01C201B1010E94510E9B01AC01C60169
S1131050B5010E94310D7B018C01692D772788270A
S113106077FD8095982F0E94D70D9B01AC01C80194
S1131070B7010E94320D7B018C0160914D017727ED
S1131080882777FD8095982F0E94D70D9B01AC018E
S1131090C801B7010E94E40D8823D4F110914001E6
S11310A090903B0180904001612F772767FD7095F8
S11310B0872F972F0E94D70D17FF06C020E030E03E
S11310C040E853E40E94320D9B01AC01C201B1011E
S11310D00E94510E9B01AC01C601B5010E94310D65
S11310E07B018C01692D7727882777FD8095982FC0
S11310F00E94D70D9B01AC01C801B7010E94320DBB
S11311000E94BA0D20918201882D820F0E946105F0
S113111080913B018F5F80933B0190913B018091D3
S11311203C01891708F06CCF65C080913F01823083
S113113009F055C010923B014AC010914001B09093
S11311403B01A0904001609152017727882777FDE9
S11311508095982F0E94D70D6B017C01612F772712
S113116067FD7095872F972F0E94D70D17FF06C034
S113117020E030E040E853E40E94320D9B01AC01D2
S1131180C201B1010E94510E9B01AC01C701B6011D
S11311900E94320D7B018C016B2D7727882777FD08
S11311A08095982F0E94D70D9B01AC01C801B7010F
S11311B00E94320D0E94BA0D209182018A2D820F65
S11311C00E94610580913B018F5F80933B01909168
S11311D03B0180913C01891708F0AFCF0BC080918F
S11311E03F01882339F48091400160915201840FBA
S11311F00E946105809140018F5F8093400120919E
S11312004001409182013327809168019927841B12
S11312109109821793070CF0EBCE80913A01BECD71
S11312201092440194C08091530199278770907063
S1131230892B71F520916501822F99278770907011
S1131240892B31F5269526952695209342011092F7
S1131250430118C09091430180914401609153016E
S1131260669566956695690F90918301890F0E9432
S11312704A056FEF81E00E942905809143018F5F49
S1131280809343019091430180914201981710F398
S1131290209165012830E0F560915301862F99274C
S11312A087709070892BA1F580914201882301F504
S11312B02770209342011092430141E050E012C094
S11312C08091410120914301FA0102C0EE0FFF1FFA
S11312D02A95E2F78E2B80934101809143018F5F21
S11312E0809343019091430180914201981740F308
S11312F08091440166956695669590918301890F66
S11313000E944A056091410181E00E9429051AC0AA
S11313101092430111C06091430180914401909166
S11313205301690F90918301890F0E946105809197
S113133043018F5F80934301909143018091650144
S1131340981748F3809144018F5F809344019091F2
S1131350440180914C01981708F465CF60C28091D4
S11313606401882361F520918501309186014091C3
S1131370870150918801EFB7F894FF2760916D01C0
S113138070916E0180916F0190917001E090600105
S1131390F090610100916201109163016E0D7F1D57
S11313A0801F911FEFBF20938501309386014093E6
S11313B0870150938801109264010E9494030E9453
S11313C0AC023AC00E94AC027B018C018FB7F89446
S11313D09927109292018FBF80917A0181FF1FC2D9
S11313E08091720190917301A0917401B091750183
S11313F0A8019701281B390B4A0B5B0BDA01C901C1
S113140020917601309177014091780150917901D2
S1131410281B390B4A0B5B0B2F3F8FEF38078FEFDD
S113142048078FE7580709F4FAC112161306140681
S113143015062CF0C801B7010E94D302F0C1209315
S1131440850130938601409387015093880181E0A0
S113145080936401C801B7010E949403E0C10E9413
S1131460A105DDC12FB7F8943327809184018093BF
S11314702B0183E0809339012FBF80912B018823B6
S113148009F0CDC181E080936C0110928D010E941E
S11314902402C5C181E080936C01E0907D01F0904D
S11314A07E0180918D01882309F0B9C18FB7F8942A
S11314B0C82E80913901833009F041C080912B01FD
S11314C08823E9F580917101882309F0A2C19AC1AA
S11314D0ED2DE695E695E695FF274D2D5527EF581A
S11314E0FE4F9A012770307081E090E002C0880FAF
S11314F0991F2A95E2F78095208128232083009361
S1131500380112C00F5F1F4F0130110511F400E0C4
S113151010E0D02E802F0E9460018823C9F60C179A
S11315201D0781F74FEF50E0409384018FEF8093C4
S11315302B0181E0809339018AE00E947401CFBEBF
S11315409FB6F89480914701843009F45DC08530DA
S113155048F48230D1F0833008F050C0813009F073
S11315604DC10DC0863009F4F5C0863008F4ECC0D6
S1131570873009F402C1883009F040C100C1F092FB
S11315804901E092480182E028C09FE1E916F10494
S113159038F180914501813029F4109245010E946F
S11315A0A1052CC180914601813029F4F0922D01CE
S11315B0E0922C0104C0F0924901E092480180912C
S11315C06500877F809365008091650080618093CA
S11315D0650081E080934E0183E0809347010BC155
S11315E080914601813009F406C180914501813022
S11315F009F004C189E00E94740100C1F0924B011A
S1131600E0924A0184E0E9CFEDE3EE16F10408F438
S1131610F2C0809146018130E9F485E0809347016E
S113162080916500886080936500809165008F7E5D
S11316308093650010924E01F0922F01E0922E01EA
S113164080E00E94FC0140E066E280E091E00E94BC
S11316500902D1C0F0924B01E0924A01C0914A01C3
S1131660D0914B01009148011091490180913001C2
S1131670909131010817190708F061C080912C017D
S113168090912D018017910708F059C08091320183
S113169090913301C817D90708F051C080912E01E9
S11316A090912F018C179D0708F049C002531040F8
S11316B0B801882777FD8095982F0E94D70D17FFD2
S11316C006C020E030E040E857E40E94320D20E0FC
S11316D030E04DE454E40E94740D5B016C018E0112
S11316E000581040B801882777FD8095982F0E94F4
S11316F0D70D17FF06C020E030E040E857E40E9411
S1131700320D20E030E048E254E40E94740D20E001
S113171030E040E852E40E94510E0E94BA0D7B0171
S11317208C0120E030E040E053E4C601B5010E94A2
S1131730510E0E94BA0DDC01CB016E2D02C068EC83
S113174088EC0E947F045AC0F0923101E09230018B
S113175086E043CFF0923101E09230018091650040
S113176080618093650080916500877F8093650028
S113177081E080934E0187E030CF88E02ECFF09255
S11317803301E09232012091320130913301809192
S11317902E0190912F018C599F4F82179307E0F4EB
S11317A0209130013091310180912C0190912D01D3
S11317B08C599F4F8217930778F48AE080934701EE
S11317C01092460180E00E94FC0140E16CE080E15F
S11317D091E00E94090212C085E080934701809144
S11317E06500886080936500809165008F7E80939A
S11317F0650010924E0180E00E949B01892D99277B
S11318008FBF0DC081E080932B011092390137986E
S113181096CE80913801C82FDD278E0173CEDF91DB
S1131820CF911F910F91FF90EF90DF90CF90BF90D9
S1131830AF909F908F907F906F905F904F903F906C
S11318402F900895809189018F3FB1F0282F33277D
S1131850F901EC5AFE4F8081809389018F3F11F486
S1131860809393018FEF80832F3F31F0822F0E946A
S1131870CE0581E090E0089580E090E00895CDEFFA
S1131880D0E1DEBFCDBF1FB7F8944CE050E06FEF5E
S113189070E084E591E00E942A0D8FEF8093890126
S11318A08093930181E08EBD83E083BF4CB55DB529
S11318B08AE78A8309C02CB53DB52417350718F487
S11318C08A8181508A83A9018A818823A1F782B7FA
S11318D0898392B789819817E1F32CB53DB582B716
S11318E0898392B789819817E1F38CB59DB5821BE2
S11318F0930B409645E0969587954A95E1F790932A
S11319008B0180938A0113BE83B78EBD8EB580BFD1
S113191012BE1DBC1CBC8FEF86BF86B780937C00B3
S113192080B7992787709070892BD1F715BA8FEFFC
S113193084BB16B880E285BF0E94220C8823E1F79D
S11319401092710180B7887080BF8BE083BF86EEF0
S113195081BF87B7826087BF0E9411030E94220C57
S11319608823E1F7812F99278FBF789482B18C6FF8
S113197082B98FEF8ABB83B1837083B91BBA1F9A74
S11319806FE380E00E94290581E080933501109285
S11319907C011092360180E060917C010E944A052E
S11319A06091350181E00E942905809136018F5FA5
S11319B08093360187FFF0CF80917C018F5F809305
S11319C07C01883030F380913A018F7E80933A0114
S11319D081E08093450189E00E9474018FB7F894F7
S11319E0482F55277FEFECE8F0E0C895602D1AC02A
S11319F087B7992783709070892B61F080B79927F6
S1131A0087709070892BD1F781B792B7891B8C307E
S1131A1008F082B785B7837E8062862B85BF789471
S1131A208895F894809189018F3F11F3282F3327EB
S1131A30F901EC5AFE4F9081909389019F3F11F474
S1131A409093930170832F3F99F24FBF822F0E948E
S1131A50CE05C4CFDC0101C06D9341505040E0F786
S1131A6008955058192EEFD001D0D2C0BA1762078A
S1131A70730784079507B1F188F40EF410940B2EC4
S1131A80BA2FA02D062E622F202D072E732F302D56
S1131A90082E842F402D092E952F502DFF275523D6
S1131AA0B9F0591B49F0573E98F04695379527955C
S1131AB0A795F0405395C9F776F0BA0F621F731FCC
S1131AC0841F30F4879577956795B795F040939583
S1131AD017FA0F2E0895BF1BBB27BA0B620B730BAB
S1131AE0840BF6CFDEF6DBC0AED001D091C0552317
S1131AF059F0992369F09F575F57951B33F442F4CB
S1131B00903811F4915805C09BC091589F3F09F437
S1131B10C6C0BB27112462177307840730F4660F0D
S1131B20771F881FBB1F915098F311D00F920FD0CD
S1131B300F920DD0A0E82617370748071B0609F0B7
S1131B40A048BA2F602D7F918F9100240895A0E8BA
S1131B500024621773078407B10528F0621B730B16
S1131B60840BB1090A2A660F771F881FBB1FA6952D
S1131B7081F7089597FB73D09F3738F0FEE9F91B7E
S1131B80982F872F762F6B2F05C086C09695879543
S1131B9077956795F150D0F73EF4909580957095C0
S1131BA061957F4F8F4F9F4F0895E89403C097FB33
S1131BB00EF4F3DFB62F672F782F892F9EE90024C8
S1131BC027C00ED05EF004C00BD026F001C008D0B0
S1131BD019F020F48FEF089580E0089581E00895CE
S1131BE097FB092E052600F8689430D0E89407FC8A
S1131BF007C0621773078407950721F008F400945F
S1131C000794989408959A95BB0F661F771F881FB1
S1131C1011249923A1F08823B2F79F3F59F0BB0FF9
S1131C2048F421F4002011F460FF04C06F5F7F4F7B
S1131C308F4F9F4F881F9795879597F908952CC0CC
S1131C409FEF80EC0895052E092607FA440F551FCF
S1131C505F3F79F0AA27A51708F051E04795880F50
S1131C60991F9F3F31F0BB27B91708F091E0879582
S1131C7008959F919F911124E3CF97FB880F991F9B
S1131C809F3F31F0BB27B91708F091E0879508957D
S1131C909F919F911124D4CF66277727882799276E
S1131CA00895D1DF01D0B4CF992339F0552329F019
S1131CB09F575F57950F13F49AF1F1CF91589F3FB7
S1131CC0E1F3629FA12D0F92BB27639FA00DB11D6D
S1131CD0EE27729FA00DB11DEE1FAF93AA27649F3C
S1131CE0B00DE11D739FB00DE11DAA1F6627829FF1
S1131CF0B00DE11DA61F5527749FE00DA11D551FB2
S1131D00839FE00DA11D561F849FA00D511D852F9B
S1131D107A2F6E2F1F900F9088231AF4939539F41D
S1131D208FCF000C111CBB1F661F771F881F012853
S1131D300895991B79E004C0991F961708F0961B23
S1131D40881F7A95C9F78095089597FB092E072671
S1131D500AD077FD04D00CD006D000201AF4709578
S1131D6061957F4F0895F6F7909581959F4F08955B
S1131D70AA1BBB1B51E107C0AA1FBB1FA617B707AD
S1131D8010F0A61BB70B881F991F5A95A9F78095C9
S10D1D909095BC01CD010895FFCF2A
S1131D9A50726573732052696768742F546F7000A8
S1131DAA43414C4942524154494F4E20444F4E45B7
S1131DBA0030303030303030303030013200800082
S1071DCA5703200394
S9030000FC
