S01A00006275696C642F626967415652362F6D61696E2E73726563A6
S11300000C9439010C9458010C9458010C94580127
S11300100C9458010C9458010C9458010C945801F8
S11300200C9458010C9458010C9458010C945801E8
S11300300C9458010C9458010C9458010C944703E7
S11300400C9436030C9458010C9458010C945801E8
S11300500C9458010C94E4020C9458010C9458012B
S11300600C9458010C9458010C9458010C945801A8
S11300700C9458010C9458010C9458010C94580198
S11300800C9458010C9458010C94580100081C1845
S11300901410000000000000005F000000070007CB
S11300A000147F147F14242A7F2A12231308646205
S11300B036495522500005030000001C224100006F
S11300C041221C00082A1C2A0808083E080800507F
S11300D030000008080808080060600000201008CC
S11300E004023E5149453E00427F4000426151496D
S11300F0462141454B311814127F10274545453997
S11301003C4A4949300171090503364949493606D3
S11301104949291E00363600000056360000000802
S1130120142241141414141441221408000201511D
S11301300906324979413E7E1111117E7F494949B0
S1130140363E414141227F4141221C7F4949494178
S11301507F090901013E414151327F0808087F00AF
S1130160417F41002040413F017F081422417F40EC
S11301704040407F0204027F7F0408107F3E4141DB
S1130180413E7F090909063E4151215E7F09192933
S113019046464949493101017F01013F4040403F02
S11301A01F2040201F7F2018207F6314081463033E
S11301B004780403615149454300007F414102042E
S11301C008102041417F0000040201020440404025
S11301D04040000102040020545454787F484444B1
S11301E0383844444420384444487F3854545418DC
S11301F0087E090102081454543C7F080404780062
S1130200447D40002040443D00007F1028440041CC
S11302107F40007C041804787C0804047838444443
S113022044387C14141408081414187C7C0804043E
S1130230084854545420043F4440203C4040207C0F
S11302401C2040201C3C4030403C44281028440CD6
S11302505050503C4464544C440008364100000063
S11302607F0000004136080008082A1C08081C2AE0
S1130270080811241FBECFEFD0E1DEBFCDBF11E0CF
S1130280A0E0B1E0ECEDF4E100E00BBF02C00790A8
S11302900D92A231B107D9F711E0A2E1B1E001C09A
S11302A01D92A635B107E1F70E9412080C946D0A5D
S11302B00C9400008FB7F894992708958FBF089580
S11302C07FB7F89462B720914E0130914F0140916D
S11302D050015091510106B601FE0FC081B792B78B
S11302E0280F311D411D511D2F5F3F4F4F4F5F4F51
S11302F0290F311D411D511D04C0260F311D411D03
S1130300511D872F99278FBFCA01B9010895282F3E
S11303109FB7F894E82FFF27E35EFE4F80818F3F5D
S113032081F4E0915501E21771F40BC020934A0166
S113033004C0FF27E35EFE4F20832093550120E095
S113034007C025E005C080914A018F3F91F7EECFA9
S1130350892F99278FBF822F99270895DF92EF92D3
S1130360FF920F931F938FB7F894282F3327D22E21
S113037091B782B746B7981711F041FF02C02FBF5B
S11303806AC0809152018823E1F10E946001E090EB
S11303903201F09033010091340110913501209124
S11303A02701309128014091290150912A016E19A9
S11303B07F09800B910B621773078407950720F060
S11303C01092520171E01EC02E0D3F1D401F511F9F
S11303D080914E0190914F01A0915001B091510133
S11303E0281B390B4A0B5B0B273E31054105510590
S11303F040F4822F223010F070E005C070E082E0FB
S113040002C070E086EE682F615000B601FCFDCF9B
S113041082B7681709F46F5F20914E0130914F0144
S11304204091500150915101DA01C9010196A11D79
S1130430B11D860F911DA11DB11D82179307A4073D
S1130440B50710F4622F609561BFDFBE772319F002
S113045088E00E9487011F910F91FF90EF90DF9039
S11304600895AFB7F894BB27E1E0E093520160939D
S113047032017093330180933401909335012093BA
S11304802701309328014093290150932A01AFBFDB
S11304900E94AE0108959C0180911001882319F4F3
S11304A081E090E00895109210016093430140931D
S11304B01B01309331012093300184E00E948701B5
S11304C081E08093100180E090E00895582F722F0E
S11304D087B1A82FAF71262F3327829586958695ED
S11304E0837099272817390719F080E090E013C02A
S11304F0852F8850863118F081E090E00CC0E0E050
S1130500F0E0252F33278A2F99272817390711F46C
S1130510E1E0F0E0CF018170880F20912C01217877
S1130520352F3F71932F990F990F282B292B209347
S11305302C0141704295440F407E40726295660FD3
S1130540660F607C432B462B842F992787B9422F53
S11305504170783061F580914B0190914C0121E01C
S11305608638920718F027E030E020C0833C9105DC
S113057018F026E030E01AC08136910518F025E025
S113058030E014C08033910518F024E030E00EC050
S11305908831910518F023E030E008C08C309105D3
S11305A018F022E030E002C020E030E0722F7770D3
S11305B0887F872B88614295440F407E8F7D842BF2
S11305C0806C992786B908951F920F920FB60F92E7
S11305D011242F933F934F935F938F939F9344B131
S11305E055B178948FB7F894992720912C012170F4
S11305F08FBF222351F433988FB7F89499275093DF
S11306005401409353018FBF26C08FB7F8949927A4
S11306108FBF2FB7F894332786B1582F5770482FC0
S11306204072987D942B952B8074977B982B9061C6
S11306309F77892F992786B9887D842B852B87738B
S11306408061992786B9887D842B852B877B806977
S1130650992786B92FBF9F918F915F914F913F91B9
S11306602F910F900FBE0F901F9018951F920F920D
S11306700FB60F9211248F9383B783BF00B600FC8B
S1130680FDCF8F910F900FBE0F901F9018951F9262
S11306900F920FB60F9211242F933F934F935F93B2
S11306A06F937F938F939F93AF93BF93EF93FF9336
S11306B0809117018A3F21F583B783BF00B600FC00
S11306C0FDCF81B799270196AA27BB2720914E0118
S11306D030914F014091500150915101280F391F21
S11306E04A1F5B1F20934E0130934F0140935001EA
S11306F05093510178940E94AE011092170103C0E7
S11307008F5F80931701FF91EF91BF91AF919F91FC
S11307108F917F916F915F914F913F912F910F90A6
S11307200FBE0F901F9018950F931F93182F062F2D
S113073081E00E948701112329F483B18F7C83B95E
S11307401E9A04C01D9883B1806583B98FEF8ABB5C
S11307500BBB0000000000000000000000000000CF
S113076000001E981F910F9108951F93162F803437
S113077018F41B9A1A9802C01A9A1B988F738064F3
S1130780682F80E00E9494031F73186B612F80E030
S11307900E9494031F910895DF92EF92FF920F93AA
S11307A01F93D82E062FE62EE694E694E6946E2D3B
S11307B00E94B503FF2481E00E94870183B1806613
S11307C083B91C9A1ABA000000000000000000005F
S11307D000000000000019B383B18F7983B98FEF53
S11307E08ABBF39482E0F81631F76E2D8D2D0E94AA
S11307F0B503077081E090E002C0880F991F0A9545
S1130800E2F7182B612F81E00E9494031F910F914E
S1130810FF90EF90DF900895EF92FF920F931F9354
S1130820E0913E01E1FF2EC0209136013091370165
S11308304091380150913901E0903A01F0903B0128
S113084000913C0110913D01621B730B840B950BCD
S11308506E157F0580079107A8F0E0FF04C0ED7FC7
S1130860E0933E010CC02E0D3F1D401F511F2093ED
S1130870360130933701409338015093390180E0B9
S11308800E94870189E00E9487011F910F91FF90C8
S1130890EF9008955F926F927F928F929F92AF92A2
S11308A0BF92CF92DF92EF92FF920F931F93CF9359
S11308B0DF93CDB7DEB72B970FB6F894DEBF0FBE2C
S11308C0CDBF843001F1853058F4813009F4B9C0CA
S11308D08130F0F08230C9F0833009F070C3FCC07D
S11308E0873009F4E2C2883038F4853009F4B8C19D
S11308F0863009F064C3D2C1883009F4E2C2893079
S113090009F05DC311C3FF249FC1EE24FF24BEC0C0
S11309101982DE011296E0E0F1E088E001900D9288
S11309208150E1F71B861A861FB7F8942091530172
S113093030915401C9016AE070E00E94590A898328
S11309408981805D8D838981281B3109C9016AE011
S113095070E00E94590A9B01CB016AE070E00E949A
S1130960590A89838981805D8C838981281B310997
S1130970C9016AE070E00E94590A9B01CB016AE058
S113098070E00E94590A89838981805D8B83898103
S1130990281B3109C9016AE070E00E94590ACB01A1
S11309A070935401609353016AE070E00E94590A05
S11309B089838981805D8A831E82809112019E01D0
S11309C02E5F3F4F8823E9F080916500806180931A
S11309D0650080916500877F8093650044E16DE246
S11309E0C9010E944B0280912C018E7F80932C01BF
S11309F025E040E061E081E00E946602109212016D
S1130A001DC08091650088608093650080916500B9
S1130A108F7E809365004EE16DE2C9010E944B0216
S1130A2080912C018E7F80932C0125E040E061E0D1
S1130A3080E00E94660281E080931201812F992751
S1130A403EC21ABA1D9A1C981E9A06C01E9800002F
S1130A5000001E9A00000000CF99F8CF1E981D9A3E
S1130A608FEF8ABBACC260911901610F8091410183
S1130A700E94CC0380911901180F8091410190913B
S1130A802F01890F612F81500E94CC031E2D0894E1
S1130A90E11CF11C80913F01181728F3EE24FF2478
S1130AA012C08091410160911901810F0E94CC0311
S1130AB06091190180913F01680F6150809141015B
S1130AC0810F0E94CC031E2D0894E11CF11C80911F
S1130AD02F01181730F373C2B0901A0180914201AC
S1130AE0B81A80914D01C82EDD24C601880F991FC4
S1130AF033E0E32EF12CE81AF90A882499246624B9
S1130B00772460C060911A016C0D80914201880DB8
S1130B100E94CC0360911A016C1980914201880DE6
S1130B200E94CC0360911A016C0D809142018819D6
S1130B300E94CC0360911A016C19809142018819BA
S1130B400E94CC0380911A01682F680D8C0D8B19BB
S1130B500E94CC0380911A01682F68198C0D8B199F
S1130B600E94CC0380911A01682F680D8C198B198F
S1130B700E94CC0380911A01682F68198C198B1973
S1130B800E94CC03F7FE07C026E030E0E20EF31E1D
S1130B90E60CF71C10C0C4018C199D09880F991F1D
S1130BA0880F991F4AE050E0E40EF51EE80EF91E86
S1130BB00894C108D1080894811C911C84E090E039
S1130BC0680E791EC814D9040CF09CCFF8C100E05B
S1130BD010E060911B016695669566958F2D800FD8
S1130BE090914301890F0E94B503E0913001F09187
S1130BF03101E08185E0E802F0011124E00FF11FEA
S1130C00EE50F040C895E02D6E2F81E00E949403D1
S1130C100F5F1F4F05301105E1F695E0F90E809145
S1130C20430160911B018F0D0E94B50360E081E0D8
S1130C300E949403F39480913001909131010196C4
S1130C409093310180933001E0913001F0913101B2
S1130C508081882309F0BBCF81E080931001AFC16C
S1130C60109240011092140180E0609140010E94B2
S1130C70B5036091130181E00E94940380911401F3
S1130C808F5F8093140187FFF0CF809140018F5FC5
S1130C9080934001883008F092C1E4CF609018013D
S1130CA070901C01761408F5662D77276719710971
S1130CB0882777FD8095982F0E94B9097B018C01C4
S1130CC060912E01772720914401621B71098827C6
S1130CD077FD8095982F0E94B9099B01AC01C8014A
S1130CE0B7010E9456095B016C01671418F092E089
S1130CF0592E3BC0672D772766197109882777FD20
S1130D008095982F0E94B9094B015C0110912E0126
S1130D10612F772767FD7095872F972F0E94B90958
S1130D206B017C0117FF08C020E030E040E853E489
S1130D300E9414096B017C01609144017727882784
S1130D4077FD8095982F0E94B9099B01AC01C701DA
S1130D50B6010E9413099B01AC01C501B4010E94B4
S1130D6056095B016C0181E0582E671459F455242F
S1130D700F2EF0E0AF2EF0E0BF2EF0E0CF2EF0E02B
S1130D80DF2EF02D9091440180912E01981719F0D7
S1130D90662477247BC000E010E005C0640F8091D6
S1130DA044010E94CC03402F60911C010F5F1F4F30
S1130DB0242F3327809118019927861B910928171E
S1130DC0390764F3FCC021E0521641F560911C011F
S1130DD07727882777FD8095982F0E94B9097B0192
S1130DE08C01692D772767FD7095872F972F0E94B7
S1130DF0B90967FE06C020E030E040E853E40E94F1
S1130E0014099B01AC01C601B5010E94110A9B01A2
S1130E10AC01C801B7010E9413092AC032E053167D
S1130E2051F560911C017727882777FD8095982FCD
S1130E300E94B9097B018C01692D772767FD7095A4
S1130E40872F972F0E94B90967FE06C020E030E083
S1130E5040E853E40E9414099B01AC01C601B501AA
S1130E600E94110A9B01AC01C801B7010E94140938
S1130E700E949C0904C0552031F460911C01882D06
S1130E80890D0E94CC030894611C711C962C8090DF
S1130E904401262D332780912E0199278819910921
S1130EA0821793070CF08FCF8AC08FB7F8949927D5
S1130EB0209145012093160123E0209315018FBF53
S1130EC07EC080912B01882361F5209146013091E9
S1130ED047014091480150914901EFB7F894FF2729
S1130EE06091320170913301809134019091350108
S1130EF0E0902701F09028010091290110912A0126
S1130F006E0D7F1D801F911FEFBF2093460130930C
S1130F104701409348015093490110922B010E94CC
S1130F2031020E94600139C00E9460017B018C0182
S1130F308FB7F8949927109252018FBF80913E0188
S1130F4081FF3DC08091360190913701A091380115
S1130F50B0913901A8019701281B390B4A0B5B0B8F
S1130F60DA01C90120913A0130913B0140913C01E1
S1130F7050913D01281B390B4A0B5B0B2F3F8FEF20
S1130F8038078FEF48078FE75807C9F01216130682
S1130F90140615062CF0C801B7010E940C040FC0FA
S1130FA020934601309347014093480150934901EF
S1130FB081E080932B01C801B7010E9431022B9676
S1130FC00FB6F894DEBF0FBECDBFDF91CF911F9156
S1130FD00F91FF90EF90DF90CF90BF90AF909F90D4
S1130FE08F907F906F905F90089580914A018F3F1A
S1130FF0B1F0282F3327F901E35EFE4F80818093FF
S11310004A018F3F11F4809355018FEF80832F3F66
S113101031F0822F0E944A0481E090E0089580E03C
S113102090E00895CDEFD0E1DEBFCDBF1FB7F894B7
S11310304AE050E06FEF70E08DE191E00E940C090E
S11310408FEF80934A018093550181E08EBD83E048
S113105083BF4CB55DB58AE78A8309C02CB53DB51D
S11310602417350718F48A8181508A83A9018A815B
S11310708823A1F782B7898392B789819817E1F30E
S11310802CB53DB582B7898392B789819817E1F36E
S11310908CB59DB5821B930B409655E0969587952C
S11310A05A95E1F790934C0180934B0113BE83B79B
S11310B08EBD8EB580BF12BE1DBC1CBC8FEF86BF1B
S11310C086B780937C0080B7992787709070892BAE
S11310D0D1F715BA8FEF84BB16B880E285BF0E94A2
S11310E0F5078823E1F780B7887080BF8BE083BF62
S11310F086EE81BF87B7826087BF0E94AE010E94DF
S1131100F5078823E1F7812F99278FBF7894809181
S113111064008861809364001092650082B18C6FD2
S113112082B98FEF8ABB83B1837083B91BBA1F9ACC
S11311306FE380E00E9494031092130185E00E9403
S113114087010E9460016093360170933701809398
S113115038019093390184E690E0A0E0B0E08093F8
S11311603A0190933B01A0933C01B0933D018091DF
S11311703E018E7F826080933E0189E00E94870158
S113118044E164E18AE091E00E944B028823C1F7C4
S11311904EE164E18DE091E00E944B028823C1F7A7
S11311A08FB7F894482F55277FEFECE8F0E0C89507
S11311B0602D1AC087B7992783709070892B61F0CE
S11311C080B7992787709070892BD1F781B792B730
S11311D0891B8C3008F082B785B7837E8062862BAA
S11311E085BF78948895F89480914A018F3F11F3D4
S11311F0282F3327F901E35EFE4F908190934A0133
S11312009F3F11F49093550170832F3F99F24FBF84
S1131210822F0E944A04C4CFDC0101C06D93415067
S11312205040E0F708955058192ECDD001D0B0C0E9
S1131230BA176207730784079507B1F188F40EF4AF
S113124010940B2EBA2FA02D062E622F202D072EC0
S1131250732F302D082E842F402D092E952F502DBD
S1131260FF275523B9F0591B49F0573E98F046958E
S113127037952795A795F0405395C9F776F0BA0F9F
S1131280621F731F841F30F4879577956795B79510
S1131290F040939517FA0F2E0895BF1BBB27BA0B86
S11312A0620B730B840BF6CFDEF6B9C08CD001D081
S11312B06FC0552359F0992369F09F575F57951BC9
S11312C033F442F4903811F4915805C079C0915820
S11312D09F3F09F4A4C0BB27112462177307840736
S11312E030F4660F771F881FBB1F915098F311D0FD
S11312F00F920FD00F920DD0A0E82617370748079A
S11313001B0609F0A048BA2F602D7F918F9100240D
S11313100895A0E80024621773078407B10528F034
S1131320621B730B840BB1090A2A660F771F881F8F
S1131330BB1FA69581F7089597FB51D09F3738F0CE
S1131340FEE9F91B982F872F762F6B2F05C064C0F9
S11313509695879577956795F150D0F73EF49095DB
S11313608095709561957F4F8F4F9F4F0895E894B6
S113137003C097FB0EF4F3DFB62F672F782F892F66
S11313809EE9002405C09A95BB0F661F771F881F2E
S113139011249923A1F08823B2F79F3F59F0BB0F82
S11313A048F421F4002011F460FF04C06F5F7F4F04
S11313B08F4F9F4F881F9795879597F908952CC055
S11313C09FEF80EC0895052E092607FA440F551F58
S11313D05F3F79F0AA27A51708F051E04795880FD9
S11313E0991F9F3F31F0BB27B91708F091E087950B
S11313F008959F919F911124E3CF97FB880F991F24
S11314009F3F31F0BB27B91708F091E08795089505
S11314109F919F911124D4CF6627772788279927F6
S11314200895D1DF01D0B4CF992339F0552329F0A1
S11314309F575F57950F13F49AF1F1CF91589F3F3F
S1131440E1F3629FA12D0F92BB27639FA00DB11DF5
S1131450EE27729FA00DB11DEE1FAF93AA27649FC4
S1131460B00DE11D739FB00DE11DAA1F6627829F79
S1131470B00DE11DA61F5527749FE00DA11D551F3A
S1131480839FE00DA11D561F849FA00D511D852F24
S11314907A2F6E2F1F900F9088231AF4939539F4A6
S11314A08FCF000C111CBB1F661F771F881F0128DC
S11314B00895AA1BBB1B51E107C0AA1FBB1FA61797
S11314C0B70710F0A61BB70B881F991F5A95A9F7E9
S10F14D080959095BC01CD010895FFCFDC
S11314DC32313331323331000000583A00593A007A
S10514EC0100F9
S9030000FC
