:100000000C9439010C9458010C9458010C9458012B
:100010000C9458010C9458010C9458010C945801FC
:100020000C9458010C9458010C9458010C945801EC
:100030000C9458010C9458010C9458010C94C10371
:100040000C943D030C9458010C9458010C945801E5
:100050000C9458010C944E030C9458010C945801C4
:100060000C9458010C9458010C9458010C945801AC
:100070000C9458010C9458010C9458010C9458019C
:100080000C9458010C9458010C94580100081C1849
:100090001410000000000000005F000000070007CF
:1000A00000147F147F14242A7F2A12231308646209
:1000B00036495522500005030000001C2241000073
:1000C00041221C00082A1C2A0808083E0808005083
:1000D00030000008080808080060600000201008D0
:1000E00004023E5149453E00427F40004261514971
:1000F000462141454B311814127F1027454545399B
:100100003C4A4949300171090503364949493606D7
:100110004949291E00363600000056360000000806
:100120001422411414141414412214080002015121
:100130000906324979413E7E1111117E7F494949B4
:10014000363E414141227F4141221C7F494949417C
:100150007F090901013E414151327F0808087F00B3
:10016000417F41002040413F017F081422417F40F0
:100170004040407F0204027F7F0408107F3E4141DF
:10018000413E7F090909063E4151215E7F09192937
:1001900046464949493101017F01013F4040403F06
:1001A0001F2040201F7F2018207F63140814630342
:1001B00004780403615149454300007F4141020432
:1001C00008102041417F0000040201020440404029
:1001D0004040000102040020545454787F484444B5
:1001E000383844444420384444487F3854545418E0
:1001F000087E090102081454543C7F080404780066
:10020000447D40002040443D00007F1028440041D0
:100210007F40007C041804787C0804047838444447
:1002200044387C14141408081414187C7C08040442
:10023000084854545420043F4440203C4040207C13
:100240001C2040201C3C4030403C44281028440CDA
:100250005050503C4464544C440008364100000067
:100260007F0000004136080008082A1C08081C2AE4
:10027000080811241FBECFEFD0E1DEBFCDBF11E0D3
:10028000A0E0B1E0E2E3F7E100E00BBF02C00790BD
:100290000D92A231B107D9F711E0A2E1B1E001C09E
:1002A0001D92AE35B107E1F70E944C090C94980BF2
:1002B0000C9400008FB7F894992708958FBF089584
:1002C000982F969596959695EAE3F1E0E90FF11D42
:1002D000877021E030E002C0220F331F8A95E2F7D9
:1002E0008081822399270895282F9FB7F894E82FBB
:1002F000FF27E15EFE4F80818F3F81F4E0915D0139
:10030000E21771F40BC02093510104C0FF27E15E96
:10031000FE4F208320935D0120E007C025E005C04B
:10032000809151018F3F91F7EECF892F99278FBF91
:10033000822F992708959C0180911001882319F438
:1003400081E090E008951092100160934A0140937B
:100350001D01309334012093330184E00E94740125
:1003600081E08093100180E090E008958091550134
:10037000882321F02FE1F0E0E0E00BC0F7E0E1E0BE
:1003800090E0809117018150823008F491E0292F8C
:100390002E27622FAFB7F89480912F018E7F809324
:1003A0002F0187B1782F7F712E2F33278295869565
:1003B0008695837099272817390719F080E090E017
:1003C00013C0862F8850863118F081E090E00CC071
:1003D00040E050E0262F3327872F99272817390729
:1003E00011F441E050E0CA01982F9170990F80916B
:1003F0002F018178262F2F71422F440F440F892B14
:10040000842B80932F01E295EE0FEE0FE07C2E2BD4
:10041000332727B9F83059F5809152019091530153
:1004200021E08638920718F087E090E01FC0833CF7
:10043000910518F086E090E019C08136910518F01A
:1004400085E090E013C08033910518F084E090E0DF
:100450000DC08831910518F083E090E007C00C973B
:1004600018F082E090E002C080E090E0F82FF77092
:10047000887D8F2B886D992786B98A2F99278FBF02
:1004800008957FB7F89462B72091560130915701D3
:10049000409158015091590106B601FE0FC081B735
:1004A00092B7280F311D411D511D2F5F3F4F4F4FF8
:1004B0005F4F290F311D411D511D04C0260F311DF5
:1004C000411D511D872F99278FBFCA01B90108957A
:1004D000DF92EF92FF920F931F938FB7F894282F1C
:1004E0003327D22E91B782B746B7981711F041FF44
:1004F00002C02FBF6AC080915C018823E1F10E9495
:100500004102E0903601F0903701009138011091DE
:10051000390120912A0130912B0140912C015091F9
:100520002D016E197F09800B910B621773078407E9
:10053000950720F010925C0171E01EC02E0D3F1D4A
:10054000401F511F8091560190915701A091580171
:10055000B0915901281B390B4A0B5B0B273E310523
:100560004105510540F4822F223010F070E005C0A3
:1005700070E082E002C070E086EE682F615000B645
:1005800001FCFDCF82B7681709F46F5F2091560117
:10059000309157014091580150915901DA01C90138
:1005A0000196A11DB11D860F911DA11DB11D8217C0
:1005B0009307A407B50710F4622F609561BFDFBEF3
:1005C000772319F087E00E9474011F910F91FF902B
:1005D000EF90DF900895AFB7F894BB27E1E0E09388
:1005E0005C016093360170933701809338019093DA
:1005F000390120932A0130932B0140932C01509311
:100600002D01AFBF0E94680208950F931F93182F0A
:10061000062F81E00E947401112329F483B18F7C9D
:1006200083B91E9A04C01D9883B1806583B98FEF8A
:100630008ABB0BBB000000000000000000000000AF
:10064000000000001E981F910F9108951F93162F10
:10065000803418F41B9A1A9802C01A9A1B988F7348
:100660008064682F80E00E9405031F73186B612F60
:1006700080E00E9405031F9108951F920F920FB60C
:100680000F9211248F9383B783BF00B600FCFDCF78
:100690008F910F900FBE0F901F9018951F920F9281
:1006A0000FB60F9211242F933F934F935F936F9345
:1006B0007F938F939F93AF93BF93EF93FF9344B137
:1006C00055B178948FB7F894992720912F01322F44
:1006D0003695317021708FBF2223E1F433988091D9
:1006E0003501813021F0823009F03AC00AC033234D
:1006F00051F050934701409346018AE00E947401F3
:100700002FC0332319F40E94B6012AC081E08093E0
:10071000350126C08FB7F89499278FBF2FB7F8946B
:10072000332786B1582F5770482F4072987D942BED
:10073000952B8074977B982B90619F77892F9927B1
:1007400086B9887D842B852B87738061992786B92C
:10075000887D842B852B877B8069992786B92FBF5D
:10076000FF91EF91BF91AF919F918F917F916F9189
:100770005F914F913F912F910F900FBE0F901F905F
:1007800018951F920F920FB60F9211242F933F933B
:100790004F935F936F937F938F939F93AF93BF9389
:1007A000EF93FF93809116018A3F21F583B783BFB2
:1007B00000B600FCFDCF81B799270196AA27BB2779
:1007C00020915601309157014091580150915901A3
:1007D000280F391F4A1F5B1F209356013093570182
:1007E000409358015093590178940E9468021092E6
:1007F000160103C08F5F80931601FF91EF91BF91A7
:10080000AF919F918F917F916F915F914F913F91A8
:100810002F910F900FBE0F901F901895DF92EF92BF
:10082000FF920F931F93D82E062FE62EE694E694A0
:10083000E6946E2D0E942603FF2481E00E9474013D
:1008400083B1806683B91C9A1ABA000000000000C8
:100850000000000000000000000019B383B18F7990
:1008600083B98FEF8ABBF39482E0F81631F76E2DCF
:100870008D2D0E942603077081E090E002C0880F52
:10088000991F0A95E2F7182B612F81E00E9405035A
:100890001F910F91FF90EF90DF9008951F93182FF5
:1008A0009091110180911901882361F481E0809376
:1008B000190110934C01379A913011F589E00E948B
:1008C00074011EC080914C018117D1F0812F0E94CC
:1008D0006001882319F085E090E014C0E12FE695CF
:1008E000E695E695FF27E65CFE4F177081E090E005
:1008F00002C0880F991F1A95E2F72081282B2083C8
:1009000080E090E01F910895EF92FF920F931F9364
:10091000E0914301E1FF44C020913B0130913C0153
:1009200040913D0150913E01E0903F01F090400127
:100930000091410110914201621B730B840B950BD6
:100940006E157F058007910758F1E0FF04C0ED7F29
:10095000E09343010CC02E0D3F1D401F511F2093FB
:100960003B0130933C0140933D0150933E01809107
:100970006400886180936400809165008860809342
:100980006500809165008F7E809365000FB7F894B5
:10099000112781E08093170180E00E944E040FBF71
:1009A00088E00E9474011F910F91FF90EF900895CD
:1009B0005F926F927F928F929F92AF92BF92CF92EF
:1009C000DF92EF92FF920F931F93CF93DF93CDB7F8
:1009D000DEB721970FB6F894DEBF0FBECDBF8530CE
:1009E00009F469C1863088F4823021F1833030F413
:1009F000882319F1813009F01CC44EC0833009F4FA
:100A000096C0843009F015C413C0883009F4ABC215
:100A1000893038F4863009F46CC1873009F009C494
:100A20006FC2893009F4ECC28A3009F002C400C3F5
:100A3000FF2435C1EE24FF2454C01FB7F8948091E1
:100A40001301813099F4809112018F5F809312011C
:100A500080911201823009F0DBC344E16DE286E04F
:100A600091E00E949B011092130113C0809112012A
:100A70008F5F8093120180911201823009F0C8C308
:100A80004EE16DE286E091E00E949B0181E080935F
:100A9000130110921201BCC31ABA1D9A1C981E9A17
:100AA00006C01E98000000001E9A00000000CF99AA
:100AB000F8CF1E981D9A8FEF8ABBBBC360911B01B4
:100AC000610F809148010E940E0480911B01180F54
:100AD0008091480190913201890F612F81500E94CD
:100AE0000E041E2D0894E11CF11C8091440118177E
:100AF00028F3EE24FF2412C08091480160911B016D
:100B0000810F0E940E0460911B0180914401680FC7
:100B1000615080914801810F0E940E041E2D08949F
:100B2000E11CF11C80913201181730F382C3B090A0
:100B30001C0180914901B81A80915401C82EDD240E
:100B4000C601880F991F33E0E32EF12CE81AF90A49
:100B5000882499246624772460C060911C016C0D60
:100B600080914901880D0E940E0460911C016C194E
:100B700080914901880D0E940E0460911C016C0D4A
:100B80008091490188190E940E0460911C016C1922
:100B90008091490188190E940E0480911C01682FE0
:100BA000680D8C0D8B190E940E0480911C01682F1A
:100BB00068198C0D8B190E940E0480911C01682FFE
:100BC000680D8C198B190E940E0480911C01682FEE
:100BD00068198C198B190E940E04F7FE07C026E0D5
:100BE00030E0E20EF31EE60CF71C10C0C4018C19B5
:100BF0009D09880F991F880F991F4AE050E0E40E65
:100C0000F51EE80EF91E0894C108D1080894811C4D
:100C1000911C84E090E0680E791EC814D9040CF091
:100C20009CCF07C300E010E060911D0166956695BA
:100C300066958F2D800F90914A01890F0E9426039F
:100C4000E0913301F0913401E08185E0E802F001A8
:100C50001124E00FF11FEE50F040C895E02D6E2FEB
:100C600081E00E9405030F5F1F4F05301105E1F67B
:100C700095E0F90E80914A0160911D018F0D0E944F
:100C8000260360E081E00E940503F3948091330124
:100C90009091340101969093340180933301E09157
:100CA0003301F09134018081882309F0BBCF81E0CA
:100CB00080931001BEC2109245011092150180E090
:100CC000609145010E9426036091140181E00E9419
:100CD0000503809115018F5F8093150187FFF0CF89
:100CE000809145018F5F80934501883008F0A1C253
:100CF000E4CF60901A0170901E01761408F5662DFD
:100D0000772767197109882777FD8095982F0E94AA
:100D1000E40A7B018C0160913101772720914B011E
:100D2000621B7109882777FD8095982F0E94E40A3D
:100D30009B01AC01C801B7010E94810A5B016C01F3
:100D4000671418F092E0592E3BC0672D772766197B
:100D50007109882777FD8095982F0E94E40A4B013E
:100D60005C0110913101612F772767FD7095872F06
:100D7000972F0E94E40A6B017C0117FF08C020E056
:100D800030E040E853E40E943F0A6B017C0160912F
:100D90004B017727882777FD8095982F0E94E40ADA
:100DA0009B01AC01C701B6010E943E0A9B01AC0148
:100DB000C501B4010E94810A5B016C0181E0582EDB
:100DC000671459F455240F2EF0E0AF2EF0E0BF2E3B
:100DD000F0E0CF2EF0E0DF2EF02D90914B018091CE
:100DE0003101981719F0662477247BC000E010E0E9
:100DF00005C0640F80914B010E940E04402F60914A
:100E00001E010F5F1F4F242F332780911A0199274E
:100E1000861B91092817390764F30BC221E052168B
:100E200041F560911E017727882777FD8095982FDF
:100E30000E94E40A7B018C01692D772767FD70957C
:100E4000872F972F0E94E40A67FE06C020E030E05B
:100E500040E853E40E943F0A9B01AC01C601B50182
:100E60000E943C0B9B01AC01C801B7010E943E0AE5
:100E70002AC032E0531651F560911E01772788276A
:100E800077FD8095982F0E94E40A7B018C01692DE3
:100E9000772767FD7095872F972F0E94E40A67FEDA
:100EA00006C020E030E040E853E40E943F0A9B0186
:100EB000AC01C601B5010E943C0B9B01AC01C8010D
:100EC000B7010E943F0A0E94C70A04C0552031F4AE
:100ED00060911E01882D890D0E940E040894611CEA
:100EE000711C962C80904B01262D33278091310167
:100EF000992788199109821793070CF08FCF99C110
:100F000080912E01882361F520914D0130914E0191
:100F100040914F0150915001EFB7F894FF27609135
:100F20003601709137018091380190913901E0903C
:100F30002A01F0902B0100912C0110912D016E0DD2
:100F40007F1D801F911FEFBF20934D0130934E01F5
:100F500040934F015093500110922E010E94EB02DA
:100F60000E9441023AC00E9441027B018C018FB76E
:100F7000F894992710925C018FBF8091430181FF03
:100F800058C180913B0190913C01A0913D01B091ED
:100F90003E01A8019701281B390B4A0B5B0BDA01B4
:100FA000C90120913F013091400140914101509190
:100FB0004201281B390B4A0B5B0B2F3F8FEF380781
:100FC0008FEF48078FE7580709F433C1121613064D
:100FD000140615062CF0C801B7010E94840429C12B
:100FE00020934D0130934E0140934F015093500197
:100FF00081E080932E01C801B7010E94EB0219C164
:101000002FB7F894332780914C018093110183E02E
:10101000809319012FBF80911101882309F009C124
:1010200081E080933501109255010E94B60101C103
:1010300081E080933501A0904601B09047018091F6
:101040005501882309F0F5C08FB7F894C82E809118
:101050001901833009F041C0809111018823E9F51D
:1010600080913A01882309F0DEC0D6C0ED2DE695C7
:10107000E695E695FF274D2D5527E65CFE4F9A0134
:101080002770307081E090E002C0880F991F2A9588
:10109000E2F780952081282320830093180112C055
:1010A0000F5F1F4F0130110511F400E010E0D02E4A
:1010B000802F0E9460018823C9F60E151F0581F755
:1010C0004FEF50E040934C018FEF8093110181E08E
:1010D0008093190189E00E947401CFBE1FB7F89474
:1010E000809117018230C1F0833020F4813009F003
:1010F0008FC006C0833029F1843009F089C02FC029
:1011000082E080931701809165008860809365007C
:10111000809165008F7E0FC083E080931701B092AD
:101120005B01A0925A018091650080618093650007
:1011300080916500877F8093650080E00E944E0467
:1011400067C0809165008061809365008091650033
:10115000877F8093650084E080931701EECF209114
:101160005A0130915B011982C9016AE070E00E9466
:10117000840B89838981805D809309018981281B83
:101180003109C9016AE070E00E94840B9B01CB0128
:101190006AE070E00E94840B89838981805D80937E
:1011A00008018981281B3109C9016AE070E00E94A9
:1011B000840B9B01CB016AE070E00E94840B898361
:1011C0008981805D809307018981281B3109C901CC
:1011D0006AE070E00E94840BCB016AE070E00E943C
:1011E000840B89838981805D8093060110920A01B6
:1011F00044E16DE286E091E00E949B0180916400F1
:10120000877E8093640080916500877E809365006F
:10121000812F99278FBF0DC081E08093110110921B
:10122000190137985ACF80911801E82EFF248701C1
:1012300037CF21960FB6F894DEBF0FBECDBFDF913A
:10124000CF911F910F91FF90EF90DF90CF90BF90C3
:10125000AF909F908F907F906F905F900895809156
:1012600051018F3FB1F0282F3327F901E15EFE4F86
:101270008081809351018F3F11F480935D018FEF46
:1012800080832F3F31F0822F0E94D80481E090E0CC
:10129000089580E090E00895CDEFD0E1DEBFCDBFAE
:1012A0001FB7F8944BE050E06FEF70E08FE191E0F2
:1012B0000E94370A8FEF8093510180935D0181E096
:1012C0008EBD83E083BF4CB55DB58AE78A8309C0D4
:1012D0002CB53DB52417350718F48A8181508A83CF
:1012E000A9018A818823A1F782B7898392B789816E
:1012F0009817E1F32CB53DB582B7898392B7898100
:101300009817E1F38CB59DB5821B930B409655E081
:10131000969587955A95E1F79093530180935201E2
:1013200013BE83B78EBD8EB580BF12BE1DBC1CBC64
:101330008FEF86BF86B780937C0080B79927877030
:101340009070892BD1F715BA8FEF84BB16B880E265
:1013500085BF0E942F098823E1F710923A0180B7D8
:10136000887080BF8BE083BF86EE81BF87B78260C5
:1013700087BF0E9468020E942F098823E1F7812F0E
:1013800099278FBF789482B18C6F82B98FEF8ABB17
:1013900083B1837083B91BBA1F9A6FE380E00E9408
:1013A00005031092140185E00E9474010E9441021D
:1013B00060933B0170933C0180933D0190933E010B
:1013C00084E690E0A0E0B0E080933F01909340017C
:1013D000A0934101B0934201809143018E7F8260CE
:1013E0008093430188E00E94740144E164E180E05D
:1013F00091E00E949B018FB7F894482F55277FEF0B
:10140000ECE8F0E0C895602D1AC087B79927837083
:101410009070892B61F080B7992787709070892B25
:10142000D1F781B792B7891B8C3008F082B785B7A6
:10143000837E8062862B85BF78948895F89480910E
:1014400051018F3F11F3282F3327F901E15EFE4F41
:101450009081909351019F3F11F490935D017083AF
:101460002F3F99F24FBF822F0E94D804C4CFDC01D6
:1014700001C06D9341505040E0F708955058192E27
:10148000CDD001D0B0C0BA176207730784079507A3
:10149000B1F188F40EF410940B2EBA2FA02D062E65
:1014A000622F202D072E732F302D082E842F402DD4
:1014B000092E952F502DFF275523B9F0591B49F0C0
:1014C000573E98F0469537952795A795F040539548
:1014D000C9F776F0BA0F621F731F841F30F4879527
:1014E00077956795B795F040939517FA0F2E089565
:1014F000BF1BBB27BA0B620B730B840BF6CFDEF658
:10150000B9C08CD001D06FC0552359F0992369F030
:101510009F575F57951B33F442F4903811F491585C
:1015200005C079C091589F3F09F4A4C0BB2711247E
:1015300062177307840730F4660F771F881FBB1F7D
:10154000915098F311D00F920FD00F920DD0A0E8C8
:101550002617370748071B0609F0A048BA2F602D49
:101560007F918F9100240895A0E8002462177307EB
:101570008407B10528F0621B730B840BB1090A2A9A
:10158000660F771F881FBB1FA69581F7089597FBED
:1015900051D09F3738F0FEE9F91B982F872F762F0F
:1015A0006B2F05C064C09695879577956795F15028
:1015B000D0F73EF490958095709561957F4F8F4F51
:1015C0009F4F0895E89403C097FB0EF4F3DFB62F06
:1015D000672F782F892F9EE9002405C09A95BB0FAD
:1015E000661F771F881F11249923A1F08823B2F763
:1015F0009F3F59F0BB0F48F421F4002011F460FF25
:1016000004C06F5F7F4F8F4F9F4F881F97958795BF
:1016100097F908952CC09FEF80EC0895052E0926B8
:1016200007FA440F551F5F3F79F0AA27A51708F066
:1016300051E04795880F991F9F3F31F0BB27B9179D
:1016400008F091E0879508959F919F911124E3CF31
:1016500097FB880F991F9F3F31F0BB27B91708F000
:1016600091E0879508959F919F911124D4CF66278B
:101670007727882799270895D1DF01D0B4CF992300
:1016800039F0552329F09F575F57950F13F49AF1BE
:10169000F1CF91589F3FE1F3629FA12D0F92BB279D
:1016A000639FA00DB11DEE27729FA00DB11DEE1F0F
:1016B000AF93AA27649FB00DE11D739FB00DE11D8C
:1016C000AA1F6627829FB00DE11DA61F5527749F94
:1016D000E00DA11D551F839FE00DA11D561F849F86
:1016E000A00D511D852F7A2F6E2F1F900F908823EC
:1016F0001AF4939539F48FCF000C111CBB1F661F91
:10170000771F881F01280895AA1BBB1B51E107C042
:10171000AA1FBB1FA617B70710F0A61BB70B881F81
:10172000991F5A95A9F780959095BC01CD01089510
:02173000FFCFE9
:10173200582F59203A003231333132333100000010
:021742000101A3
:00000001FF
