S01A00006275696C642F626967415652362F6D61696E2E73726563A6
S11300000C9439010C9458010C9458010C94580127
S11300100C9458010C9458010C9458010C945801F8
S11300200C9458010C9458010C9458010C945801E8
S11300300C9458010C9458010C9458010C94180514
S11300400C9495040C9458010C9458010C94580188
S11300500C9458010C94A6040C9458010C94580167
S11300600C9458010C9458010C9458010C945801A8
S11300700C9458010C9458010C9458010C94580198
S11300800C9458010C9458010C94580100081C1845
S11300901410000000000000005F000000070007CB
S11300A000147F147F14242A7F2A12231308646205
S11300B036495522500005030000001C224100006F
S11300C041221C00082A1C2A0808083E080800507F
S11300D030000008080808080060600000201008CC
S11300E004023E5149453E00427F4000426151496D
S11300F0462141454B311814127F10274545453997
S11301003C4A4949300171090503364949493606D3
S11301104949291E00363600000056360000000802
S1130120142241141414141441221408000201511D
S11301300906324979413E7E1111117E7F494949B0
S1130140363E414141227F4141221C7F4949494178
S11301507F090901013E414151327F0808087F00AF
S1130160417F41002040413F017F081422417F40EC
S11301704040407F0204027F7F0408107F3E4141DB
S1130180413E7F090909063E4151215E7F09192933
S113019046464949493101017F01013F4040403F02
S11301A01F2040201F7F2018207F6314081463033E
S11301B004780403615149454300007F414102042E
S11301C008102041417F0000040201020440404025
S11301D04040000102040020545454787F484444B1
S11301E0383844444420384444487F3854545418DC
S11301F0087E090102081454543C7F080404780062
S1130200447D40002040443D00007F1028440041CC
S11302107F40007C041804787C0804047838444443
S113022044387C14141408081414187C7C0804043E
S1130230084854545420043F4440203C4040207C0F
S11302401C2040201C3C4030403C44281028440CD6
S11302505050503C4464544C440008364100000063
S11302607F0000004136080008082A1C08081C2AE0
S1130270080811241FBECFEFD0E1DEBFCDBF11E0CF
S1130280A0E0B1E0E4ECFFE100E00BBF02C00790A6
S11302900D92A035B107D9F711E0A0E5B1E001C096
S11302A01D92A73BB107E1F70E94250D0C94E10FC5
S11302B00C9400008FB7F894992708958FBF089580
S11302C01ABA1D9A1C981E9A06C01E9800000000B7
S11302D01E9A00000000CF99F8CF1E988FEF8ABBBA
S11302E008950F931F93182F062F0E9460011E9AE2
S11302F0112321F483B18F7C83B902C01D981C9A09
S113030000000000000000000000000000000000E9
S113031000000000000000000000000000000000D9
S11303200BBB000000000000000000000000000003
S113033000000000000000000000000000000000B9
S113034000001E981F910F9108951F93162F80345B
S113035018F41B9A1A9802C01A9A1B988F73806417
S1130360682F80E00E9471011F73186B612F80E079
S11303700E9471011F910895DF92EF92FF920F93F3
S11303801F93D82E062FE62EE694E694E6946E2D5F
S11303900E94A501FF240E9460011E981D9A00007E
S11303A00000000000000000000000000000000049
S11303B000000000000000000000000000001C9A83
S11303C01ABA000000000000000000000000000055
S11303D00000000000000000000000000000000019
S11303E000001E9A0000000000000000000019B385
S11303F083B18F7983B98FEF8ABBF39482E0F816C7
S113040009F0C9CF6E2D8D2D0E94A501077081E0E2
S113041090E002C0880F991F0A95E2F7182B612F0C
S113042081E00E9471011F910F91FF90EF90DF9086
S11304300895982F969596959695E4E9F1E0E90F3D
S1130440F11D877021E030E002C0220F331F8A952E
S1130450E2F78081822399270895282F9FB7F89483
S1130460E82FFF27E159FE4F80818F3F81F4E0910F
S1130470B601E21771F40BC02093AC0104C0FF274E
S1130480E159FE4F20832093B60120E007C025E008
S113049005C08091AC018F3F91F7EECF892F99274A
S11304A08FBF822F992708950F931F93CF93DF93C4
S11304B0182F8FB7F894282F3327022F80915201D9
S11304C0882359F581E0809352011093A7012FBF2F
S11304D08FB7F8949927379A8FBF8FB7F894C82F9E
S11304E0DD279C2F809146018130A9F4809152012F
S11304F0813021F483E00E942D0209C0823059F436
S11305008091A7018093460183E080935201CFBF7D
S113051080E090E025C09FBFFBCF8091A7018117A9
S113052011F42FBFF5CF812F0E941902882319F0EF
S113053085E090E014C0E12FE695E695E695FF2767
S1130540EC56FE4F177081E090E002C0880F991FAF
S11305501A95E2F72081282B208380E090E00FBFDA
S1130560DF91CF911F910F910895209188013091CF
S1130570890180918A0190918B018217930740F43D
S113058030938B0120938A01909389018093880191
S113059020918C0130918D0180918E0190918F0179
S11305A08217930740F430938F0120938E01909328
S11305B08D0180938C012091880130918901809173
S11305C08C0190918D018217930708F4C901409121
S11305D08A0150918B0120918E0130918F01241753
S11305E0350718F4820F931F02C0840F951F969548
S11305F0879508956093A40140936C0190938601BC
S11306008093850188E00E942D0208959C018091C9
S1130610550180FD0FC067FD0DC0473058F480912F
S11306205501816080935501C9010E94FA0280E05E
S113063090E0089581E090E008958091B0018823CE
S113064021F02FE1F0E0E0E008C0F7E0E1E08FB74F
S1130650F8949927209169018FBF622FAFB7F8945E
S1130660809181018E7F8093810187B1782F7F7182
S11306702E2F332782958695869583709927281780
S1130680390719F080E090E013C0862F8850863136
S113069018F081E090E00CC040E050E0262F3327B2
S11306A0872F99272817390711F441E050E0CA0130
S11306B0982F9170990F809181018178262F2F7145
S11306C0422F440F440F892B842B80938101E295A0
S11306D0EE0FEE0FE07C2E2B332727B9F83059F5B7
S11306E08091AD019091AE0121E08638920718F017
S11306F087E090E01FC0833C910518F086E090E00D
S113070019C08136910518F085E090E013C080335C
S1130710910518F084E090E00DC08831910518F03F
S113072083E090E007C00C9718F082E090E002C0EC
S113073080E090E0F82FF770887D8F2B886D9927E3
S113074086B98A2F99278FBF08957FB7F89462B727
S11307502091B1013091B2014091B3015091B401A3
S113076006B601FE0FC081B792B7280F311D411D97
S1130770511D2F5F3F4F4F4F5F4F290F311D411DBB
S1130780511D04C0260F311D411D511D872F99276E
S11307908FBFCA01B9010895982F8091550197FD23
S11307A024C0603410F547FD20C02034F0F480915B
S11307B05501886080935501941748F49093A501DE
S11307C060936D01409383012093680108C04093B6
S11307D0A50120936D0190938301609368018AE0E1
S11307E00E942D0280E090E0089581E090E0089559
S11307F0DF92EF92FF920F931F938FB7F894282FF5
S11308003327D22E91B782B746B7981711F041FF1C
S113081002C02FBF6AC08091B5018823E1F10E9414
S1130820A503E0909001F090910100919201109144
S1130830930120917B0130917C0140917D01509185
S11308407E016E197F09800B910B62177307840771
S1130850950720F01092B50171E01EC02E0D3F1DCA
S1130860401F511F8091B1019091B201A091B30139
S1130870B091B401281B390B4A0B5B0B273E3105A1
S11308804105510540F4822F223010F070E005C07C
S113089070E082E002C070E086EE682F615000B61E
S11308A001FCFDCF82B7681709F46F5F2091B10195
S11308B03091B2014091B3015091B401DA01C90100
S11308C00196A11DB11D860F911DA11DB11D821799
S11308D09307A407B50710F4622F609561BFDFBECC
S11308E0772319F080E00E942D021F910F91FF9051
S11308F0EF90DF900895AFB7F894BB27E1E0E09361
S1130900B50160939001709391018093920190934B
S1130910930120937B0130937C0140937D0150939C
S11309207E01AFBF0E94F80308951F920F920FB685
S11309300F9211248F9383B783BF00B600FCFDCFC1
S11309408F910F900FBE0F901F9018951F920F92CA
S11309500FB60F9211242F933F934F935F936F938E
S11309607F938F939F93AF93BF93EF93FF9344B180
S113097055B178948FB7F894992720918101322F3B
S11309803695317021708FBF2223D9F4339880912A
S11309908701813021F0823009F039C00AC0332345
S11309A051F05093A1014093A00184E00E942D02D4
S11309B02EC0332319F40E941D0329C0109287010D
S11309C026C08FB7F89499278FBF2FB7F894332791
S11309D086B1582F5770482F4072987D942B952BD1
S11309E08074977B982B90619F77892F992786B97C
S11309F0887D842B852B87738061992786B9887DB0
S1130A00842B852B877B8069992786B92FBFFF911B
S1130A10EF91BF91AF919F918F917F916F915F9172
S1130A204F913F912F910F900FBE0F901F901895EB
S1130A301F920F920FB60F9211242F933F934F934F
S1130A405F936F937F938F939F93AF93BF93EF9332
S1130A50FF93809150018A3F21F583B783BF00B68D
S1130A6000FCFDCF81B799270196AA27BB272091C7
S1130A70B1013091B2014091B3015091B401280FFA
S1130A80391F4A1F5B1F2093B1013093B201409379
S1130A90B3015093B40178940E94F803109250016A
S1130AA003C08F5F80935001FF91EF91BF91AF918D
S1130AB09F918F917F916F915F914F913F912F9172
S1130AC00F900FBE0F901F9018959B0160E4621B5E
S1130AD00E94BC0181E08093560182E00E942D02B5
S1130AE00895EF92FF920F931F93E0919D01E1FF10
S1130AF098C02091950130919601409197015091B1
S1130B009801E0909901F0909A0100919B01109155
S1130B109C01621B730B840B950B6E157F0580077C
S1130B20910708F47EC0E0FF04C0ED7FE0939D01CF
S1130B300CC02E0D3F1D401F511F20939501309373
S1130B4096014093970150939801809B0CC080912B
S1130B505501809155018061809355011092530194
S1130B6089E00E942D02819B06C043E06AE080E098
S1130B7091E00E940603829B16C0809155018091EA
S1130B80550180628093550188E08093A60188E234
S1130B9080936E0180E48093670180E180938001FB
S1130BA08BE00E942D02839B06C02FE34FE760E099
S1130BB080E00E94CC03849B06C02FE340E060E009
S1130BC08FE70E94CC03859B13C0809155018091CF
S1130BD0550182608093550188E18093A30184E1EB
S1130BE080936B0180E18093AF0187E00E942D0226
S1130BF0869B16C080915501809155018460809335
S1130C00550180E58093A20180E180936A018CE123
S1130C1080939E0180E28093840186E00E942D02ED
S1130C2080B381E00E942D021F910F91FF90EF90FD
S1130C300895109262012FB7F8943327E4E6F0E0A8
S1130C408081886080832FBF2FB7F89433278081F9
S1130C50806180832FBFE1E6F0E080818E7F808316
S1130C6080818D7F80832FB7F8943327E5E6F0E009
S1130C708081886080832FBF2FB7F89433278081C9
S1130C808F7E80832FBFE2E6F0E080818E7F8083B9
S1130C9080818D7F80838FB7F894992710926901A2
S1130CA08FBF80E00E94540208952F923F924F928A
S1130CB05F926F927F928F929F92AF92BF92CF92E8
S1130CC0DF92EF92FF920F931F93CF93DF93A82E9F
S1130CD025E0821709F4C4C22817B0F032E0831764
S1130CE009F449C1381738F0882361F141E08417C9
S1130CF009F07BC65AC053E0851709F4A2C084E00A
S1130D00A81609F072C6B4C098E08917B1F0981714
S1130D1040F0E6E08E1799F0F7E08F1709F065C60A
S1130D20E7C22AE0821709F4D8C3821708F4A6C3DD
S1130D303BE0831709F059C6A7C5FF248AC3C0E066
S1130D40D0E0B1C280917F01882361F52091A80190
S1130D503091A9014091AA015091AB01EFB7F894E9
S1130D60FF2760919001709191018091920190917F
S1130D709301E0907B01F0907C0100917D01109142
S1130D807E016E0D7F1D801F911FEFBF2093A80170
S1130D903093A9014093AA015093AB0110927F01B3
S1130DA00E947B040E94A5033AC00E94A5037B0114
S1130DB08C018FB7F89499271092B5018FBF809159
S1130DC09D0181FF12C68091950190919601A09199
S1130DD09701B0919801A8019701281B390B4A0B80
S1130DE05B0BDA01C9012091990130919A0140917C
S1130DF09B0150919C01281B390B4A0B5B0B2F3F25
S1130E008FEF38078FEF48078FE7580709F4EDC5D0
S1130E1012161306140615062CF0C801B7010E9419
S1130E207105E3C52093A8013093A9014093AA0159
S1130E305093AB01A0927F01C801B7010E947B04CB
S1130E40D4C58FB7F89499272091A7012093460120
S1130E50A09252018FBF80914601882309F0C5C535
S1130E6081E0809387011092B0010E941D03BDC5EB
S1130E7010928701E090A001F090A1018091B0014F
S1130E80882309F0B2C58FB7F894C82E8091520117
S1130E90833009F041C0809146018823E9F58091AF
S1130EA09401882309F09BC593C5ED2DE695E6953D
S1130EB0E695FF274D2D5527EC56FE4F9A012770D6
S1130EC0307081E090E002C0880F991F2A95E2F704
S1130ED080952081282320830093510112C00F5F45
S1130EE01F4F0130110511F400E010E0D02E802FC7
S1130EF00E9419028823C9F60C171D0781F74FEFCA
S1130F0050E04093A7018FEF8093460181E08093E6
S1130F10520183E00E942D02CFBE80916201843091
S1130F2009F449C0853050F48130D9F0813098F00B
S1130F308230A9F1833009F058C537C0863009F4EE
S1130F4067C0863008F45EC0873009F467C0883013
S1130F5009F04BC569C0F0926401E092630181E03D
S1130F6012C09FE1E916F104A0F080915601882394
S1130F7029F0109256010E94190637C5F092890192
S1130F80E092880182E08093620180E00E94540232
S1130F902CC580915601882309F0AAC0F6CFF0929F
S1130FA08B01E0928A0183E0EECFF0928D01E09212
S1130FB08C0184E0E8CFF0928F01E0928E010E94D0
S1130FC0B502909364018093630185E0809362018C
S1130FD02FB7F894332780916500877F809365004D
S1130FE02FBF2FB7F89433278091650080618093D9
S1130FF065002FBF8FB7F894992721E020936901EA
S11310008FBFC3CFF0928901E092880186E0BBCF05
S1131010F0928B01E0928A0187E0B5CFF0928D01C6
S1131020E0928C0188E0AFCFF0928F01E0928E01C4
S11310300E94B50290936601809365012091650139
S11310403091660160916301709164018091570150
S11310508130B9F4709348016093470130934A0199
S11310602093490182E0809357011092530189E053
S11310700E942D0240E067E28DE091E00E94FA02B6
S11310807ACF809157018230B9F5809147019091D0
S113109048018C599F4F8617970708F06CCF8091B1
S11310A0490190914A018C599F4F8217930708F088
S11310B062CF70934C0160934B0130934E012093A7
S11310C04D0183E0809357011092530189E00E94FF
S11310D02D0240E26EE18DE191E00E94FA0242E0CD
S11310E060E088E291E00E94060381E0809356016B
S11310F082E00E942D0279C480914B0190914C01B1
S11311006817790708F0A5C08091470190914801BC
S11311108617970708F09DC080914D0190914E016C
S11311202817390708F095C08091490190914A0128
S11311308217930708F08DC0809147019091480170
S11311403B01681A790A8091490190914A01E901A9
S1131150C81BD90BB301882777FD8095982F0E946F
S1131160F10E77FE06C020E030E040E857E40E942C
S11311704C0E20E030E84AE454E40E948E0E0E94B3
S1131180D40E7B018C01BE01882777FD8095982FB2
S11311900E94F10ED7FF06C020E030E040E857E49B
S11311A00E944C0E20E030E048E254E40E948E0E8F
S11311B00E94D40E26E0660F771F881F991F2A9578
S11311C0D1F72FE330E0261B370BD801C70117E016
S11311D0880F991FAA1FBB1F1A95D1F7B9010E9446
S11311E06505E0904B01F0904C0180904701909090
S11311F0480120914D0130914E01E0914901F09157
S11312004A01BE0188279927A6E0660F771F881F29
S1131210991FAA95D1F72E1B3F0B442755270E94EF
S1131220BF0F59016A01B3018827992757E0660F58
S1131230771F881F991F5A95D1F7E818F9080027D6
S11312401127A80197010E94BF0FDA01C901B50156
S113125004C068EC70E088EC90E00E946505C5C3AA
S11312601ABA1D9A1C9806C01E9A000000001E9807
S113127000000000CF99F8CF1D9A8FEF8ABBB5C349
S113128060916A01610F8091A2010E94BC0180916A
S11312906A01180F8091A20190919E01890F612F1C
S11312A081500E94BC011C2F219680918401181743
S11312B038F3C0E0D0E012C08091A20160916A01CD
S11312C0810F0E94BC0160916A0180918401680FC2
S11312D061508091A201810F0E94BC011C2F2196B4
S11312E080919E01181740F3809155018B7F6DC347
S11312F0D0906B018091A301D81A8091AF01E82EA0
S1131300FF24C701880F991FC3E0D0E0C81BD90B85
S1131310AA24BB24882499245AC060916B016E0DC1
S11313208091A3018A0D0E94BC0160916B016E192A
S11313308091A3018A0D0E94BC0160916B016E0D26
S11313408091A3018A190E94BC0160916B016E19FE
S11313508091A3018A190E94BC0180916B01682FBE
S11313606A0D8E0D8D190E94BC0180916B01682F4E
S11313706A198E0D8D190E94BC0180916B01682F32
S11313806A0D8E198D190E94BC0180916B01682F22
S11313906A198E198D190E94BC01D7FF04C02696C4
S11313A0C80DD91D0DC0C5018E199F09880F991F3D
S11313B0880F991F2A96C80FD91F0894E108F108CD
S11313C00894A11CB11CE4E0F0E08E0E9F1EEA1408
S11313D0FB040CF0A2CF809155018D7FF6C200E092
S11313E010E08F2D800F9091A40160916C01890F02
S11313F00E94A501E0918501F0918601E08185E0DC
S1131400E802F0011124E00FF11FEE50F040C895FE
S1131410E02D6E2F81E00E9471010F5F1F4F053098
S11314201105F9F6F5E0FF0E8091A40160916C01BD
S11314308F0D0E94A50160E081E00E947101F39488
S11314408091850190918601019690938601809305
S11314508501E0918501F09186018081882309F05E
S1131460BECF809155018E7F8093550180915501A7
S1131470813009F4BAC280915501B7C210929F011C
S11314801092540180E060919F010E94A501609137
S1131490530181E00E947101809154018F5F809318
S11314A0540187FFF0CF80919F018F5F80939F014C
S11314B0883030F3809155018F7E8093550180915F
S11314C05501813009F491C280915501823009F4AB
S11314D08CC2809155018F7E78C270908301609098
S11314E0A501872D861980935B01909068018090F7
S11314F06D01891458F00F2EF0E02F2EF0E03F2EEE
S1131500F0E04F2EF0E05F2EF02D25C0692D7727F7
S113151068197109882777FD8095982F0E94F10E2C
S11315207B018C01672D772766197109882777FD60
S11315308095982F0E94F10E9B01AC01C801B70160
S11315400E948E0E1B012C0182E080935C01892D88
S1131550881980935A019814E8F5682D772769193A
S11315607109882777FD8095982F0E94F10E5B0101
S11315706C01672D772767FD7095872F972F0E9441
S1131580F10E7B018C0177FE08C020E030E040E8DA
S113159053E40E944C0E7B018C01662D772788272B
S11315A077FD8095982F0E94F10E9B01AC01C80134
S11315B0B7010E944B0E9B01AC01C601B5010E940C
S11315C08E0E1B012C0181E080935C01882D89190A
S11315D080935A0190915A0180915B01891748F4D4
S11315E080915A0160915B010E94B30F809359016D
S11315F002C010925901981461F410925C010F2EEC
S1131600F0E02F2EF0E03F2EF0E04F2EF0E05F2EC2
S1131610F02D6714E9F410925D010CC080915D0116
S1131620680F8091A5010E94BC0180915D018F5FCC
S113163080935D0120915D0160916D01332780915C
S113164068019927861B9109281739073CF318C1AB
S113165010925D0107C180915C01813009F098C04E
S1131660109258018DC060916D017727882777FD0E
S11316708095982F0E94F10E5B016C0110915D0121
S113168090905801612F772767FD7095872F972FCA
S11316900E94F10E17FF06C020E030E040E853E45A
S11316A00E944C0E9B01AC01C201B1010E946B0F60
S11316B09B01AC01C601B5010E944B0E7B018C015C
S11316C0692D7727882777FD8095982F0E94F10E42
S11316D09B01AC01C801B7010E944C0E7B018C0137
S11316E0609168017727882777FD8095982F0E945D
S11316F0F10E9B01AC01C801B7010E94FE0E8823C4
S1131700D4F110915D019090580180905D01612F9A
S1131710772767FD7095872F972F0E94F10E17FF8B
S113172006C020E030E040E853E40E944C0E9B01E8
S1131730AC01C201B1010E946B0F9B01AC01C60157
S1131740B5010E944B0E7B018C01692D77278827F8
S113175077FD8095982F0E94F10E9B01AC01C80182
S1131760B7010E944C0E0E94D40E2091A501882D31
S1131770820F0E94BC01809158018F5F80935801B1
S11317809091580180915901891708F06CCF65C078
S113179080915C01823009F055C0109258014AC012
S11317A010915D01B0905801A0905D0160916D01B0
S11317B07727882777FD8095982F0E94F10E6B017B
S11317C07C01612F772767FD7095872F972F0E94E3
S11317D0F10E17FF06C020E030E040E853E40E9419
S11317E04C0E9B01AC01C201B1010E946B0F9B0125
S11317F0AC01C701B6010E944C0E7B018C016B2D1C
S11318007727882777FD8095982F0E94F10E9B01FA
S1131810AC01C801B7010E944C0E0E94D40E209165
S1131820A5018A2D820F0E94BC01809158018F5F0F
S1131830809358019091580180915901891708F0BB
S1131840AFCF0BC080915C01882339F480915D0196
S113185060916D01840F0E94BC0180915D018F5FD6
S113186080935D0120915D014091A5013327809112
S113187083019927841B9109821793070CF0EBCEFF
S113188080915501877FA1C01092610194C080911D
S11318906E01992787709070892B71F520918001D2
S11318A0822F992787709070892B31F5269526957C
S11318B0269520935F011092600118C090916001F9
S11318C08091610160916E01669566956695690FD8
S11318D09091A601890F0E94A5016FEF81E00E94FB
S11318E07101809160018F5F80936001909160012C
S11318F080915F01981710F3209180012830E0F562
S113190060916E01862F992787709070892BA1F5BD
S113191080915F01882301F5277020935F01109265
S1131920600141E050E012C080915E0120916001AD
S1131930FA0102C0EE0FFF1F2A95E2F78E2B809367
S11319405E01809160018F5F8093600190916001DE
S113195080915F01981740F38091610166956695C7
S113196066959091A601890F0E94A50160915E0180
S113197081E00E9471011AC01092600111C060914F
S113198060018091610190916E01690F9091A601AF
S1131990890F0E94BC01809160018F5F8093600178
S11319A09091600180918001981748F380916101C2
S11319B08F5F809361019091610180916701981715
S11319C008F465CF809155018F7D809355010DC03A
S11319D081E0809346011092520137989DCA80910C
S11319E05101C82FDD278E017ACADF91CF911F9153
S11319F00F91FF90EF90DF90CF90BF90AF909F90AA
S1131A008F907F906F905F904F903F902F900895AC
S1131A108091AC018F3FB1F0282F3327F901E159B0
S1131A20FE4F80818093AC018F3F11F48093B60107
S1131A308FEF80832F3F31F0822F0E94550681E083
S1131A4090E0089580E090E00895CDEFD0E1DEBF0E
S1131A50CDBF1FB7F8944CE050E06FEF70E08FE615
S1131A6091E00E94440E8FEF8093AC018093B60105
S1131A7081E08EBD83E083BF4CB55DB584EF8A837E
S1131A8009C02CB53DB52417350718F48A81815057
S1131A908A83A9018A818823A1F782B7898392B7AF
S1131AA089819817E1F32CB53DB582B7898392B744
S1131AB089819817E1F38CB59DB5821B930B4096F1
S1131AC035E0969587953A95E1F79093AE0180932A
S1131AD0AD0113BE83B78EBD8EB580BF12BE1DBCD3
S1131AE01CBC8FEF86BF86B780937C0080B7992794
S1131AF087709070892BD1F715BA8FEF84BB16B815
S1131B0080E285BF0E94080D8823E1F710929401BA
S1131B1080B7887080BF8CE083BF86EE81BF87B7B3
S1131B20826087BF0E94F8030E94080D8823E1F7B2
S1131B30812F99278FBF789482B18C6F82B98AB331
S1131B408FEF8ABB83B1837083B91BBA1F9A6FE38B
S1131B5080E00E9471011092530110929F01109233
S1131B60540180E060919F010E94A501609153019E
S1131B7081E00E947101809154018F5F8093540130
S1131B8087FFF0CF80919F018F5F80939F01883002
S1131B9030F3809157018130A1F080915701823058
S1131BA081F081E0809357011092530189E00E94F3
S1131BB02D024CE360E084E391E00E94FA020E946B
S1131BC01906889889988A988B988C988D988E98FD
S1131BD08F980E94A503609395017093960180935A
S1131BE097019093980188EC90E0A0E0B0E0809396
S1131BF0990190939A01A0939B01B0939C018091C9
S1131C009D018E7F826080939D0181E00E942D0260
S1131C108FB7F894482F55277FEFECE8F0E0C8958C
S1131C20602D1AC087B7992783709070892B61F053
S1131C3080B7992787709070892BD1F781B792B7B5
S1131C40891B883008F082B785B7837E8062862B33
S1131C5085BF78948895F8948091AC018F3F11F3F7
S1131C60282F3327F901E159FE4F90819093AC015D
S1131C709F3F11F49093B60170832F3F99F24FBFA9
S1131C80822F0E945506C4CFDC0101C06D934150E0
S1131C905040E0F708955058192EEFD001D0D2C02B
S1131CA0BA176207730784079507B1F188F40EF435
S1131CB010940B2EBA2FA02D062E622F202D072E46
S1131CC0732F302D082E842F402D092E952F502D43
S1131CD0FF275523B9F0591B49F0573E98F0469514
S1131CE037952795A795F0405395C9F776F0BA0F25
S1131CF0621F731F841F30F4879577956795B79596
S1131D00F040939517FA0F2E0895BF1BBB27BA0B0B
S1131D10620B730B840BF6CFDEF6DBC0AED001D0C2
S1131D2091C0552359F0992369F09F575F57951B2C
S1131D3033F442F4903811F4915805C09BC0915883
S1131D409F3F09F4C6C0BB27112462177307840799
S1131D5030F4660F771F881FBB1F915098F311D082
S1131D600F920FD00F920DD0A0E82617370748071F
S1131D701B0609F0A048BA2F602D7F918F91002493
S1131D800895A0E80024621773078407B10528F0BA
S1131D90621B730B840BB1090A2A660F771F881F15
S1131DA0BB1FA69581F7089597FB73D09F3738F032
S1131DB0FEE9F91B982F872F762F6B2F05C086C05D
S1131DC09695879577956795F150D0F73EF4909561
S1131DD08095709561957F4F8F4F9F4F0895E8943C
S1131DE003C097FB0EF4F3DFB62F672F782F892FEC
S1131DF09EE9002427C00ED05EF004C00BD026F06C
S1131E0001C008D019F020F48FEF089580E0089500
S1131E1081E0089597FB092E052600F8689430D0D8
S1131E20E89407FC07C0621773078407950721F03D
S1131E3008F400940794989408959A95BB0F661F2C
S1131E40771F881F11249923A1F08823B2F79F3F9D
S1131E5059F0BB0F48F421F4002011F460FF04C0D2
S1131E606F5F7F4F8F4F9F4F881F9795879597F987
S1131E7008952CC09FEF80EC0895052E092607FADB
S1131E80440F551F5F3F79F0AA27A51708F051E0CA
S1131E904795880F991F9F3F31F0BB27B91708F06A
S1131EA091E0879508959F919F911124E3CF97FB2B
S1131EB0880F991F9F3F31F0BB27B91708F091E0B5
S1131EC0879508959F919F911124D4CF66277727F2
S1131ED0882799270895D1DF01D0B4CF992339F009
S1131EE0552329F09F575F57950F13F49AF1F1CFBB
S1131EF091589F3FE1F3629FA12D0F92BB27639FEF
S1131F00A00DB11DEE27729FA00DB11DEE1FAF9362
S1131F10AA27649FB00DE11D739FB00DE11DAA1F98
S1131F206627829FB00DE11DA61F5527749FE00D03
S1131F30A11D551F839FE00DA11D561F849FA00D59
S1131F40511D852F7A2F6E2F1F900F9088231AF41E
S1131F50939539F48FCF000C111CBB1F661F771F9C
S1131F60881F01280895991B79E004C0991F9617CA
S1131F7008F0961B881F7A95C9F780950895A1E209
S1131F801A2EAA1BBB1BFD010DC0AA1FBB1FEE1FEF
S1131F90FF1FA217B307E407F50720F0A21BB30B3A
S1131FA0E40BF50B661F771F881F991F1A9469F7B6
S1131FB060957095809590959B01AC01BD01CF0112
S1071FC00895FFCFAE
S1131FC448656C6C6F20576F726C642100507265A5
S1131FD473732052696768742F546F700043616C83
S1131FE4696272617465640050726573732044306D
S1131FF42D4436005072657373204C6566742F4209
S11320046F74746F6D000136008000610320030057
S9030000FC
