S01A00006275696C642F626967415652362F6D61696E2E73726563A6
S11300000C9439010C9458010C9458010C94580127
S11300100C9458010C9458010C9458010C945801F8
S11300200C9458010C9458010C9458010C945801E8
S11300300C9458010C9458010C9458010C945801D8
S11300400C9458010C940F030C9458010C9458010F
S11300500C9458010C949D020C9458010C94580172
S11300600C9458010C9458010C9458010C945801A8
S11300700C9458010C9458010C9458010C94580198
S11300800C9458010C9458010C94580100081C1845
S11300901410000000000000005F000000070007CB
S11300A000147F147F14242A7F2A12231308646205
S11300B036495522500005030000001C224100006F
S11300C041221C00082A1C2A0808083E080800507F
S11300D030000008080808080060600000201008CC
S11300E004023E5149453E00427F4000426151496D
S11300F0462141454B311814127F10274545453997
S11301003C4A4949300171090503364949493606D3
S11301104949291E00363600000056360000000802
S1130120142241141414141441221408000201511D
S11301300906324979413E7E1111117E7F494949B0
S1130140363E414141227F4141221C7F4949494178
S11301507F090901013E414151327F0808087F00AF
S1130160417F41002040413F017F081422417F40EC
S11301704040407F0204027F7F0408107F3E4141DB
S1130180413E7F090909063E4151215E7F09192933
S113019046464949493101017F01013F4040403F02
S11301A01F2040201F7F2018207F6314081463033E
S11301B004780403615149454300007F414102042E
S11301C008102041417F0000040201020440404025
S11301D04040000102040020545454787F484444B1
S11301E0383844444420384444487F3854545418DC
S11301F0087E090102081454543C7F080404780062
S1130200447D40002040443D00007F1028440041CC
S11302107F40007C041804787C0804047838444443
S113022044387C14141408081414187C7C0804043E
S1130230084854545420043F4440203C4040207C0F
S11302401C2040201C3C4030403C44281028440CD6
S11302505050503C4464544C440008364100000063
S11302607F0000004136080008082A1C08081C2AE0
S1130270080811241FBECFEFD0E1DEBFCDBF11E0CF
S1130280A0E0B1E0E0EFFCE100E00BBF02C00790AA
S11302900D92A832B107D9F711E0A8E2B1E001C08C
S11302A01D92AC37B107E1F70E949F0B0C94770EB7
S11302B00C9400008FB7F894992708958FBF089580
S11302C0882311F06E9A08956E9808951F93182F3D
S11302D081E00E9460011FB9779BFECF8FB19927FF
S11302E01F9108951F93162FC0980E946601812FB5
S11302F00E946601C09A99271F9108951F93182F91
S1130300C0988FEB0E94660183E00E946601C09A48
S1130310C0988FE90E946601812F0E946601C09AED
S11303201F910895282F9FB7F894E82FFF27E15BCA
S1130330FE4F80818F3F81F4E0917B01E21771F4DD
S11303400BC02093740104C0FF27E15BFE4F2083A0
S113035020937B0120E007C025E005C08091740153
S11303608F3F91F7EECF892F99278FBF822F99273F
S113037008956093700140934C01909363018093BE
S1130380620187E00E94920108950F931F93182F32
S1130390062F84E00E9492011E9A112331F483B146
S11303A08F7C83B98FEF8ABB02C01D981C9A0BBB4C
S11303B00000000000000000000000000000000039
S11303C01E981F910F9108951F93162F803418F4CF
S11303D01B9A1A9802C01A9A1B988F738064682F0C
S11303E080E00E94C5011F73186B612F80E00E949A
S11303F0C5011F910895982F969596959695E7E6D1
S1130400F1E0E90FF11D877021E030E002C0220F16
S1130410331F8A95E2F7808182239927089580917A
S11304207801882321F02FE1F0E0E0E008C0F7E054
S1130430E1E08FB7F8949927209149018FBF622F8B
S1130440AFB7F89480915D018E7F80935D0187B191
S1130450782F7F712E2F332782958695869583700A
S113046099272817390719F080E090E013C0862FE8
S11304708850863118F081E090E00CC040E050E0F4
S1130480262F3327872F99272817390711F441E09E
S113049050E0CA01982F9170990F80915D01817885
S11304A0262F2F71422F440F440F892B842B8093C6
S11304B05D01E295EE0FEE0FE07C2E2B332727B97A
S11304C0F83059F5809175019091760121E08638D4
S11304D0920718F087E090E01FC0833C910518F064
S11304E086E090E019C08136910518F085E090E02F
S11304F013C08033910518F084E090E00DC088317A
S1130500910518F083E090E007C00C9718F082E0A2
S113051090E002C080E090E0F82FF770887D8F2B88
S1130520886D992786B98A2F99278FBF08958823C4
S113053011F06F9A08956F9808951F920F920FB655
S11305400F9211242F933F934F935F936F937F9355
S11305508F939F93AF93BF93EF93FF9344B155B1A0
S113056078948FB7F894992720915D01322F3695AE
S1130570317021708FBF2223D9F4339880916401A4
S1130580813021F0823009F039C00AC0332351F0A0
S113059050936D0140936C0183E00E9492012EC040
S11305A0332319F40E940F0229C01092640126C05B
S11305B08FB7F89499278FBF2FB7F894332786B154
S11305C0582F5770482F4072987D942B952B807428
S11305D0977B982B90619F77892F992786B9887D7F
S11305E0842B852B87738061992786B9887D842B1A
S11305F0852B877B8069992786B92FBFFF91EF915F
S1130600BF91AF919F918F917F916F915F914F9126
S11306103F912F910F900FBE0F901F9018951F922E
S11306200F920FB60F9211248F929F92AF92BF92A6
S1130630CF92DF92EF92FF920F931F932F933F93EA
S11306404F935F936F937F938F939F93AF93BF93D6
S1130650CF93DF93EF93FF932FB1E0916801F09173
S11306606901309739F08091650190916601E80F36
S1130670F91F208380916501909166010196909302
S113068066018093650180E00E949702C091650134
S1130690D09166018091460190914701C817D9070E
S11306A008F044C00091790110917A0180906801AA
S11306B0909069012AE0A22EB12CAC0EBD1E8A15C1
S11306C09B0508F45C016401CC0EDD1E7801EC0E80
S11306D0FD1E15C00115110519F0F701808101C037
S11306E080E00E9466018114910411F0F601808378
S11306F021960894C11CD11C0894E11CF11CC5016D
S11307000197C817D90730F381E00E9497020115B9
S1130710110531F00C0F1D1FF80180818FB901C044
S11307201FB8D0936601C093650111C0109269018E
S11307301092680110927A01109279011092470187
S11307401092460110926601109265018FB1FF91DB
S1130750EF91DF91CF91BF91AF919F918F917F9155
S11307606F915F914F913F912F911F910F91FF9046
S1130770EF90DF90CF90BF90AF909F908F900F90AD
S11307800FBE0F901F9018950F931F93CF93DF9375
S1130790182F8FB7F894282F3327022F80912D011B
S11307A0882359F581E080932D01109373012FBFA5
S11307B08FB7F8949927379A8FBF8FB7F894C82FBB
S11307C0DD279C2F80911B018130A9F480912D019C
S11307D0813021F482E00E94920109C0823059F4F0
S11307E08091730180931B0183E080932D01CFBF1F
S11307F080E090E025C09FBFFBCF809173018117FB
S113080011F42FBFF5CF812F0E94FB01882319F02B
S113081085E090E014C0E12FE695E695E695FF2784
S1130820E959FE4F177081E090E002C0880F991FCC
S11308301A95E2F72081282B208380E090E00FBFF7
S1130840DF91CF911F910F910895DF92EF92FF9264
S11308500F931F93D82E062FE62EE694E694E69483
S11308606E2D0E94E401FF2484E00E94920183B172
S1130870806683B91C9A1ABA0000000000000000C8
S1130880000000000000000019B383B18F7983B920
S11308908FEF8ABBF39482E0F81631F76E2D8D2D1D
S11308A00E94E401077081E090E002C0880F991F64
S11308B00A95E2F7182B612F81E00E94C5011F9170
S11308C00F91FF90EF90DF90089581E080934001B5
S11308D02FB7F8943327E4E6F0E0808188608083C2
S11308E02FBF2FB7F89433278081806180832FBF77
S11308F0E1E6F0E080818E7F808380818D7F80833C
S11309002FB7F8943327E5E6F0E080818860808390
S11309102FBF2FB7F894332780818F7E80832FBF1A
S1130920E2E6F0E080818E7F808380818D7F80830A
S11309308FB7F8949927109249018FBF80E00E94E5
S1130940C40308959C018038910570F560347105E5
S113095058F58F36910570F06333710558F0809126
S113096033018091330180618093330110922E0111
S113097088E01DC040E4461B80913301842F9927F1
S113098001968134910584F48091330184608093CD
S1130990330120936E0140934A0181E080936A0100
S11309A08093610185E003C081E0809331010E945E
S11309B0920108952F923F924F925F926F927F928D
S11309C08F929F92AF92BF92CF92DF92EF92FF925B
S11309D00F931F93CF93DF93CDB7DEB722970FB654
S11309E0F894DEBF0FBECDBF863009F40BC287304A
S11309F090F4833009F444C0843030F4813029F118
S1130A00823009F066C624C0843009F4ADC1853053
S1130A1009F05FC617C0893009F4FAC28A3030F48D
S1130A20873071F0883009F054C6BCC28B3009F4A9
S1130A306AC58B3008F4C5C48C3009F04AC678C541
S1130A40FF2498C2EE24FF24B4C10E94650441C669
S1130A502FB7F89433278091730180931B0183E0AF
S1130A6080932D012FBF80911B01882309F031C68B
S1130A7081E080936401109278010E940F0229C6DC
S1130A8010926401A0906C01B0906D018091780186
S1130A90882309F01EC68FB7F894C82E80912D01C3
S1130AA0833009F041C080911B018823E9F58091CE
S1130AB06701882309F007C6FFC5ED2DE695E69585
S1130AC0E695FF274D2D5527E959FE4F9A012770CA
S1130AD0307081E090E002C0880F991F2A95E2F7F8
S1130AE0809520812823208300932C0112C00F5F5E
S1130AF01F4F0130110511F400E010E0D02E802FBB
S1130B000E94FB018823C9F60E151F0581F74FEFDC
S1130B1050E0409373018FEF80931B0181E0809339
S1130B202D0182E00E949201CFBE9FB6F89480917D
S1130B304001823091F0833020F4813009F011C1FA
S1130B4006C0833091F1843009F00BC134C0B092F7
S1130B504201A092410182E01DC02FE1A216B1041E
S1130B60E0F080913101813019F41092310156C0C6
S1130B70B0924201A092410180916500877F8093E9
S1130B8065008091650080618093650081E08093B9
S1130B90490183E080934001E1C0809131018130BB
S1130BA009F0DCC00E949201DCC0B0924401A09222
S1130BB0430184E0EFCF3DE3A316B10408F4CEC0B3
S1130BC0B0924401A092430185E08093400180915A
S1130BD062008D7F80936200E0904301F0904401B5
S1130BE00091410110914201809132018130C9F498
S1130BF01093200100931F01F0922201E092210141
S1130C0082E08093320110922E0188E00E949201CA
S1130C1040E067E280E091E00E94B9010E9465042F
S1130C20A0C080913201823049F580911F019091DA
S1130C3020018C599F4F8017910780F780912101E3
S1130C40909122018C599F4F8E159F0538F7109370
S1130C50240100932301F0922601E092250183E010
S1130C608093320110922E0188E00E94920140E2AA
S1130C706EE180E191E00E94B90173C0809123018B
S1130C80909124010817190708F061C080911F0191
S1130C90909120018017910708F059C08091250197
S1130CA090912601E816F90608F051C080912101BF
S1130CB0909122018E159F0508F049C006531040FB
S1130CC0B801882777FD8095982F0E94A90D17FFFA
S1130CD006C020E030E040E857E40E94040D20E024
S1130CE030E84AE454E40E94460D5B016C0187013C
S1130CF000581040B801882777FD8095982F0E94EE
S1130D00A90D17FF06C020E030E040E857E40E9438
S1130D10040D20E030E048E254E40E94460D20E057
S1130D2030E040E852E40E94230E0E948C0D7B01C7
S1130D308C0120E030E040E053E4C601B5010E949C
S1130D40230E0E948C0DDC01CB01B70104C068ECBA
S1130D5070E088EC90E00E94A20403C080E00E944E
S1130D60C403892D9927E2C31ABA1D9A1C981E9AA6
S1130D7006C01E98000000001E9A00000000CF99D3
S1130D80F8CF1E981D9A8FEF8ABBA3C460914A01C5
S1130D90610F80916E010E94250480914A01180F11
S1130DA080916E0190916A01890F612F81500E9498
S1130DB025041E2D0894E11CF11C80916101181773
S1130DC028F3EE24FF2412C080916E0160914A0141
S1130DD0810F0E94250460914A0180916101680F8E
S1130DE0615080916E01810F0E9425041E2D08948C
S1130DF0E11CF11C80916A01181730F380913301D2
S1130E008B7FFEC0B0904B0180916F01B81A809126
S1130E107701C82EDD24C601880F991F43E0E42E14
S1130E20F12CE81AF90A882499246624772460C0EE
S1130E3060914B016C0D80916F01880D0E94250417
S1130E4060914B016C1980916F01880D0E942504FB
S1130E5060914B016C0D80916F0188190E942504EB
S1130E6060914B016C1980916F0188190E942504CF
S1130E7080914B01682F680D8C0D8B190E942504FD
S1130E8080914B01682F68198C0D8B190E942504E1
S1130E9080914B01682F680D8C198B190E942504D1
S1130EA080914B01682F68198C198B190E942504B5
S1130EB0F7FE07C086E090E0E80EF91EE60CF71C8A
S1130EC010C0C4018C199D09880F991F880F991FA0
S1130ED0EAE0F0E0EE0EFF1EE80EF91E0894C108E9
S1130EE0D1080894811C911C24E030E0620E731E2A
S1130EF0C814D9040CF09CCF809133018D7F5EC25D
S1130F0000E010E08F2D800F9091700160914C01F2
S1130F10890F0E94E401E0916201F0916301E08194
S1130F2085E0E802F0011124E00FF11FEE50F040DB
S1130F30C895E02D6E2F81E00E94C5010F5F1F4F01
S1130F4005301105F9F635E0F30E809170016091DA
S1130F504C018F0D0E94E40160E081E00E94C50114
S1130F60F3948091620190916301019690936301DF
S1130F7080936201E0916201F09163018081882392
S1130F8009F0BECF809133018E7F8093330180912D
S1130F903301813009F49DC380913301823009F417
S1130FA098C330C010926B0110922F0180E06091C1
S1130FB06B010E94E40160912E0181E00E94C50151
S1130FC080912F018F5F80932F0187FFF0CF809155
S1130FD06B018F5F80936B01883030F38091330114
S1130FE08F7E8093330180913301813009F471C382
S1130FF080913301823009F46CC3809133018F7E78
S11310008093330181E0809331010E94920161C396
S11310107090600160907101872D8619809337016B
S11310208090480190904D01981458F00F2EF0E0F4
S11310302F2EF0E03F2EF0E04F2EF0E05F2EF02D4B
S113104025C0682D772769197109882777FD809550
S1131050982F0E94A90D7B018C01672D77276619B3
S11310607109882777FD8095982F0E94A90D9B010F
S1131070AC01C801B7010E94460D1B012C0182E09E
S113108080933801882D8919809336018914E8F5F5
S1131090692D772768197109882777FD8095982F1E
S11310A00E94A90D5B016C01672D772767FD709580
S11310B0872F972F0E94A90D7B018C0177FE08C012
S11310C020E030E040E853E40E94040D7B018C01F1
S11310D0662D7727882777FD8095982F0E94A90D84
S11310E09B01AC01C801B7010E94030D9B01AC0137
S11310F0C601B5010E94460D1B012C0181E08093BD
S11311003801892D88198093360190913601809198
S11311103701891748F480913601609137010E94A4
S11311206B0E8093350102C010923501891461F46D
S1131130109238010F2EF0E02F2EF0E03F2EF0E059
S11311404F2EF0E05F2EF02D6714E9F41092390170
S11311500CC080913901680F809171010E942504AF
S1131160809139018F5F8093390120913901609119
S11311704D013327809148019927861B910928172F
S113118039073CF318C11092390107C18091380125
S1131190813009F098C0109234018DC060914D01E6
S11311A07727882777FD8095982F0E94A90D5B01EA
S11311B06C011091390190903401612F772767FDFC
S11311C07095872F972F0E94A90D17FF06C020E066
S11311D030E040E853E40E94040D9B01AC01C201DD
S11311E0B1010E94230E9B01AC01C601B5010E940E
S11311F0030D7B018C01692D7727882777FD809566
S1131200982F0E94A90D9B01AC01C801B7010E944F
S1131210040D7B018C01609148017727882777FDB5
S11312208095982F0E94A90D9B01AC01C801B701BC
S11312300E94B60D8823D4F11091390190903401A5
S113124080903901612F772767FD7095872F972F3D
S11312500E94A90D17FF06C020E030E040E853E4E7
S11312600E94040D9B01AC01C201B1010E94230E36
S11312709B01AC01C601B5010E94030D7B018C01E9
S1131280692D7727882777FD8095982F0E94A90DCF
S11312909B01AC01C801B7010E94040D0E948C0D92
S11312A020917101882D820F0E94250480913401C0
S11312B08F5F8093340190913401809135018917B7
S11312C008F06CCF65C080913801823009F055C0B8
S11312D0109234014AC010913901B0903401A090A9
S11312E0390160914D017727882777FD8095982FE4
S11312F00E94A90D6B017C01612F772767FD709512
S1131300872F972F0E94A90D17FF06C020E030E019
S113131040E853E40E94040D9B01AC01C201B101F9
S11313200E94230E9B01AC01C701B6010E94040D6B
S11313307B018C016B2D7727882777FD8095982F6B
S11313400E94A90D9B01AC01C801B7010E94040DC4
S11313500E948C0D209171018A2D820F0E94250418
S1131360809134018F5F8093340190913401809196
S11313703501891708F0AFCF0BC08091380188235D
S113138039F48091390160914D01840F0E94250444
S1131390809139018F5F8093390120913901409107
S11313A071013327809160019927841B9109821769
S11313B093070CF0EBCE80913301877F8093330148
S11313C088C110923D0194C080914E019927877085
S11313D09070892B71F520915C01822F9927877079
S11313E09070892B31F526952695269520933B01FF
S11313F010923C0118C090913C0180913D01609194
S11314004E01669566956695690F90917201890FF4
S11314100E94E4016FEF81E00E94C50180913C01CC
S11314208F5F80933C0190913C0180913B01981720
S113143010F320915C012830E0F560914E01862F75
S1131440992787709070892BA1F580913B0188239F
S113145001F5277020933B0110923C0141E050E0DC
S113146012C080913A0120913C01FA0102C0EE0FB2
S1131470FF1F2A95E2F78E2B80933A0180913C015D
S11314808F5F80933C0190913C0180913B019817C0
S113149040F380913D016695669566959091720141
S11314A0890F0E94E40160913A0181E00E94C50124
S11314B01AC010923C0111C060913C0180913D0121
S11314C090914E01690F90917201890F0E94250439
S11314D080913C018F5F80933C0190913C0180910D
S11314E05C01981748F380913D018F5F80933D0123
S11314F090913D0180914501981708F465CF809142
S113150033018F7D5BCF8FB7F894992710926901CF
S11315101092680110927A01109279011092470199
S11315201092460110926601109265018FBFD1C0DE
S11315302FB7F894332780915E0180931E0182E0D7
S1131540809330012FBF80911E01882309F0C1C010
S113155019821A82C09A2FB7F894332780916400B5
S11315608260809364002FBF2FB7F8943327809153
S113157065008260809365002FBF80913E018130B9
S113158009F0A7C06FEF8FEF0E94720119820BC0A0
S11315901A8203C08A818F5F8A838A818F3FD1F741
S11315A089818F5F898389818F3F91F76DE18DE117
S11315B00E9472018983898180FFF8CF60E088E40A
S11315C00E94720166E089E40E9472016FEF8AE46E
S11315D00E9472016FE18BE40E94720160E08CE46E
S11315E00E94720166E08DE40E94720160E084E46E
S11315F00E94720160E085E40E94720181E00E9411
S11316007E0182E00E947E0161E080E40E9472011A
S113161060E081E40E94720162E382E40E9472014C
S11316206EEE8AE40E94720165E08BE40E9472010E
S113163062E184E40E94720162E186E40E94720124
S11316406CE087E40E94720183E00E947E0167EAF5
S113165081E40E94720162E780E40E9472016AE8F8
S113166083E40E94720165EF82E40E9472016BE6DA
S113167085E40E9472016CE284E40E94720182E0BB
S11316800E947E0164E184E50E947201898360EB1B
S113169086E50E94720189836AE087E50E947201EF
S11316A0898382E00E947E0164E084E00E947201EA
S11316B0898389818BBBF5CF81E080931B011092D4
S11316C02D01379831CA80912C01E82EFF2487011F
S11316D00ECA22960FB6F894DEBF0FBECDBFDF91BF
S11316E0CF911F910F91FF90EF90DF90CF90BF901B
S11316F0AF909F908F907F906F905F904F903F90AE
S11317002F900895809174018F3FB1F0282F3327D3
S1131710F901E15BFE4F8081809374018F3F11F4E6
S113172080937B018FEF80832F3F31F0822F0E94C3
S1131730DA0481E090E0089580E090E00895CDEF30
S1131740D0E1DEBFCDBF1FB7F8944DE050E06FEF9E
S113175070E08FE491E00E94FC0C8FEF80937401A1
S113176080937B0181E08EBD83E083BF4CB55DB582
S11317708AE78A8309C02CB53DB52417350718F4C8
S11317808A8181508A83A9018A818823A1F782B73B
S1131790898392B789819817E1F32CB53DB582B757
S11317A0898392B789819817E1F38CB59DB5821B23
S11317B0930B409665E0969587956A95E1F790932B
S11317C076018093750113BE83B78EBD8EB580BF3D
S11317D012BE1DBC1CBC8FEF86BF86B780937C00F5
S11317E080B7992787709070892BD1F715BA8FEF3E
S11317F084BB16B880E285BF0E94820B8823E1F780
S1131800109267010E94820B8823E1F7812F9927A8
S11318108FBF789410923F011092280110922901F1
S113182010922A0110922B018FEF8ABB10923F0174
S113183031C0109228011092290110922A011092AD
S11318402B0116C080913F018BBB809128019091A0
S11318502901A0912A01B0912B010196A11DB11D6E
S11318608093280190932901A0932A01B0932B011E
S11318708091280190912901A0912A01B0912B0116
S11318808F3F9105A105B105E8F280913F018F5F7B
S113189080933F0190913F019F3F59F682B18C6F35
S11318A082B98AB39ABB83B1837083B91BBA1F9A76
S11318B06FE380E00E94C50110922E0110926B012B
S11318C010922F0180E060916B010E94E40160910D
S11318D02E0181E00E94C50180912F018F5F8093CA
S11318E02F0187FFF0CF80916B018F5F80936B0195
S11318F0883030F380913E01882309F04DC0B89AB6
S1131900C09ABC9AC49A1FB7F89480913001882376
S113191081F40E946001BA9ABB98B99A6C9A80E0EB
S11319200E949702709A6B986A98689881E00E9466
S11319306001812F99278FBF8FB7F894082F112743
S1131940202F80913001882351F481E0809330016D
S113195010925E018CE00E9492010FBF1AC0809128
S11319605F018F3F89F4E0911D01EE2369F03EC0D1
S113197010921C0104C0FF27E15AFE4F10821092FE
S11319801D0180E090E002C085E090E02FBF81302F
S113199019F081E080933E018FB7F894482F5527C2
S11319A07FEFECE8F0E0C895602D08C085B7837E32
S11319B08062862B85BF78948895F8948091740111
S11319C08F3FA1F3282F3327F901E15BFE4F90816C
S11319D0909374019F3F11F490937B0170832F3F88
S11319E029F34FBF822F0E94DA04D6CF80911C01C5
S11319F08F3F09F0C0CFBCCFDC0101C06D934150D3
S1131A005040E0F708955058192EEFD001D0D2C0BD
S1131A10BA176207730784079507B1F188F40EF4C7
S1131A2010940B2EBA2FA02D062E622F202D072ED8
S1131A30732F302D082E842F402D092E952F502DD5
S1131A40FF275523B9F0591B49F0573E98F04695A6
S1131A5037952795A795F0405395C9F776F0BA0FB7
S1131A60621F731F841F30F4879577956795B79528
S1131A70F040939517FA0F2E0895BF1BBB27BA0B9E
S1131A80620B730B840BF6CFDEF6DBC0AED001D055
S1131A9091C0552359F0992369F09F575F57951BBF
S1131AA033F442F4903811F4915805C09BC0915816
S1131AB09F3F09F4C6C0BB2711246217730784072C
S1131AC030F4660F771F881FBB1F915098F311D015
S1131AD00F920FD00F920DD0A0E8261737074807B2
S1131AE01B0609F0A048BA2F602D7F918F91002426
S1131AF00895A0E80024621773078407B10528F04D
S1131B00621B730B840BB1090A2A660F771F881FA7
S1131B10BB1FA69581F7089597FB73D09F3738F0C4
S1131B20FEE9F91B982F872F762F6B2F05C086C0EF
S1131B309695879577956795F150D0F73EF49095F3
S1131B408095709561957F4F8F4F9F4F0895E894CE
S1131B5003C097FB0EF4F3DFB62F672F782F892F7E
S1131B609EE9002427C00ED05EF004C00BD026F0FE
S1131B7001C008D019F020F48FEF089580E0089593
S1131B8081E0089597FB092E052600F8689430D06B
S1131B90E89407FC07C0621773078407950721F0D0
S1131BA008F400940794989408959A95BB0F661FBF
S1131BB0771F881F11249923A1F08823B2F79F3F30
S1131BC059F0BB0F48F421F4002011F460FF04C065
S1131BD06F5F7F4F8F4F9F4F881F9795879597F91A
S1131BE008952CC09FEF80EC0895052E092607FA6E
S1131BF0440F551F5F3F79F0AA27A51708F051E05D
S1131C004795880F991F9F3F31F0BB27B91708F0FC
S1131C1091E0879508959F919F911124E3CF97FBBD
S1131C20880F991F9F3F31F0BB27B91708F091E047
S1131C30879508959F919F911124D4CF6627772784
S1131C40882799270895D1DF01D0B4CF992339F09B
S1131C50552329F09F575F57950F13F49AF1F1CF4D
S1131C6091589F3FE1F3629FA12D0F92BB27639F81
S1131C70A00DB11DEE27729FA00DB11DEE1FAF93F5
S1131C80AA27649FB00DE11D739FB00DE11DAA1F2B
S1131C906627829FB00DE11DA61F5527749FE00D96
S1131CA0A11D551F839FE00DA11D561F849FA00DEC
S1131CB0511D852F7A2F6E2F1F900F9088231AF4B1
S1131CC0939539F48FCF000C111CBB1F661F771F2F
S1131CD0881F01280895991B79E004C0991F96175D
S1131CE008F0961B881F7A95C9F780950895FFCF51
S1131CF050726573732052696768742F546F700053
S1131D0043616C696272617465640001FFFFFF36B0
S10B1D100080006103200300C0
S9030000FC
