S01A00006275696C642F626967415652362F6D61696E2E73726563A6
S11300000C9439010C9458010C9458010C94580127
S11300100C9458010C9458010C9458010C945801F8
S11300200C9458010C9458010C9458010C945801E8
S11300300C9458010C9458010C9458010C945801D8
S11300400C9458010C9497030C9458010C94580187
S11300500C9458010C9425030C9458010C945801E9
S11300600C9458010C9458010C9458010C945801A8
S11300700C9458010C9458010C9458010C94580198
S11300800C9458010C9458010C94580100081C1845
S11300901410000000000000005F000000070007CB
S11300A000147F147F14242A7F2A12231308646205
S11300B036495522500005030000001C224100006F
S11300C041221C00082A1C2A0808083E080800507F
S11300D030000008080808080060600000201008CC
S11300E004023E5149453E00427F4000426151496D
S11300F0462141454B311814127F10274545453997
S11301003C4A4949300171090503364949493606D3
S11301104949291E00363600000056360000000802
S1130120142241141414141441221408000201511D
S11301300906324979413E7E1111117E7F494949B0
S1130140363E414141227F4141221C7F4949494178
S11301507F090901013E414151327F0808087F00AF
S1130160417F41002040413F017F081422417F40EC
S11301704040407F0204027F7F0408107F3E4141DB
S1130180413E7F090909063E4151215E7F09192933
S113019046464949493101017F01013F4040403F02
S11301A01F2040201F7F2018207F6314081463033E
S11301B004780403615149454300007F414102042E
S11301C008102041417F0000040201020440404025
S11301D04040000102040020545454787F484444B1
S11301E0383844444420384444487F3854545418DC
S11301F0087E090102081454543C7F080404780062
S1130200447D40002040443D00007F1028440041CC
S11302107F40007C041804787C0804047838444443
S113022044387C14141408081414187C7C0804043E
S1130230084854545420043F4440203C4040207C0F
S11302401C2040201C3C4030403C44281028440CD6
S11302505050503C4464544C440008364100000063
S11302607F0000004136080008082A1C08081C2AE0
S1130270080811241FBECFEFD0E1DEBFCDBF11E0CF
S1130280A0E0B1E0EAE4F2E200E00BBF02C00790B4
S11302900D92A836B107D9F712E0A8E6B1E001C083
S11302A01D92A530B107E1F70E94610E0C94241150
S11302B00C9400008FB7F894992708958FBF089580
S11302C0882311F06E9A08956E9808951F93182F3D
S11302D081E00E9460011FB9779BFECF8FB19927FF
S11302E01F9108951F93162FC0980E946601812FB5
S11302F00E946601C09A99271F9108951F93182F91
S1130300C0988FEB0E94660183E00E946601C09A48
S1130310C0988FE90E946601812F0E946601C09AED
S11303201F910895282F9FB7F894E82FFF27EE53C5
S1130330FE4F80818F3F81F4E0910402E21771F453
S11303400BC02093FD0104C0FF27EE53FE4F208312
S11303502093040220E007C025E005C08091FD0140
S11303608F3F91F7EECF892F99278FBF822F99273F
S113037008950F931F93982F1FB7F89480917001DD
S1130380823099F580915F01891779F580915D013B
S113039020E030E08F3F11F421E030E0232BF1F432
S11303A09FEF90935F018F3F19F42FEF30E00DC062
S11303B0282F3327F901EE52FE4F808180935D018F
S11303C08F3F11F490935E0190832093D10181E0DB
S11303D0809370018CE00E94920105C08FEF80939E
S11303E05F011092700101E001C000E0812F9927A4
S11303F08FBF1FB7F89480917001882311F40E9475
S11304006001812F99278FBF90E0013009F491E0BA
S113041081E09827892F99271F910F910895809340
S11304207101813011F40E94920108956093E301F7
S11304304093B5019093D6018093D50187E00E9443
S113044092010895982F969596959695EAEDF1E088
S1130450E90FF11D877021E030E002C0220F331F45
S11304608A95E2F780818223992708950F931F9339
S1130470CF93DF93182F8FB7F894282F3327022FA9
S113048080916D01882359F581E080936D0110936B
S1130490E6012FBF8FB7F8949927379A8FBF8FB78C
S11304A0F894C82FDD279C2F80915C018130A9F43A
S11304B080916D01813021F482E00E94920109C093
S11304C0823059F48091E60180935C0183E080934B
S11304D06D01CFBF80E090E025C09FBFFBCF80912E
S11304E0E601811711F42FBFF5CF812F0E9422025C
S11304F0882319F085E090E014C0E12FE695E69595
S1130500E695FF27E652FE4F177081E090E002C0A7
S1130510880F991F1A95E2F72081282B208380E009
S113052090E00FBFDF91CF911F910F910895882321
S113053011F06F9A08956F980895809101028823AD
S113054021F02FE1F0E0E0E008C0F7E0E1E08FB750
S1130550F89499272091B2018FBF622FAFB7F89416
S11305608091D0018E7F8093D00187B1782F7F71E5
S11305702E2F332782958695869583709927281781
S1130580390719F080E090E013C0862F8850863137
S113059018F081E090E00CC040E050E0262F3327B3
S11305A0872F99272817390711F441E050E0CA0131
S11305B0982F9170990F8091D0018178262F2F71F7
S11305C0422F440F440F892B842B8093D001E29552
S11305D0EE0FEE0FE07C2E2B332727B9F83059F5B8
S11305E08091FE019091FF0121E08638920718F076
S11305F087E090E01FC0833C910518F086E090E00E
S113060019C08136910518F085E090E013C080335D
S1130610910518F084E090E00DC08831910518F040
S113062083E090E007C00C9718F082E090E002C0ED
S113063080E090E0F82FF770887D8F2B886D9927E4
S113064086B98A2F99278FBF08951F920F920FB6EC
S11306500F9211242F933F934F935F936F937F9344
S11306608F939F93AF93BF93EF93FF9344B155B18F
S113067078948FB7F89499272091D001322F36952A
S1130680317021708FBF2223D9F433988091D70120
S1130690813021F0823009F039C00AC0332351F08F
S11306A05093E0014093DF0183E00E9492012EC049
S11306B0332319F40E949D0229C01092D70126C049
S11306C08FB7F89499278FBF2FB7F894332786B143
S11306D0582F5770482F4072987D942B952B807417
S11306E0977B982B90619F77892F992786B9887D6E
S11306F0842B852B87738061992786B9887D842B09
S1130700852B877B8069992786B92FBFFF91EF914D
S1130710BF91AF919F918F917F916F915F914F9115
S11307203F912F910F900FBE0F901F9018951F921D
S11307300F920FB60F9211248F929F92AF92BF9295
S1130740CF92DF92EF92FF920F931F932F933F93D9
S11307504F935F936F937F938F939F93AF93BF93C5
S1130760CF93DF93EF93FF932FB1E091DB01F091EF
S1130770DC01309739F08091D8019091D901E80FCC
S1130780F91F20838091D8019091D901019690930B
S1130790D9018093D80180E00E949702C091D801CA
S11307A0D091D9018091930190919401C817D907F0
S11307B008F044C000910202109103028090DB0112
S11307C09090DC012AE0A22EB12CAC0EBD1E8A153D
S11307D09B0508F45C016401CC0EDD1E7801EC0E6F
S11307E0FD1E15C00115110519F0F701808101C026
S11307F080E00E9466018114910411F0F601808367
S113080021960894C11CD11C0894E11CF11CC5015B
S11308100197C817D90730F381E00E9497020115A8
S1130820110531F00C0F1D1FF80180818FB901C033
S11308301FB8D093D901C093D80111C01092DC0124
S11308401092DB01109203021092020210929401A2
S1130850109293011092D9011092D8018FB1FF9197
S1130860EF91DF91CF91BF91AF919F918F917F9144
S11308706F915F914F913F912F911F910F91FF9035
S1130880EF90DF90CF90BF90AF909F908F900F909C
S11308900FBE0F901F9018950F931F93CF93DF9364
S11308A0182F0FB7F89480917001882381F40E9467
S11308B06001BA9ABB98B99A6C9A80E00E94970238
S11308C0709A6B986A98689881E00E946001802F02
S11308D099278FBF8FB7F894C82FDD272C2F8091CD
S11308E07001882361F481E0809370011093D10139
S11308F08CE00E949201CFBF80E090E021C0E12F04
S1130900FF27EE52FE4F80818F3F89F4E0915E0114
S1130910E11789F40CC010935D0104C0FF27EE5267
S1130920FE4F108310935E0180E090E002C085E0EA
S113093090E02FBF05C080915D018F3F79F7EBCF29
S1130940DF91CF911F910F910895DF92EF92FF9263
S11309500F931F93CF93DF93EC018B017A01D22E77
S1130960809173018230C9F480E00E944C0481308C
S1130970A1F0D0927401D0938D01C0938C01109397
S11309808F0100938E01F0929101E092900184E036
S11309908093730180E090E002C081E090E0DF91F9
S11309A0CF911F910F91FF90EF90DF9008950F93D7
S11309B01F93182F062F84E00E9492011E9A112380
S11309C031F483B18F7C83B98FEF8ABB02C01D9849
S11309D01C9A0BBB00000000000000000000000097
S11309E0000000001E981F910F9108951F93162F69
S11309F0803418F41B9A1A9802C01A9A1B988F73A1
S1130A008064682F80E00E94D7041F73186B612FE5
S1130A1080E00E94D7041F910895DF92EF92FF9225
S1130A200F931F93D82E062FE62EE694E694E694B1
S1130A306E2D0E94F604FF2484E00E94920183B18B
S1130A40806683B91C9A1ABA0000000000000000F6
S1130A50000000000000000019B383B18F7983B94E
S1130A608FEF8ABBF39482E0F81631F76E2D8D2D4B
S1130A700E94F604077081E090E002C0880F991F7D
S1130A800A95E2F7182B612F81E00E94D7041F9189
S1130A900F91FF90EF90DF90089581E080938101A2
S1130AA02FB7F8943327E4E6F0E0808188608083F0
S1130AB02FBF2FB7F89433278081806180832FBFA5
S1130AC0E1E6F0E080818E7F808380818D7F80836A
S1130AD02FB7F8943327E5E6F0E0808188608083BF
S1130AE02FBF2FB7F894332780818F7E80832FBF49
S1130AF0E2E6F0E080818E7F808380818D7F808339
S1130B008FB7F89499271092B2018FBF80E00E94AA
S1130B10360208959C018038910508F0F9C06034CC
S1130B20710508F0F5C08F36910508F4D7C063331A
S1130B30710508F4D3C031E03093B8018BEB809396
S1130B40B9011092BA0180E58093BB011092BF01F4
S1130B501092BE0189E38093BD011092BC0180E034
S1130B6091E09093C1018093C00185E48093E701F3
S1130B701092E8011092E9018DE48093EA0186E67F
S1130B8096E69093EC018093EB011092EE011092A3
S1130B90ED018FEF8093EF0181E18093F0011092DA
S1130BA0F2011092F10120EC2093F30198EA909362
S1130BB0F4011092F5018AE08093F6012093F70185
S1130BC09093F8011092F9013093FA0188EB91E0C7
S1130BD09093FC018093FB01E7EEF1E020E030E02C
S1130BE040E050E081919191AA27BB27280F391F3B
S1130BF04A1F5B1F81E0EB3FF80739F0F3CF4070E9
S1130C005070280F391F4A1F5B1FCA01AA27BB2730
S1130C100097A105B10599F7209530954095509519
S1130C20C9012093F101892F99278093F201309112
S1130C30F7018091F3018323A9F42091F8018091B5
S1130C40F401822379F49091F9018091F5018923CB
S1130C5049F43093AE012093AF019093B001809199
S1130C60FA0109C080EC8093AE0188EA8093AF0159
S1130C701092B00181E08093B1018FEF80938601DF
S1130C8080938701809388018093890180938A01EE
S1130C9080938B0120E04CE150E066E871E086E946
S1130CA091E00E94A5041092860186E18093870159
S1130CB08BEC809388018AEC809389018DE5809385
S1130CC08A0183E580938B0121E04DE450E066E8DE
S1130CD071E087EE91E00E94A504089540E4461B6C
S1130CE080917501842F992701968134910584F4AC
S1130CF0809175018460809375012093E101409394
S1130D00B30181E08093DD018093D40185E003C0C9
S1130D1081E0809371010E94920108952F923F9285
S1130D204F925F926F927F928F929F92AF92BF92F7
S1130D30CF92DF92EF92FF920F931F93CF93DF93A3
S1130D40CDB7DEB722970FB6F894DEBF0FBECDBF86
S1130D50863009F40BC2873090F4833009F444C020
S1130D60843030F4813029F1823009F074C724C012
S1130D70843009F4ADC1853009F06DC717C08930DE
S1130D8009F4FDC28A3030F4873071F0883009F0FC
S1130D9062C7C1C28B3009F46DC58B3008F4C8C476
S1130DA08C3009F058C77BC5FF2498C2EE24FF2479
S1130DB0B4C10E944D054FC72FB7F89433278091D3
S1130DC0E60180935C0183E080936D012FBF8091E5
S1130DD05C01882309F03FC781E08093D70110921A
S1130DE001020E949D0237C71092D701A090DF0133
S1130DF0B090E00180910102882309F02CC78FB7DD
S1130E00F894C82E80916D01833009F041C080911F
S1130E105C018823E9F58091DA01882309F015C77C
S1130E200DC7ED2DE695E695E695FF274D2D552743
S1130E30E652FE4F9A012770307081E090E002C0C4
S1130E40880F991F2A95E2F7809520812823208313
S1130E5000936C0112C00F5F1F4F0130110511F494
S1130E6000E010E0D02E802F0E9422028823C9F6D1
S1130E700E151F0581F74FEF50E04093E6018FEF09
S1130E8080935C0181E080936D0182E00E94920175
S1130E90CFBE9FB6F89480918101823091F0833067
S1130EA020F4813009F011C106C0833091F18430FF
S1130EB009F00BC134C0B0928301A092820182E098
S1130EC01DC02FE1A216B104E0F0809171018130C0
S1130ED019F41092710156C0B0928301A09282015C
S1130EE080916500877F80936500809165008061B3
S1130EF08093650081E08093B20183E08093810157
S1130F00E1C080917101813009F0DCC00E9492013E
S1130F10DCC0B0928501A092840184E0EFCF3DE370
S1130F20A316B10408F4CEC0B0928501A092840146
S1130F3085E080938101809162008D7F80936200BF
S1130F40E0908401F0908501009182011091830169
S1130F50809172018130C9F41093610100936001A2
S1130F60F0926301E092620182E080937201109238
S1130F706E0188E00E94920140E067E281E391E023
S1130F800E9416020E944D05A0C080917201823019
S1130F9049F580916001909161018C599F4F8017B0
S1130FA0910780F780916201909163018C599F4F62
S1130FB08E159F0538F71093650100936401F09234
S1130FC06701E092660183E08093720110926E01E2
S1130FD088E00E94920140E26EE181E491E00E9487
S1130FE0160273C080916401909165010817190776
S1130FF008F061C0809160019091610180179107B0
S113100008F059C08091660190916701E816F906CD
S113101008F051C080916201909163018E159F0583
S113102008F049C006531040B801882777FD809521
S1131030982F0E94561017FF06C020E030E040E8C9
S113104057E40E94B10F20E030E84AE454E40E94DF
S1131050F30F5B016C01870100581040B801882729
S113106077FD8095982F0E94561017FF06C020E048
S113107030E040E857E40E94B10F20E030E048E25D
S113108054E40E94F30F20E030E040E852E40E9470
S1131090D0100E9439107B018C0120E030E040E048
S11310A053E4C601B5010E94D0100E943910DC013E
S11310B0CB01B70104C068EC70E088EC90E00E94BA
S11310C08A0503C080E00E943602892D9927E5C372
S11310D01ABA1D9A1C981E9A06C01E980000000099
S11310E01E9A00000000CF99F8CF1E981D9A8FEF2A
S11310F08ABBB1C56091B301610F8091E1010E9487
S11311000D058091B301180F8091E1019091DD01EB
S1131110890F612F81500E940D051E2D0894E11C3A
S1131120F11C8091D401181728F3EE24FF2412C077
S11311308091E1016091B301810F0E940D056091DE
S1131140B3018091D401680F61508091E101810F56
S11311500E940D051E2D0894E11CF11C8091DD01F7
S1131160181730F3809175018B7F03C1B090B401DF
S11311708091E201B81A80910002C82EDD24C601D4
S1131180880F991F63E0E62EF12CE81AF90A8824E7
S113119099246624772460C06091B4016C0D809119
S11311A0E201880D0E940D056091B4016C198091D3
S11311B0E201880D0E940D056091B4016C0D8091CF
S11311C0E20188190E940D056091B4016C198091A7
S11311D0E20188190E940D058091B401682F680D01
S11311E08C0D8B190E940D058091B401682F68192C
S11311F08C0D8B190E940D058091B401682F680D28
S11312008C198B190E940D058091B401682F6819FF
S11312108C198B190E940D05F7FE07C086E090E03B
S1131220E80EF91EE60CF71C10C0C4018C199D09C8
S1131230880F991F880F991FEAE0F0E0EE0EFF1E59
S1131240E80EF91E0894C108D1080894811C911C69
S113125024E030E0620E731EC814D9040CF09CCF55
S1131260809175018D7F61C200E010E08F2D800FA9
S11312709091E3016091B501890F0E94F604E09119
S1131280D501F091D601E08185E0E802F001112456
S1131290E00FF11FEE50F040C895E02D6E2F81E075
S11312A00E94D7040F5F1F4F05301105F9F635E092
S11312B0F30E8091E3016091B5018F0D0E94F60455
S11312C060E081E00E94D704F3948091D50190916D
S11312D0D60101969093D6018093D501E091D50172
S11312E0F091D6018081882309F0BECF80917501E9
S11312F08E7F8093750180917501813009F4ABC4B0
S113130080917501823009F4A6C481E08093710153
S11313100E949201A0C41092DE0110926F0180E03D
S11313206091DE010E94F60460916E0181E00E94EA
S1131330D70480916F018F5F80936F0187FFF0CF97
S11313408091DE018F5F8093DE01883030F38091DD
S113135075018F7E8093750180917501813009F448
S11313607AC480917501823009F475C48091750145
S11313708F7E8093750181E00E940F026CC470908F
S1131380D3016090E401872D8619809379018090C0
S113139095019090B601981458F00F2EF0E02F2E7E
S11313A0F0E03F2EF0E04F2EF0E05F2EF02D25C050
S11313B0682D772769197109882777FD8095982FFB
S11313C00E9456107B018C01672D772766197109DD
S11313D0882777FD8095982F0E9456109B01AC01B9
S11313E0C801B7010E94F30F1B012C0182E0809316
S11313F07A01882D8919809378018914E8F5692D7B
S1131400772768197109882777FD8095982F0E949E
S113141056105B016C01672D772767FD7095872F48
S1131420972F0E9456107B018C0177FE08C020E0A4
S113143030E040E853E40E94B10F7B018C01662D3B
S11314407727882777FD8095982F0E9456109B0157
S1131450AC01C801B7010E94B00F9B01AC01C601E9
S1131460B5010E94F30F1B012C0181E080937A01E6
S1131470892D881980937801909178018091790160
S1131480891748F480917801609179010E941811BC
S11314908093770102C010927701891461F410924D
S11314A07A010F2EF0E02F2EF0E03F2EF0E04F2EC9
S11314B0F0E05F2EF02D6714E9F410927B010CC06C
S11314C080917B01680F8091E4010E940D05809159
S11314D07B018F5F80937B0120917B016091B6013A
S11314E03327809195019927861B9109281739077D
S11314F03CF318C110927B0107C180917A018130BD
S113150009F098C0109276018DC06091B6017727DA
S1131510882777FD8095982F0E9456105B016C01F7
S113152010917B0190907601612F772767FD70956C
S1131530872F972F0E94561017FF06C020E030E037
S113154040E853E40E94B10F9B01AC01C201B10118
S11315500E94D0109B01AC01C601B5010E94B00FDE
S11315607B018C01692D7727882777FD8095982F3B
S11315700E9456109B01AC01C801B7010E94B10F33
S11315807B018C01609195017727882777FD8095F1
S1131590982F0E9456109B01AC01C801B7010E940C
S11315A063108823D4F110917B0190907601809090
S11315B07B01612F772767FD7095872F972F0E94F6
S11315C0561017FF06C020E030E040E853E40E94C4
S11315D0B10F9B01AC01C201B1010E94D0109B016B
S11315E0AC01C601B5010E94B00F7B018C01692DCD
S11315F07727882777FD8095982F0E9456109B01A6
S1131600AC01C801B7010E94B10F0E9439102091AA
S1131610E401882D820F0E940D05809176018F5F71
S1131620809376019091760180917701891708F073
S11316306CCF65C080917A01823009F055C0109258
S113164076014AC010917B01B0907601A0907B0195
S11316506091B6017727882777FD8095982F0E949F
S113166056106B017C01612F772767FD7095872FDA
S1131670972F0E94561017FF06C020E030E040E884
S113168053E40E94B10F9B01AC01C201B1010E945D
S1131690D0109B01AC01C701B6010E94B10F7B01C0
S11316A08C016B2D7727882777FD8095982F0E94D2
S11316B056109B01AC01C801B7010E94B10F0E94F2
S11316C039102091E4018A2D820F0E940D0580912A
S11316D076018F5F809376019091760180917701F6
S11316E0891708F0AFCF0BC080917A01882339F4B1
S11316F080917B016091B601840F0E940D05809159
S11317007B018F5F80937B0120917B014091E401F9
S113171033278091D3019927841B9109821793075A
S11317200CF0EBCE80917501877F8093750193C295
S113173010927F0194C08091B701992787709070AF
S1131740892B71F52091CF01822F99278770907092
S1131750892B31F526952695269520937D011092A7
S11317607E0118C090917E0180917F016091B70144
S1131770669566956695690F9091E501890F0E94BB
S1131780F6046FEF81E00E94D70480917E018F5FA1
S113179080937E0190917E0180917D01981710F3D2
S11317A02091CF012830E0F56091B701862F992769
S11317B087709070892BA1F580917D01882301F5B4
S11317C0277020937D0110927E0141E050E012C009
S11317D080917C0120917E01FA0102C0EE0FFF1F6F
S11317E02A95E2F78E2B80937C0180917E018F5F96
S11317F080937E0190917E0180917D01981740F342
S113180080917F016695669566959091E501890FB3
S11318100E94F60460917C0181E00E94D7041AC002
S113182010927E0111C060917E0180917F019091A0
S1131830B701690F9091E501890F0E940D05809110
S11318407E018F5F80937E0190917E018091CF0114
S1131850981748F380917F018F5F80937F01909167
S11318607F0180919201981708F465CF80917501EA
S11318708F7D5BCF8FB7F89499271092DC0110927B
S1131880DB01109203021092020210929401109252
S113189093011092D9011092D8018FBFDCC12FB7E8
S11318A0F89433278091D10180935F0182E0809383
S11318B070012FBF80915F01882309F0CCC1198288
S11318C01A82C09A2FB7F8943327809164008260FB
S11318D0809364002FBF2FB7F8943327809165005D
S11318E08260809365002FBF80917301813021F065
S11318F0843009F0B0C1B8C06FEF8FEF0E9472015D
S113190019820BC01A8203C08A818F5F8A838A81FD
S11319108F3FD1F789818F5F898389818F3F91F7C9
S11319206DE18DE10E9472018983898180FFF8CF86
S113193060E088E40E94720166E089E40E9472011A
S11319406FEF8AE40E9472016FE18BE40E947201DE
S113195060E08CE40E94720166E08DE40E947201F2
S113196060E084E40E94720160E085E40E947201F8
S113197060E88EE50E94720181E00E947E0182E0AF
S11319800E947E0161E080E40E94720160E081E4D3
S11319900E94720162E382E40E9472016EEE8AE4A4
S11319A00E94720165E08BE40E94720162E184E4AA
S11319B00E94720162E186E40E9472016CE087E495
S11319C00E94720183E00E947E0160E081E40E9433
S11319D0720166E180E40E9472016BEC83E40E9470
S11319E072016AEC82E40E9472016DE585E40E9452
S11319F0720165E584E40E94720182E00E947E0126
S1131A0060E184E50E947201898360E086E50E94BA
S1131A107201898361E087E50E947201898364E130
S1131A2084E50E947201898360E486E50E94720164
S1131A30898361E087E50E947201898382E0809353
S1131A40730180E00E94B9018091750180FD03C19A
S1131A508091750181608093750140E060E08CE4C1
S1131A6091E00E941602F7C080E00E947E0160E0CF
S1131A7082E40E94720160E083E40E94720160E0EB
S1131A808AE70E94720100918E0110918F01F80182
S1131A90608171818AE70E947201F801608171811D
S1131AA0672F77278AE70E947201F80162817381A8
S1131AB08AE70E947201F80162817381672F772798
S1131AC08AE70E947201F801648175818AE70E94A5
S1131AD07201F80164817581672F77278AE70E9474
S1131AE0720160E08AE70E94720166E18AE70E945F
S1131AF072016BEC8AE70E9472016AEC8AE70E9429
S1131B0072016DE58AE70E94720165E58AE70E9429
S1131B10720168E08AE70E94720180917401813049
S1131B2011F460E001C066E08AE70E947201C0908F
S1131B308C01D0908D01EE24FF248601F801608190
S1131B4071818AE70E947201F801619171918F019C
S1131B50672F77278AE70E94720122E030E0E20EC5
S1131B60F31E34E1E316F10449F7F601E488F5883D
S1131B70870188E0C82ED12CCE0CDF1CF8016081CF
S1131B8071818AE70E947201F801619171918F015C
S1131B90672F77278AE70E9472010C151D0571F7DC
S1131BA0F70100851185EE24FF2412C0F80160813D
S1131BB071818AE70E947201F801619171918F012C
S1131BC0672F77278AE70E9472010894E11CF11CB1
S1131BD0809190019091910196958795E816F90668
S1131BE028F380919001909191010E969093910128
S1131BF080939001609190017091910186E40E941C
S1131C0072016091900170919101672F772787E4A9
S1131C100E947201C0988FE90E94660188E00E94C8
S1131C206601C09A82E08093730181E08093710120
S1131C300E94920180E00E94B9010DC081E080936E
S1131C405C0110926D01379823C980916C01E82ED4
S1131C50FF24870100C922960FB6F894DEBF0FBE99
S1131C60CDBFDF91CF911F910F91FF90EF90DF9047
S1131C70CF90BF90AF909F908F907F906F905F9028
S1131C804F903F902F9008958091FD018F3FB1F0C8
S1131C90282F3327F901EE53FE4F80818093FD01F5
S1131CA08F3F11F4809304028FEF80832F3F31F034
S1131CB0822F0E948E0681E090E0089580E090E0FB
S1131CC00895CDEFD0E1DEBFCDBF1FB7F8944DE04E
S1131CD050E06FEF70E082EC91E00E94A90F8FEF6B
S1131CE08093FD018093040281E08EBD83E083BF75
S1131CF04CB55DB58AE78A8309C02CB53DB5241778
S1131D00350718F48A8181508A83A9018A8188233E
S1131D10A1F782B7898392B789819817E1F32CB52B
S1131D203DB582B7898392B789819817E1F38CB561
S1131D309DB5821B930B4096E5E096958795EA95B1
S1131D40E1F79093FF018093FE0113BE83B78EBD2C
S1131D508EB580BF12BE1DBC1CBC8FEF86BF86B77C
S1131D6080937C0080B7992787709070892BD1F776
S1131D7015BA8FEF84BB16B880E285BF0E94440E6B
S1131D808823E1F71092DA010E94440E8823E1F7D8
S1131D90812F99278FBF7894109280011092680147
S1131DA01092690110926A0110926B018FEF8ABB45
S1131DB01092800131C01092680110926901109252
S1131DC06A0110926B0116C0809180018BBB8091D7
S1131DD0680190916901A0916A01B0916B0101962B
S1131DE0A11DB11D8093680190936901A0936A01BC
S1131DF0B0936B018091680190916901A0916A018F
S1131E00B0916B018F3F9105A105B105E8F2809176
S1131E1080018F5F80938001909180019F3F59F6EC
S1131E2082B18C6F82B98AB39ABB83B1837083B950
S1131E301BBA1F9A6FE380E00E94D70410926E01D0
S1131E401092DE0110926F0180E06091DE010E9429
S1131E50F60460916E0181E00E94D70480916F01C5
S1131E608F5F80936F0187FFF0CF8091DE018F5FDA
S1131E708093DE01883030F31092960111E01093C4
S1131E80970196E09093980188E08093990190934C
S1131E909A0184E080939B0110929C0110939D0110
S1131EA010929E0110929F011092A0011092A10124
S1131EB01092A2011092A30180EC8093A40180935C
S1131EC0A5018093A6018093A7011092A801109206
S1131ED0A9011092AA011092AB011092AC011092C8
S1131EE0AD0180917301882351F4B89AC09ABC9AC9
S1131EF0C49A0E944C04813011F0109373018FB77F
S1131F00F894482F55277FEFECE8F0E0C895602D52
S1131F1008C085B7837E8062862B85BF78948895B8
S1131F20F8948091FD018F3FA1F3282F3327F90105
S1131F30EE53FE4F90819093FD019F3F11F49093D7
S1131F40040270832F3F29F34FBF822F0E948E0615
S1131F50D6CFDC0101C06D9341505040E0F70895A5
S1131F605058192EEFD001D0D2C0BA1762077307A8
S1131F7084079507B1F188F40EF410940B2EBA2F50
S1131F80A02D062E622F202D072E732F302D082E04
S1131F90842F402D092E952F502DFF275523B9F05E
S1131FA0591B49F0573E98F0469537952795A795C4
S1131FB0F0405395C9F776F0BA0F621F731F841F60
S1131FC030F4879577956795B795F040939517FA10
S1131FD00F2E0895BF1BBB27BA0B620B730B840B28
S1131FE0F6CFDEF6DBC0AED001D091C0552359F058
S1131FF0992369F09F575F57951B33F442F4903847
S113200011F4915805C09BC091589F3F09F4C6C074
S1132010BB27112462177307840730F4660F771FF8
S1132020881FBB1F915098F311D00F920FD00F92BD
S11320300DD0A0E82617370748071B0609F0A0486B
S1132040BA2F602D7F918F9100240895A0E8002479
S1132050621773078407B10528F0621B730B840BA6
S1132060B1090A2A660F771F881FBB1FA69581F73F
S1132070089597FB73D09F3738F0FEE9F91B982F2A
S1132080872F762F6B2F05C086C0969587957795F9
S11320906795F150D0F73EF49095809570956195D1
S11320A07F4F8F4F9F4F0895E89403C097FB0EF422
S11320B0F3DFB62F672F782F892F9EE9002427C0DE
S11320C00ED05EF004C00BD026F001C008D019F089
S11320D020F48FEF089580E0089581E0089597FB40
S11320E0092E052600F8689430D0E89407FC07C050
S11320F0621773078407950721F008F40094079486
S1132100989408959A95BB0F661F771F881F112412
S11321109923A1F08823B2F79F3F59F0BB0F48F4ED
S113212021F4002011F460FF04C06F5F7F4F8F4FD4
S11321309F4F881F9795879597F908952CC09FEF17
S113214080EC0895052E092607FA440F551F5F3FBA
S113215079F0AA27A51708F051E04795880F991F31
S11321609F3F31F0BB27B91708F091E08795089598
S11321709F919F911124E3CF97FB880F991F9F3F55
S113218031F0BB27B91708F091E0879508959F9126
S11321909F911124D4CF66277727882799270895FC
S11321A0D1DF01D0B4CF992339F0552329F09F57BB
S11321B05F57950F13F49AF1F1CF91589F3FE1F3D4
S11321C0629FA12D0F92BB27639FA00DB11DEE2727
S11321D0729FA00DB11DEE1FAF93AA27649FB00D8F
S11321E0E11D739FB00DE11DAA1F6627829FB00DEC
S11321F0E11DA61F5527749FE00DA11D551F839F48
S1132200E00DA11D561F849FA00D511D852F7A2F0F
S11322106E2F1F900F9088231AF4939539F48FCF63
S1132220000C111CBB1F661F771F881F012808950F
S1132230991B79E004C0991F961708F0961B881F14
S10D22407A95C9F780950895FFCF41
S113224A68656C6C6F20776F726C6421706F77703D
S113225A6F7731323334353637383930484154534D
S113226A4348204655434B494E472052554C455AFC
S113227A0050726573732052696768742F546F70C3
S113228A0043616C696272617465640073746163AA
S113229A6B20696E697420646F6E650001FFFFFF2D
S10B22AA3600800061032003EB
S9030000FC
