:100000000C9439010C949D040C94A7040C941305D2
:100010000C9446050C9450050C945A050C946405F8
:100020000C946E050C9458010C9458010C945801D2
:100030000C9458010C9458010C9458010C945801DC
:100040000C9458010C94E8030C9458010C9458013A
:100050000C9458010C9476030C9458010C9458019C
:100060000C9458010C9458010C9458010C945801AC
:100070000C9458010C9458010C9458010C9458019C
:100080000C9458010C9458010C94580100081C1849
:100090001410000000000000005F000000070007CF
:1000A00000147F147F14242A7F2A12231308646209
:1000B00036495522500005030000001C2241000073
:1000C00041221C00082A1C2A0808083E0808005083
:1000D00030000008080808080060600000201008D0
:1000E00004023E5149453E00427F40004261514971
:1000F000462141454B311814127F1027454545399B
:100100003C4A4949300171090503364949493606D7
:100110004949291E00363600000056360000000806
:100120001422411414141414412214080002015121
:100130000906324979413E7E1111117E7F494949B4
:10014000363E414141227F4141221C7F494949417C
:100150007F090901013E414151327F0808087F00B3
:10016000417F41002040413F017F081422417F40F0
:100170004040407F0204027F7F0408107F3E4141DF
:10018000413E7F090909063E4151215E7F09192937
:1001900046464949493101017F01013F4040403F06
:1001A0001F2040201F7F2018207F63140814630342
:1001B00004780403615149454300007F4141020432
:1001C00008102041417F0000040201020440404029
:1001D0004040000102040020545454787F484444B5
:1001E000383844444420384444487F3854545418E0
:1001F000087E090102081454543C7F080404780066
:10020000447D40002040443D00007F1028440041D0
:100210007F40007C041804787C0804047838444447
:1002200044387C14141408081414187C7C08040442
:10023000084854545420043F4440203C4040207C13
:100240001C2040201C3C4030403C44281028440CDA
:100250005050503C4464544C440008364100000067
:100260007F0000004136080008082A1C08081C2AE4
:10027000080811241FBECFEFD0E1DEBFCDBF11E0D3
:10028000A0E0B1E0EAEFF4E200E00BBF02C00790AB
:100290000D92AA37B107D9F712E0AAE7B1E001C081
:1002A0001D92AE31B107E1F70E94A00F0C947C12B1
:1002B0000C9400008FB7F894992708958FBF089584
:1002C000882311F06E9A08956E9808951F93182F41
:1002D00081E00E9460011FB9779BFECF8FB1992703
:1002E0001F9108951F93162FC0980E946601812FB9
:1002F0000E946601C09A99271F9108951F93182F95
:10030000C0988FEB0E94660183E00E946601C09A4C
:10031000C0988FE90E946601812F0E946601C09AF1
:100320001F9108951F93162FC09880680E94660140
:10033000812F0E946601C09A1F910895282F9FB7B0
:10034000F894E82FFF27E552FE4F80818F3F81F41C
:10035000E0911D02E21771F40BC02093160204C055
:10036000FF27E552FE4F208320931D0220E007C0A7
:1003700025E005C0809116028F3F91F7EECF892FBF
:1003800099278FBF822F9927089582E00E949E01AE
:100390009927089588E00E949E01992708950F9358
:1003A0001F931FB7F89480918201823099F5809154
:1003B0007101882379F580916F0120E030E08F3F53
:1003C00011F421E030E0232BF1F49FEF90937101C1
:1003D0008F3F19F42FEF30E00DC0282F3327F9019C
:1003E000E551FE4F808180936F018F3F11F4909310
:1003F000700190832093EA0181E0809382018CE078
:100400000E949E0105C08FEF8093710110928201BE
:1004100001E001C000E0812F99278FBF1FB7F8943A
:1004200080918201882311F40E946001812F992715
:100430008FBF90E0013009F491E081E09827892F87
:1004400099271F910F91089581E00E949E0199279D
:1004500008956093FC014093CE019093EF01809347
:10046000EE0187E00E949E0108959C018091850124
:1004700080FD0FC0613868F4483058F480918501E0
:10048000816080938501C9010E94290280E090E08B
:10049000089581E090E008950F931F93182F062F81
:1004A00084E00E949E011E9A112331F483B18F7C57
:1004B00083B98FEF8ABB02C01D981C9A0BBB00004A
:1004C00000000000000000000000000000001E9876
:1004D0001F910F9108951F93162F803418F41B9AC3
:1004E0001A9802C01A9A1B988F738064682F80E054
:1004F0000E944C021F73186B612F80E00E944C0217
:100500001F910895982F969596959695E3EFF1E0B3
:10051000E90FF11D877021E030E002C0220F331F88
:100520008A95E2F78081822399270895FF920F939D
:100530001F93CF93DF9380917E01082F1127E8014D
:100540002196C130D10511F4C0E0D0E08C2F0E947B
:1005500082028823D1F0EC2FE695E695E695FF27F9
:100560004C2F5527ED50FE4F9A012770307081E0D7
:1005700090E002C0880F991F2A95E2F780952081AC
:1005800028232083C0937E0105C0C017D107C1F680
:100590004FEF50E0CA01DF91CF911F910F91FF9073
:1005A0000895882311F06F9A08956F9808958091A7
:1005B0001A02882321F02FE1F0E0E0E008C0F7E024
:1005C000E1E08FB7F89499272091CB018FBF622F7C
:1005D000AFB7F8948091E9018E7F8093E90187B1EC
:1005E000782F7F712E2F332782958695869583707D
:1005F00099272817390719F080E090E013C0862F5B
:100600008850863118F081E090E00CC040E050E066
:10061000262F3327872F99272817390711F441E010
:1006200050E0CA01982F9170990F8091E90181786B
:10063000262F2F71422F440F440F892B842B809338
:10064000E901E295EE0FEE0FE07C2E2B332727B960
:10065000F83059F5809117029091180221E0863800
:10066000920718F087E090E01FC0833C910518F0D6
:1006700086E090E019C08136910518F085E090E0A1
:1006800013C08033910518F084E090E00DC08831EC
:10069000910518F083E090E007C00C9718F082E015
:1006A00090E002C080E090E0F82FF770887D8F2BFB
:1006B000886D992786B98A2F99278FBF08952FB7FC
:1006C000F89433278091FF0180936E0183E080933B
:1006D0007F012FBF80916E01882339F481E08093E0
:1006E000F00110921A020E94D70208951F920F92F1
:1006F0000FB60F9211242F933F934F935F936F93F5
:100700007F938F939F93AF93BF93EF93FF9344B1E6
:1007100055B178948FB7F89499272091E901322F39
:100720003695317021708FBF2223D9F43398809190
:10073000F001813021F0823009F039C00AC0332342
:1007400051F05093F9014093F80183E00E949E011B
:100750002EC0332319F40E94D70229C01092F00151
:1007600026C08FB7F89499278FBF2FB7F8943327F7
:1007700086B1582F5770482F4072987D942B952B37
:100780008074977B982B90619F77892F992786B9E2
:10079000887D842B852B87738061992786B9887D16
:1007A000842B852B877B8069992786B92FBFFF9182
:1007B000EF91BF91AF919F918F917F916F915F91D9
:1007C0004F913F912F910F900FBE0F901F90189552
:1007D0001F920F920FB60F9211248F929F92AF9299
:1007E000BF92CF92DF92EF92FF920F931F932F93BE
:1007F0003F934F935F936F937F938F939F93AF93A9
:10080000BF93CF93DF93EF93FF932FB1E091F40168
:10081000F091F501309739F08091F1019091F2015A
:10082000E80FF91F20838091F1019091F201019668
:100830009093F2018093F10180E00E94D102C09177
:10084000F101D091F2018091AC019091AD01C817F6
:10085000D90708F044C000911B0210911C0280903F
:10086000F4019090F5012AE0A22EB12CAC0EBD1E31
:100870008A159B0508F45C016401CC0EDD1E78012D
:10088000EC0EFD1E15C00115110519F0F701808150
:1008900001C080E00E9466018114910411F0F6010C
:1008A000808321960894C11CD11C0894E11CF11C82
:1008B000C5010197C817D90730F381E00E94D10222
:1008C0000115110531F00C0F1D1FF80180818FB942
:1008D00001C01FB8D093F201C093F10111C0109272
:1008E000F5011092F40110921C0210921B0210925A
:1008F000AD011092AC011092F2011092F1018FB192
:10090000FF91EF91DF91CF91BF91AF919F918F9127
:100910007F916F915F914F913F912F911F910F9117
:10092000FF90EF90DF90CF90BF90AF909F908F900F
:100930000F900FBE0F901F9018951F920F920FB639
:100940000F9211240F900FBE0F901F9018951F92B9
:100950000F920FB60F9211240F900FBE0F901F90A1
:100960001895982F809184018F5F809384018091E6
:100970008401893018F081E080938401913031F452
:100980004091840160E080E091E005C040918401E5
:1009900060E088E091E00E94350208950F931F9374
:1009A000182F062F82E00E947E01612F84E50E94AD
:1009B000720161E082E50E94720119C08091870195
:1009C000909188010196909388018093870180918E
:1009D0008701909188018436910580F38091890187
:1009E00090918A01019690938A0180938901809168
:1009F000890190918A0180589E4348F360E082E526
:100A00000E947201013019F469E189E102C068E1D4
:100A100088E10E9472018093860180918601992766
:100A20001F910F9108951F920F920FB60F921124EC
:100A30002F933F934F935F936F937F938F939F93E6
:100A4000AF93BF93EF93FF9380918301882311F0BD
:100A500081E001C080E00E94B10460E083E10E9477
:100A6000CE0461E083E10E94CE04FF91EF91BF913B
:100A7000AF919F918F917F916F915F914F913F9136
:100A80002F910F900FBE0F901F9018951F920F92ED
:100A90000FB60F9211240F900FBE0F901F90189554
:100AA0001F920F920FB60F9211240F900FBE0F904E
:100AB0001F9018951F920F920FB60F9211240F904E
:100AC0000FBE0F901F9018951F920F920FB60F92A6
:100AD00011240F900FBE0F901F9018951F920F9228
:100AE0000FB60F9211240F900FBE0F901F90189504
:100AF000DF92EF92FF920F931F93D82E062FE62ED0
:100B0000E694E694E6946E2D0E946B02FF2484E046
:100B10000E949E0183B1806683B91C9A1ABA0000B4
:100B2000000000000000000000000000000019B3F9
:100B300083B18F7983B98FEF8ABBF39482E0F81683
:100B400031F76E2D8D2D0E946B02077081E090E0D1
:100B500002C0880F991F0A95E2F7182B612F81E0D8
:100B60000E944C021F910F91FF90EF90DF9008952B
:100B700080938B01813011F40E949E0108950F93A0
:100B80001F93CF93DF93182F8FB7F894282F332715
:100B9000022F80917F01882359F581E080937F01A6
:100BA0001093FF012FBF8FB7F8949927379A8FBF03
:100BB0008FB7F894C82FDD279C2F80916E0181306C
:100BC000A9F480917F01813021F482E00E949E018E
:100BD00009C0823059F48091FF0180936E0183E057
:100BE00080937F01CFBF80E090E025C09FBFFBCF07
:100BF0008091FF01811711F42FBFF5CF812F0E9443
:100C00008202882319F085E090E014C0E12FE69578
:100C1000E695E695FF27ED50FE4F177081E090E0D6
:100C200002C0880F991F1A95E2F72081282B208394
:100C300080E090E00FBFDF91CF911F910F91089559
:100C400080E00E94BF05992708950F931F93CF93CB
:100C5000DF93182F0FB7F89480918201882381F4D5
:100C60000E946001BA9ABB98B99A6C9A80E00E947F
:100C7000D102709A6B986A98689881E00E9460012E
:100C8000802F99278FBF8FB7F894C82FDD272C2F7F
:100C900080918201882361F481E080938201109326
:100CA000EA018CE00E949E01CFBF80E090E021C06D
:100CB000E12FFF27E551FE4F80818F3F89F4E091BE
:100CC0007001E11789F40CC010936F0104C0FF2775
:100CD000E551FE4F10831093700180E090E002C058
:100CE00085E090E02FBF05C080916F018F3F79F7BD
:100CF000EBCFDF91CF911F910F91089581E0809309
:100D00009A012FB7F8943327E4E6F0E080818860F9
:100D100080832FBF2FB7F894332780818061808331
:100D20002FBFE1E6F0E080818E7F808380818D7F20
:100D300080832FB7F8943327E5E6F0E08081886060
:100D400080832FBF2FB7F894332780818F7E8083D5
:100D50002FBFE2E6F0E080818E7F808380818D7FEF
:100D600080838FB7F89499271092CB018FBF80E0D2
:100D70000E94BF0508959C018038910508F007C1C5
:100D80006034710508F003C18F36910508F4E5C0A1
:100D90006333710508F4E1C031E03093D1018BEB8E
:100DA0008093D2011092D30180E58093D4011092F8
:100DB000D8011092D70189E38093D6011092D50112
:100DC00082E191E09093DA018093D90185E48093E8
:100DD000000210920102109202028DE4809303023D
:100DE00086E696E69093050280930402109207022D
:100DF000109206028FEF8093080281E1809309022E
:100E000010920B0210920A0220EC20930C0298EA36
:100E100090930D0210920E028AE080930F022093AD
:100E2000100290931102109212023093130281ED7E
:100E300091E09093150280931402E0E0F2E020E04C
:100E400030E040E050E081919191AA27BB27280F24
:100E5000391F4A1F5B1F82E0E431F80739F0F3CFF6
:100E600040705070280F391F4A1F5B1FCA01AA2704
:100E7000BB270097A105B10599F7209530954095BE
:100E80005095C90120930A02892F992780930B025C
:100E90003091100280910C028323A9F42091110259
:100EA00080910D02822379F49091120280910E02BA
:100EB000892349F43093C7012093C8019093C90155
:100EC0008091130209C080EC8093C70188EA809367
:100ED000C8011092C90181E08093CA018FEF80930D
:100EE0009F018093A0018093A1018093A201809330
:100EF000A3018093A40180918D018230E1F480E010
:100F00000E9425068130B9F010928E018FEA91E09F
:100F10009093A6018093A5018FE991E09093A80199
:100F20008093A7018CE190E09093AA018093A9019E
:100F300084E080938D0110929F0186E18093A0014F
:100F40008BEC8093A1018AEC8093A2018DE58093C4
:100F5000A30183E58093A401089540E4461B80919A
:100F60008501842F992701968134910584F480911D
:100F700085018460809385012093FA014093CC0120
:100F800081E08093F6018093ED0185E003C081E06C
:100F900080938B010E949E0108952F923F924F9261
:100FA0005F926F927F928F929F92AF92BF92CF92F9
:100FB000DF92EF92FF920F931F93CF93DF93CDB702
:100FC000DEB722970FB6F894DEBF0FBECDBF8630D6
:100FD00009F4B8C1873088F4833079F1843030F473
:100FE000813029F1823009F075C724C0843009F4BA
:100FF0005BC1853009F06EC717C0893009F4A6C2FD
:101000008A3030F4873071F0883009F063C76AC2E3
:101010008B3009F416C58B3008F471C48C3009F09C
:1010200059C724C5FF2446C2EE24FF2462C10E9492
:101030007E0650C70E945F034DC71092F0010091D9
:10104000F8011091F90180911A02882309F042C732
:101050008FB7F894F82E80917F01833051F48091FE
:101060006E01882331F48091F301882309F41EC7AF
:1010700024C7FFBE9FB6F89480919A01823091F008
:10108000833020F4813009F00CC106C0833089F12F
:10109000843009F006C133C010939C0100939B017A
:1010A00082E01CC00F311105E0F080918B0181308E
:1010B00019F410928B0154C010939C0100939B0172
:1010C00080916500877F80936500809165008061D5
:1010D0008093650081E08093CB0183E080939A0147
:1010E000DEC080918B01813009F0D9C00E942402BA
:1010F000D8C010939E0100939D0184E0EFCF0D3383
:10110000110508F4CCC010939E0100939D0185E069
:1011100080939A01809162008D7F80936200E090BD
:101120009D01F0909E0100919B0110919C01809186
:101130008C018130C1F41093730100937201F0921D
:101140007501E092740182E080938C01109280011D
:101150000E94CA0140E067E283E491E00E94290214
:101160000E947E069EC080918C01823041F5809164
:101170007201909173018C599F4F8017910780F7EE
:1011800080917401909175018C599F4F8E159F0528
:1011900038F71093770100937601F0927901E0928D
:1011A000780183E080938C01109280010E94CA0133
:1011B00040E26EE183E591E00E94290272C08091D5
:1011C0007601909177010817190708F061C08091A6
:1011D0007201909173018017910708F059C08091B6
:1011E000780190917901E816F90608F051C08091D4
:1011F0007401909175018E159F0508F049C0065342
:101200001040B801882777FD8095982F0E94AE1175
:1012100017FF06C020E030E040E857E40E940911C3
:1012200020E030E84AE454E40E944B115B016C0179
:10123000870100581040B801882777FD8095982FC6
:101240000E94AE1117FF06C020E030E040E857E4EE
:101250000E94091120E030E048E254E40E944B1162
:1012600020E030E040E852E40E9428120E949111F0
:101270007B018C0120E030E040E053E4C601B50181
:101280000E9428120E949111DC01CB01B70104C019
:1012900068EC70E088EC90E00E94BB0602C00E94FF
:1012A0002006892D9927E0C31ABA1D9A1C981E9A08
:1012B00006C01E98000000001E9A00000000CF9992
:1012C000F8CF1E981D9A8FEF8ABB04C66091CC019F
:1012D000610F8091FA010E9478058091CC01180F6E
:1012E0008091FA019091F601890F612F81500E943F
:1012F00078051E2D0894E11CF11C8091ED01181752
:1013000028F3EE24FF2412C08091FA016091CC01F1
:10131000810F0E9478056091CC018091ED01680FEA
:1013200061508091FA01810F0E9478051E2D08946A
:10133000E11CF11C8091F601181730F380918501B2
:101340008B7FFEC0B090CD018091FB01B81A8091D7
:101350001902C82EDD24C601880F991FA3E0EA2ECA
:10136000F12CE81AF90A882499246624772460C0AD
:101370006091CD016C0D8091FB01880D0E94780574
:101380006091CD016C198091FB01880D0E94780558
:101390006091CD016C0D8091FB0188190E94780548
:1013A0006091CD016C198091FB0188190E9478052C
:1013B0008091CD01682F680D8C0D8B190E947805E6
:1013C0008091CD01682F68198C0D8B190E947805CA
:1013D0008091CD01682F680D8C198B190E947805BA
:1013E0008091CD01682F68198C198B190E9478059E
:1013F000F7FE07C026E030E0E20EF31EE60CF71C15
:1014000010C0C4018C199D09880F991F880F991F5E
:10141000EAE0F0E0EE0EFF1EE80EF91E0894C108A7
:10142000D1080894811C911C24E030E0620E731EE8
:10143000C814D9040CF09CCF809185018D7F5CC2CB
:1014400000E010E08F2D800F9091FC016091CE01A3
:10145000890F0E946B02E091EE01F091EF01E081B3
:1014600085E0E802F0011124E00FF11FEE50F0409A
:10147000C895E02D6E2F81E00E944C020F5F1F4F38
:1014800005301105F9F635E0F30E8091FC0160910D
:10149000CE018F0D0E946B0260E081E00E944C0241
:1014A000F3948091EE019091EF0101969093EF01FA
:1014B0008093EE01E091EE01F091EF0180818823AD
:1014C00009F0BECF809185018E7F80938501809148
:1014D0008501813009F4FEC480918501823009F4D0
:1014E000F9C430C01092F7011092810180E0609140
:1014F000F7010E946B026091800181E00E944C0222
:10150000809181018F5F8093810187FFF0CF80916F
:10151000F7018F5F8093F701883030F38091850168
:101520008F7E8093850180918501813009F4D2C43A
:1015300080918501823009F4CDC4809185018F7E30
:101540008093850181E00E94B805C4C47090EC01CD
:101550006090FD01872D8619809392018090AE01E5
:101560009090CF01981458F00F2EF0E02F2EF0E05D
:101570003F2EF0E04F2EF0E05F2EF02D25C0682DBD
:10158000772769197109882777FD8095982F0E9420
:10159000AE117B018C01672D7727661971098827A9
:1015A00077FD8095982F0E94AE119B01AC01C80178
:1015B000B7010E944B111B012C0182E08093930123
:1015C000882D8919809391018914E8F5692D772771
:1015D00068197109882777FD8095982F0E94AE11B0
:1015E0005B016C01672D772767FD7095872F972F1B
:1015F0000E94AE117B018C0177FE08C020E030E034
:1016000040E853E40E9409117B018C01662D772785
:10161000882777FD8095982F0E94AE119B01AC0121
:10162000C801B7010E9408119B01AC01C601B501B8
:101630000E944B111B012C0181E080939301892DA5
:10164000881980939101909191018091920189175D
:1016500048F480919101609192010E9470128093F0
:10166000900102C010929001891461F410929301CC
:101670000F2EF0E02F2EF0E03F2EF0E04F2EF0E0A6
:101680005F2EF02D6714E9F4109294010CC0809144
:101690009401680F8091FD010E947805809194016A
:1016A0008F5F80939401209194016091CF01332743
:1016B0008091AE019927861B9109281739073CF3C1
:1016C00018C11092940107C180919301813009F0F3
:1016D00098C010928F018DC06091CF017727882725
:1016E00077FD8095982F0E94AE115B016C011091DF
:1016F000940190908F01612F772767FD7095872F58
:10170000972F0E94AE1117FF06C020E030E040E89E
:1017100053E40E9409119B01AC01C201B1010E9476
:1017200028129B01AC01C601B5010E9408117B0182
:101730008C01692D7727882777FD8095982F0E9447
:10174000AE119B01AC01C801B7010E9409117B01D8
:101750008C016091AE017727882777FD8095982FBF
:101760000E94AE119B01AC01C801B7010E94BB11E0
:101770008823D4F11091940190908F01809094016E
:10178000612F772767FD7095872F972F0E94AE11E5
:1017900017FF06C020E030E040E853E40E94091142
:1017A0009B01AC01C201B1010E9428129B01AC0156
:1017B000C601B5010E9408117B018C01692D7727B4
:1017C000882777FD8095982F0E94AE119B01AC0170
:1017D000C801B7010E9409110E9491112091FD01D9
:1017E000882D820F0E94780580918F018F5F8093F2
:1017F0008F0190918F0180919001891708F06CCF33
:1018000065C080919301823009F055C010928F011C
:101810004AC010919401B0908F01A0909401609102
:10182000CF017727882777FD8095982F0E94AE11EA
:101830006B017C01612F772767FD7095872F972FAC
:101840000E94AE1117FF06C020E030E040E853E4EC
:101850000E9409119B01AC01C201B1010E94281232
:101860009B01AC01C701B6010E9409117B018C01EB
:101870006B2D7727882777FD8095982F0E94AE11D2
:101880009B01AC01C801B7010E9409110E9491118E
:101890002091FD018A2D820F0E94780580918F0191
:1018A0008F5F80938F0190918F01809190018917B4
:1018B00008F0AFCF0BC080919301882339F4809159
:1018C00094016091CF01840F0E947805809194016A
:1018D0008F5F80939401209194014091FD01332703
:1018E0008091EC019927841B9109821793070CF0D2
:1018F000EBCE80918501877F80938501EBC21092AA
:10190000980194C08091D001992787709070892B9D
:1019100071F52091E801822F992787709070892BAB
:1019200031F52695269526952093960110929701DC
:1019300018C090919701809198016091D0016695AF
:1019400066956695690F9091FE01890F0E946B0262
:101950006FEF81E00E944C02809197018F5F80932E
:1019600097019091970180919601981710F320911B
:10197000E8012830E0F56091D001862F9927877023
:101980009070892BA1F580919601882301F527702D
:10199000209396011092970141E050E012C080918F
:1019A000950120919701FA0102C0EE0FFF1F2A95C1
:1019B000E2F78E2B80939501809197018F5F809342
:1019C00097019091970180919601981740F380912B
:1019D00098016695669566959091FE01890F0E9423
:1019E0006B026091950181E00E944C021AC0109236
:1019F000970111C060919701809198019091D00159
:101A0000690F9091FE01890F0E94780580919701DE
:101A10008F5F80939701909197018091E8019817CB
:101A200048F3809198018F5F80939801909198017D
:101A30008091AB01981708F465CF809185018F7D67
:101A40005BCF8FB7F89499271092F5011092F401AB
:101A500010921C0210921B021092AD011092AC0168
:101A60001092F2011092F1018FBF34C22FB7F89497
:101A700033278091EA018093710182E08093820193
:101A80002FBF80917101882309F024C219821A8224
:101A9000C09A2FB7F89433278091640082608093B6
:101AA00064002FBF2FB7F8943327809165008260C0
:101AB000809365002FBF80918D01813021F08430AB
:101AC00009F008C2D0C06FEF8FEF0E947201198237
:101AD0000BC01A8203C08A818F5F8A838A818F3FFD
:101AE000D1F789818F5F898389818F3F91F76DE17C
:101AF0008DE10E9472018983898180FFF8CF80E0A7
:101B00000E947E0160E088E40E94720166E089E440
:101B10000E9472016FEF8AE40E9472016FE18BE410
:101B20000E94720160E08CE40E94720166E08DE424
:101B30000E94720160E084E40E94720160E085E42A
:101B40000E94720160E88EE50E94720181E00E94AD
:101B50007E0161E888E50E94720182E00E947E01B8
:101B600060E081E40E94720161E080E40E94720101
:101B700062E382E40E9472016EEE8AE40E947201C6
:101B800065E08BE40E94720162E184E40E947201CC
:101B900062E186E40E9472016CE087E40E947201B7
:101BA00083E00E947E0160E081E40E94720166E1B0
:101BB00080E40E9472016BEC83E40E9472016AEC83
:101BC00082E40E9472016DE585E40E94720165E580
:101BD00084E40E94720182E00E947E0160E184E55B
:101BE0000E947201898360E086E50E947201898308
:101BF00061E087E50E947201898364E184E50E94C7
:101C00007201898360E486E50E947201898361E044
:101C100087E50E947201898362E184E50E94720176
:101C2000898362E186E50E947201898360E087E52D
:101C30000E947201898380E00E947E0161ED8BE544
:101C40000E947201898364E08FE10E94920182E028
:101C500080938D010E94CF0140E060E08EE591E02D
:101C60000E94350237C180E00E947E0160E082E47C
:101C70000E94720160E083E40E94720160E08AE7E2
:101C80000E94720180918E01813061F50091A7015F
:101C90001091A801F801608171818AE70E947201A8
:101CA000F80160817181672F77278AE70E947201AE
:101CB000F801628173818AE70E947201F8016281F2
:101CC0007381672F77278AE70E947201F801648188
:101CD00075818AE70E947201F80164817581672F1E
:101CE000772715C06FEF8AE70E9472016FEF8AE7CE
:101CF0000E9472016FEF8AE70E9472016FEF8AE71C
:101D00000E9472016FEF8AE70E9472016FEF8AE70B
:101D10000E94720160E08AE70E94720166E18AE730
:101D20000E9472016BEC8AE70E9472016AEC8AE7FA
:101D30000E9472016DE58AE70E94720165E58AE7FB
:101D40000E94720168E08AE70E94720180918E0110
:101D5000813009F05FC060E08AE70E947201C090A4
:101D6000A501D090A601EE24FF248601F801608130
:101D700071818AE70E947201F801619171918F016E
:101D8000672F77278AE70E94720122E030E0E20E97
:101D9000F31E34E1E316F10449F7F601E488F5880F
:101DA000870128E0C22ED12CCE0CDF1CF801608107
:101DB00071818AE70E947201F801619171918F012E
:101DC000672F77278AE70E9472010C151D0571F7AE
:101DD000F70100851185EE24FF2412C0F80160810F
:101DE00071818AE70E947201F801619171918F01FE
:101DF000672F77278AE70E9472010894E11CF11C83
:101E00008091A9019091AA0196958795E816F90607
:101E100028F326C066E08AE70E9472010091A501BE
:101E20001091A601EE24FF2412C0F8016081718197
:101E30008AE70E947201F801619171918F01672F09
:101E400077278AE70E9472010894E11CF11C8091B7
:101E5000A9019091AA0196958795E816F90628F3AD
:101E60008091A9019091AA010E969093AA01809366
:101E7000A9016091A9017091AA0186E40E947201F2
:101E80006091A9017091AA01672F772787E40E94CA
:101E9000720168E08FE10E94920182E080938D01DF
:101EA00081E00E94B8050E94CF0114C081E08093B8
:101EB0006E0110927F013798DCC80E9496028093D1
:101EC000FF018FEF80936E0181E080937F010E947C
:101ED000C501CFC822960FB6F894DEBF0FBECDBFA6
:101EE000DF91CF911F910F91FF90EF90DF90CF90F6
:101EF000BF90AF909F908F907F906F905F904F902A
:101F00003F902F900895809116028F3FB1F0282FB7
:101F10003327F901E552FE4F8081809316028F3FEF
:101F200011F480931D028FEF80832F3F31F0822FB9
:101F30000E94CD0781E090E0089580E090E0089550
:101F4000CDEFD0E1DEBFCDBF1FB7F8944DE050E03C
:101F50006FEF70E08BED91E00E9401118FEF8093A5
:101F6000160280931D0281E08EBD83E083BF4CB5D5
:101F70005DB58AE78A8309C02CB53DB524173507BE
:101F800018F48A8181508A83A9018A818823A1F764
:101F900082B7898392B789819817E1F32CB53DB553
:101FA00082B7898392B789819817E1F38CB59DB583
:101FB000821B930B409625E0969587952A95E1F72D
:101FC000909318028093170213BE83B78EBD8EB50F
:101FD00080BF12BE1DBC1CBC8FEF86BF86B780932E
:101FE0007C0080B7992787709070892BD1F715BA3C
:101FF0008FEF84BB16B880E285BF0E94830F8823D1
:10200000E1F71092F3010E94830F8823E1F7812FFB
:1020100099278FBF78941092990110927A011092AB
:102020007B0110927C0110927D018FEF8ABB109290
:10203000990131C010927A0110927B0110927C01BB
:1020400010927D0116C0809199018BBB80917A011D
:1020500090917B01A0917C01B0917D010196A11D21
:10206000B11D80937A0190937B01A0937C01B09382
:102070007D0180917A0190917B01A0917C01B091CA
:102080007D018F3F9105A105B105E8F2809199018D
:102090008F5F80939901909199019F3F59F682B18A
:1020A0008C6F82B98AB39ABB83B1837083B91BBA30
:1020B0001F9A6FE380E00E944C0210928001109200
:1020C000F7011092810180E06091F7010E946B029C
:1020D0006091800181E00E944C02809181018F5FBC
:1020E0008093810187FFF0CF8091F7018F5F80930C
:1020F000F701883030F31092AF0111E01093B00176
:1021000088E08093B1011092B20186E08093B30120
:1021100094E09093B4011092B5011093B60110921F
:10212000B70186E18093B8018BEC8093B9018AEC0A
:102130008093BA018DE58093BB0185E58093BC0156
:1021400080EC8093BD0188EA8093BE011092BF01AC
:102150008AE08093C0011092C1011092C2011092D6
:10216000C3011092C4011092C5011092C601809162
:102170008D018823C9F4B89AC09ABC9AC49A98BFB2
:1021800080916A00806280936A0080916A008F7EED
:1021900080936A0089B7846089BF80E00E94250629
:1021A000813011F010938D0181E0809399018FB7F8
:1021B000F894482F55277FEFECE8F0E0C895602DA4
:1021C00008C085B7837E8062862B85BF789488950A
:1021D000F894809116028F3FA1F3282F3327F9013D
:1021E000E552FE4F9081909316029F3F11F4909319
:1021F0001D0270832F3F29F34FBF822F0E94CD070E
:10220000D6CFDC0101C06D9341505040E0F70895F6
:102210005058192EEFD001D0D2C0BA1762077307F9
:1022200084079507B1F188F40EF410940B2EBA2FA1
:10223000A02D062E622F202D072E732F302D082E55
:10224000842F402D092E952F502DFF275523B9F0AF
:10225000591B49F0573E98F0469537952795A79515
:10226000F0405395C9F776F0BA0F621F731F841FB1
:1022700030F4879577956795B795F040939517FA61
:102280000F2E0895BF1BBB27BA0B620B730B840B79
:10229000F6CFDEF6DBC0AED001D091C0552359F0A9
:1022A000992369F09F575F57951B33F442F4903898
:1022B00011F4915805C09BC091589F3F09F4C6C0C6
:1022C000BB27112462177307840730F4660F771F4A
:1022D000881FBB1F915098F311D00F920FD00F920F
:1022E0000DD0A0E82617370748071B0609F0A048BD
:1022F000BA2F602D7F918F9100240895A0E80024CB
:10230000621773078407B10528F0621B730B840BF7
:10231000B1090A2A660F771F881FBB1FA69581F790
:10232000089597FB73D09F3738F0FEE9F91B982F7B
:10233000872F762F6B2F05C086C09695879577954A
:102340006795F150D0F73EF4909580957095619522
:102350007F4F8F4F9F4F0895E89403C097FB0EF473
:10236000F3DFB62F672F782F892F9EE9002427C02F
:102370000ED05EF004C00BD026F001C008D019F0DA
:1023800020F48FEF089580E0089581E0089597FB91
:10239000092E052600F8689430D0E89407FC07C0A1
:1023A000621773078407950721F008F400940794D7
:1023B000989408959A95BB0F661F771F881F112464
:1023C0009923A1F08823B2F79F3F59F0BB0F48F43F
:1023D00021F4002011F460FF04C06F5F7F4F8F4F26
:1023E0009F4F881F9795879597F908952CC09FEF69
:1023F00080EC0895052E092607FA440F551F5F3F0C
:1024000079F0AA27A51708F051E04795880F991F82
:102410009F3F31F0BB27B91708F091E087950895E9
:102420009F919F911124E3CF97FB880F991F9F3FA6
:1024300031F0BB27B91708F091E0879508959F9177
:102440009F911124D4CF662777278827992708954D
:10245000D1DF01D0B4CF992339F0552329F09F570C
:102460005F57950F13F49AF1F1CF91589F3FE1F325
:10247000629FA12D0F92BB27639FA00DB11DEE2778
:10248000729FA00DB11DEE1FAF93AA27649FB00DE0
:10249000E11D739FB00DE11DAA1F6627829FB00D3D
:1024A000E11DA61F5527749FE00DA11D551F839F99
:1024B000E00DA11D561F849FA00D511D852F7A2F61
:1024C0006E2F1F900F9088231AF4939539F48FCFB5
:1024D000000C111CBB1F661F771F881F0128089561
:1024E000991B79E004C0991F961708F0961B881F66
:0A24F0007A95C9F780950895FFCF93
:1024FA006C696E6B207570006C696E6B20646F7707
:10250A006E0068656C6C6F20776F726C6421706FF7
:10251A0077706F773132333435363738393048414E
:10252A0054534348204655434B494E472052554C35
:10253A00455A0050726573732052696768742F5444
:10254A006F700043616C69627261746564007374D0
:10255A0061636B20696E697420646F6E650001FFA8
:0A256A00FFFF36008000610320032C
:00000001FF
