S01A00006275696C642F626967415652362F6D61696E2E73726563A6
S11300000C944A010C9469010C9469010C946901E3
S11300100C9469010C9469010C9469010C946901B4
S11300200C9469010C9469010C9469010C946901A4
S11300300C9469010C9469010C9469010C94760682
S11300400C94E3040C9466050C9469010C94690106
S11300500C9469010C94F4040C9469010C946901E6
S11300600C9469010C9469010C9469010C94690164
S11300700C9469010C9469010C9469010C94690154
S11300800C9469010C9469010C946901F009FB0951
S11300902E0A860ACA0AF00AF30A0B0B7D0CED0934
S11300A0C70CEB098E0DBF0D960F3C1050100008C5
S11300B01C181410000000000000005F000000077E
S11300C0000700147F147F14242A7F2A12231308A4
S11300D0646236495522500005030000001C224189
S11300E0000041221C00082A1C2A0808083E0808AF
S11300F00050300000080808080800606000002074
S1130100100804023E5149453E00427F40004261CE
S11301105149462141454B311814127F102745455A
S113012045393C4A49493001710905033649494971
S113013036064949291E00363600000056360000AE
S11301400008142241141414141441221408000247
S113015001510906324979413E7E1111117E7F49D0
S11301604949363E414141227F4141221C7F494950
S113017049417F090901013E414151327F08080884
S11301807F00417F41002040413F017F081422410C
S11301907F404040407F0204027F7F0408107F3E7E
S11301A04141413E7F090909063E4151215E7F09D3
S11301B0192946464949493101017F01013F40401F
S11301C0403F1F2040201F7F2018207F6314081405
S11301D0630304780403615149454300007F4141AE
S11301E0020408102041417F00000402010204407F
S11301F040404040000102040020545454787F4899
S11302004444383844444420384444487F3854549F
S11302105418087E090102081454543C7F0804044D
S11302207800447D40002040443D00007F10284475
S113023000417F40007C041804787C08040478386A
S1130240444444387C14141408081414187C7C089E
S11302500404084854545420043F4440203C404083
S1130260207C1C2040201C3C4030403C442810286A
S1130270440C5050503C4464544C440008364100F3
S113028000007F0000004136080008082A1C080806
S11302901C2A080811241FBECFEFD0E1DEBFCDBF5A
S11302A011E0A0E0B1E0E2E7F9E200E00BBF02C038
S11302B007900D92A83CB107D9F712E0A8ECB1E081
S11302C001C01D92AA37B107E1F70E9499110C945D
S11302D0B8140C9400008FB7F894992708958FBF31
S11302E00895882311F06E9A08956E9808951F93C7
S11302F0182F81E00E9471011FB9779BFECF8FB147
S113030099271F910895282F9FB7F894E82FFF2766
S1130310EC5EFD4F80818F3F81F4E0917902E2171A
S113032071F40BC02093690204C0FF27EC5EFD4FFB
S113033020832093790220E007C025E005C0809146
S113034069028F3F91F7EECF892F99278FBF822FB4
S11303509927089560935F024093110290933302AA
S1130360809332028BE00E94830108959C01809166
S1130370D70180FD0FC0613868F4483058F480918B
S1130380D70181608093D701C9010E94AA0180E04E
S113039090E0089581E090E00895382F8091D7018E
S11303A0E32FE40FF12DF11DE138F105D4F4E62F2C
S11303B0E20FF12DF11DE134F1059CF48091D70198
S11303C084608093D70130935D0260930F02409361
S11303D059022093300289E00E94830180E090E07A
S11303E0089581E090E008958091D0018430A1F1D6
S11303F0853058F4813091F0813008F44AC082305D
S1130400A9F0833009F042C01FC08630A9F18630BC
S113041058F18730B9F18830C9F534C040E060E064
S113042080E091E00E94B60182E02DC041E060E0EE
S113043084E191E00E94B60181E08093D80185E0D7
S11304400E94830183E01FC028E140E360E288E06A
S11304500E94CD0184E017C028E140E360E288E413
S11304600E94CD0185E00FC045E064E180E291E0A7
S11304700E94B60186E007C045E064E585E291E0AC
S11304800E94B60189E08093D001089589E08093A9
S1130490D0010895982F969596959695EBE3F2E002
S11304A0E90FF11D877021E030E002C0220F331FF5
S11304B08A95E2F780818223992708959C0180E33D
S11304C08093B5018093B6018093B7018093B801FE
S11304D08093B90103C0205137428F5F97E22031E6
S11304E03907C8F78093B5018091B60103C0285E2F
S11304F033408F5F93E0283E3907C8F78093B601F5
S11305008091B70103C0245630408F5F24363105F3
S1130510D0F78093B7018091B80103C02A503040CE
S11305208F5F2A303105D0F78093B8018091B901EB
S1130530820F8093B90185EB91E008951F93CF93C7
S1130540DF93182F8FB7F894282F33278091C80191
S1130550882351F582E08093C801109362022FBF73
S11305608FB7F894C82FDD279C2F8091B401813078
S113057099F48091C801813021F480E00E948301C4
S113058009C0823049F4809162028093B40183E00F
S11305908093C801CFBF01C09FBF8091B401811770
S11305A029F480E090E00AC02FBF06C08FB7F8940A
S11305B099271092C8018FBF81E090E0DF91CF911D
S11305C01F9108958FB7F894282F33278091C8017D
S11305D0833021F02FBF8FEF90E008958091B40114
S11305E02FBF992708951F93182F0E94E202882392
S11305F019F081E090E03AC08B9A8D9A17FB959A96
S113060093980EF09598939A16FB959A93980EF0FA
S11306109598939A15FB959A93980EF09598939ABA
S113062014FB959A93980EF09598939A13FB959AC8
S113063093980EF09598939A12FB959A93980EF0CE
S11306409598939A11FB959A93980EF09598939A8E
S113065010FB959A93980EF09598939A8FB7F89407
S1130660992710920E028FBF80E090E01F910895A9
S113067080916D02882321F02FE1F0E0E0E008C0D2
S1130680F7E0E1E08FB7F89499272091ED018FBF4F
S1130690622FAFB7F89480912B028E7F80932B0248
S11306A087B1782F7F712E2F332782958695869573
S11306B0837099272817390719F080E090E013C058
S11306C0862F8850863118F081E090E00CC040E01D
S11306D050E0262F3327872F99272817390711F43D
S11306E041E050E0CA01982F9170990F80912B023C
S11306F08178262F2F71422F440F440F892B842B8E
S113070080932B02E295EE0FEE0FE07C2E2B332725
S113071027B9F83059F580916A0290916B0221E073
S11307208638920718F087E090E01FC0833C91055B
S113073018F086E090E019C08136910518F085E044
S113074090E013C08033910518F084E090E00DC070
S11307508831910518F083E090E007C00C9718F0F9
S113076082E090E002C080E090E0F82FF770887D8E
S11307708F2B886D992786B98A2F99278FBF089563
S1130780882311F06F9A08956F9808950F931F931B
S1130790CF93DF93182F0FB7F8948091D601882355
S11307A081F40E947101BA9ABB98B99A6C9A80E05C
S11307B00E94C003709A6B986A98689881E00E94BE
S11307C07101802F99278FBF8FB7F894C82FDD2729
S11307D02C2F8091D601882361F481E08093D60187
S11307E010932C0280E10E948301CFBF80E090E04F
S11307F021C0E12FFF27EC5CFD4F80818F3F89F4FE
S1130800E091BD01E11789F40CC01093BC0104C050
S1130810FF27EC5CFD4F10831093BD0180E090E056
S113082002C085E090E02FBF05C08091BC018F3FDE
S113083079F7EBCFDF91CF911F910F9108957FB797
S1130840F89462B720916E0230916F024091700269
S11308505091710206B601FE0FC081B792B7280FFE
S1130860311D411D511D2F5F3F4F4F4F5F4F290FCA
S1130870311D411D511D04C0260F311D411D511D47
S1130880872F99278FBFCA01B9010895DF92EF928C
S1130890FF920F931F938FB7F894282F3327D22EEC
S11308A091B782B746B7981711F041FF02C02FBF26
S11308B06AC0809176028823E1F10E941F04E090CF
S11308C03702F09038020091390210913A022091D7
S11308D025023091260240912702509128026E1978
S11308E07F09800B910B621773078407950720F02B
S11308F01092760271E01EC02E0D3F1D401F511F45
S113090080916E0290916F02A0917002B091710279
S1130910281B390B4A0B5B0B273E3105410551055A
S113092040F4822F223010F070E005C070E082E0C5
S113093002C070E086EE682F615000B601FCFDCF66
S113094082B7681709F46F5F20916E0230916F02CD
S11309504091700250917102DA01C9010196A11D02
S1130960B11D860F911DA11DB11D82179307A40708
S1130970B50710F4622F609561BFDFBE772319F0CD
S113098081E00E9483011F910F91FF90EF90DF900F
S11309900895AFB7F894BB27E1E0E0937602609343
S11309A03702709338028093390290933A0220936D
S11309B02502309326024093270250932802AFBFAA
S11309C00E94460408951F920F920FB60F921124AD
S11309D08F9383B783BF00B600FCFDCF8F910F9038
S11309E00FBE0F901F9018951F920F920FB60F9283
S11309F011242F933F934F935F936F937F938F9320
S1130A009F93AF93BF93EF93FF9344B155B1789401
S1130A108FB7F894992720912B02322F3695317095
S1130A2021708FBF2223D9F433988091340281300E
S1130A3021F0823009F039C00AC0332351F05093B9
S1130A405C0240935B0287E00E9483012EC0332343
S1130A5019F40E94380329C01092340226C08FB7BB
S1130A60F89499278FBF2FB7F894332786B1582F5E
S1130A705770482F4072987D942B952B8074977BE8
S1130A80982B90619F77892F992786B9887D842B2D
S1130A90852B87738061992786B9887D842B852B64
S1130AA0877B8069992786B92FBFFF91EF91BF910A
S1130AB0AF919F918F917F916F915F914F913F91F2
S1130AC02F910F900FBE0F901F9018951F920F92A9
S1130AD00FB60F9211248F929F92AF92BF92CF9232
S1130AE0DF92EF92FF920F931F932F933F934F93B5
S1130AF05F936F937F938F939F93AF93BF93CF93A2
S1130B00DF93EF93FF932FB1E0915702F0915802D6
S1130B10309739F08091350290913602E80FF91F31
S1130B20208380913502909136020196909336028B
S1130B308093350280E00E94C003C0913502D091B9
S1130B4036028091EA019091EB01C817D90708F0A9
S1130B5044C00091770210917802809057029090DF
S1130B6058022AE0A22EB12CAC0EBD1E8A159B059C
S1130B7008F45C016401CC0EDD1E7801EC0EFD1E50
S1130B8015C00115110519F0F701808101C080E03D
S1130B900E9477018114910411F0F601808321965B
S1130BA00894C11CD11C0894E11CF11CC5010197D7
S1130BB0C817D90730F381E00E94C003011511055D
S1130BC031F00C0F1D1FF80180818FB901C01FB8CF
S1130BD0D0933602C093350211C01092580210927D
S1130BE0570210927802109277021092EB01109241
S1130BF0EA0110923602109235028FB1FF91EF9103
S1130C00DF91CF91BF91AF919F918F917F916F9120
S1130C105F914F913F912F911F910F91FF90EF9012
S1130C20DF90CF90BF90AF909F908F900F900FBEAA
S1130C300F901F9018950F931F93CF93DF93CDB709
S1130C40DEB721970FB6F894DEBF0FBECDBF8C017F
S1130C500E94E202882319F081E090E03CC08B9A64
S1130C608C98939880E00000939A84998068939874
S1130C7000000000939A8499806493980000000017
S1130C80939A84998062939800000000939A8499BF
S1130C908061939800000000939A849988609398E7
S1130CA000000000939A84998460939800000000E7
S1130CB0939A84998260939800000000939A84998F
S1130CC081609398000000008983F801808310926A
S1130CD00E0280E090E021960FB6F894DEBF0FBEBE
S1130CE0CDBFDF91CF911F910F9108951F920F9265
S1130CF00FB60F9211242F933F934F935F936F93EB
S1130D007F938F939F93AF93BF93EF93FF938091C0
S1130D10C9018A3F21F583B783BF00B600FCFDCF2C
S1130D2081B799270196AA27BB2720916E0230919B
S1130D306F024091700250917102280F391F4A1FAF
S1130D405B1F20936E0230936F02409370025093A6
S1130D50710278940E9446041092C90103C08F5F07
S1130D608093C901FF91EF91BF91AF919F918F91B2
S1130D707F916F915F914F913F912F910F900FBE93
S1130D800F901F9018950F931F93182F062F88E02C
S1130D900E9483011E9A112331F483B18F7C83B99D
S1130DA08FEF8ABB02C01D981C9A0BBB0000000089
S1130DB00000000000000000000000001E981F91C9
S1130DC00F9108951F93162F803418F41B9A1A98C4
S1130DD002C01A9A1B988F738064682F80E00E9467
S1130DE0C3061F73186B612F80E00E94C3061F9116
S1130DF00895DF92EF92FF920F931F93D82E062F40
S1130E00E62EE694E694E6946E2D0E94E206FF2414
S1130E1088E00E94830183B1806683B91C9A1ABA60
S1130E2000000000000000000000000000000000BE
S1130E3019B383B18F7983B98FEF8ABBF39482E0BE
S1130E40F81631F76E2D8D2D0E94E206077081E0B1
S1130E5090E002C0880F991F0A95E2F7182B612FC2
S1130E6081E00E94C3061F910F91FF90EF90DF90E5
S1130E7008950F931F93CF93DF93182F8FB7F89490
S1130E80282F3327022F8091D201882359F581E03E
S1130E908093D201109331022FBF8FB7F894992712
S1130EA0379A8FBF8FB7F894C82FDD279C2F809176
S1130EB0BB018130A9F48091D201813021F486E014
S1130EC00E94830109C0823059F4809131028093D9
S1130ED0BB0183E08093D201CFBF80E090E025C0C6
S1130EE09FBFFBCF80913102811711F42FBFF5CF43
S1130EF0812F0E944A02882319F085E090E014C0F3
S1130F00E12FE695E695E695FF27E55CFD4F177022
S1130F1081E090E002C0880F991F1A95E2F72081C2
S1130F20282B208380E090E00FBFDF91CF911F91A9
S1130F300F910895EF920F931F93AE2D99E0899F1F
S1130F40F0011124E45CFD4F408351836283738379
S1130F500483158326833783A17080858E7F8A2B33
S1130F608260808782E00E9483011F910F91EF903D
S1130F700895AF92BF92CF92DF92EF92FF920F93B8
S1130F801F93F82E5A016B010E941F04AB01BC0190
S1130F90EE24960185018F2D0E949A071F910F91CF
S1130FA0FF90EF90DF90CF90BF90AF9008950F9394
S1130FB01F93982F1FB7F8948091D601823099F52A
S1130FC08091BE01891779F58091BC0120E030E061
S1130FD08F3F11F421E030E0232BF1F49FEF909345
S1130FE0BE018F3F19F42FEF30E00DC0282F3327B7
S1130FF0F901EC5CFD4F80818093BC018F3F11F4BB
S11310009093BD01908320932C0281E08093D601BC
S113101080E10E94830105C08FEF8093BE0110928E
S1131020D60101E001C000E0812F99278FBF1FB7CF
S1131030F8948091D601882311F40E947101812FC4
S113104099278FBF90E0013009F491E081E098275F
S1131050892F99271F910F9108951F93982F8FB768
S1131060F894182F8091C8018330B1F58091B401B0
S1131070891791F58091B20120E030E08F3F11F49F
S113108021E030E0232BF9F48F3F19F42FEF30E007
S11310900EC0282F3327F901E35DFD4F8081809333
S11310A0B2018F3F11F48093B3018FEF80832093BB
S11310B062028FEF8093B40181E08093C80180E0E5
S11310C00E94830105C081E08093B4011092C8019D
S11310D01FBF80E090E003C01FBF81E090E01F913C
S11310E008951F93CF93DF93182FEB0180E00E94A4
S11310F09E02882319F485E090E014C0919882E060
S11311000E94F302812F0E94F3028D2F99270E94DF
S1131110F3028C2F0E94F302919A80E00E942D0822
S113112080E090E0DF91CF911F910895882339F4F6
S11311306EEF7EEF8BE00E9471089927089599273E
S1131140BC0160957095762F6627681B790B6150FA
S11311507F4F8BE00E947108992708950E945E02D8
S113116044E060E00E94B6018091CE01882349F0FA
S11311701092CE0142E060E08AE291E00E94B60162
S113118008958091D001893079F442E060E085E3EC
S113119091E00E94B60181E08093CE018FEF0E941E
S11311A0960883E00E948301089581E08093E4011E
S11311B02FB7F8943327E4E6F0E0808188608083D9
S11311C02FBF2FB7F89433278081806180832FBF8E
S11311D0E1E6F0E080818E7F808380818D7F808353
S11311E02FB7F8943327E5E6F0E0808188608083A8
S11311F02FBF2FB7F894332780818F7E80832FBF32
S1131200E2E6F0E080818E7F808380818D7F808321
S11312108FB7F89499271092ED018FBF80E00E9458
S1131220390708957F928F929F92AF92BF92CF9287
S1131230DF92EF92FF920F931F93CF93DF93CDB77B
S1131240DEB721970FB6F894DEBF0FBECDBF4B01BA
S11312505C01CC24DD24ECE3F2E07C2C608561FFAE
S11312607AC02081318142815381E480F5800681F6
S11312701781D501C401821B930BA40BB50B8E15EA
S11312809F05A007B10708F466C060FF03C06D7F27
S1131290608708C02E0D3F1D401F511F20833183DE
S11312A04283538381E0781629F082E0781609F0AE
S11312B05BC021C08091D001893011F40E94D5080F
S11312C0B59B0EC043E060E085E391E00E94B60167
S11312D07092CE018FEF0E94960883E00E948301F2
S11312E0B69B42C043E060E080E491E00E94B60116
S11312F01092CE0139C08091CE018823A9F180E0FB
S11313000E949E029198CFB6F894DD2483E00E9457
S1131310F30284E00E94F3027E010894E11CF11CB4
S1131320C7010E941B0609811127102F0027C7013E
S11313300E941B0689819927082B192BCFBE919AED
S113134080E00E942D08C8010E945E0241E064E230
S11313500E94B60109C00894C11CD11C399683E0CF
S1131360C816D10409F079CF82E00E948301219646
S11313700FB6F894DEBF0FBECDBFDF91CF911F91A2
S11313800F91FF90EF90DF90CF90BF90AF909F9020
S11313908F907F9008952F923F924F925F926F9219
S11313A07F928F929F92AF92BF92CF92DF92EF92F1
S11313B0FF920F931F93CF93DF93E82FFF27E13121
S11313C0F10508F086C7EA5BFF4FEE0FFF1F05909B
S11313D0F491E02D099410E089C3C0E0D0E0B2C2DA
S11313E08FB7F8949927209162022093B40123E0E7
S11313F02093C80154C680912A02882361F5209164
S11314006502309166024091670250916802EFB71D
S1131410F894FF2760913702709138028091390265
S113142090913A02E0902502F09026020091270262
S1131430109128026E0D7F1D801F911FEFBF209316
S113144065023093660240936702509368021092DB
S11314502A020E94C9040E941F0443C00E941F0460
S11314605B016C018FB7F8949927109276028FBFB5
S11314701FEFE12E1FEFF12E1FEF012F1FE7112F9A
S113148060E0ECE3F2E0808581FF1CC08081918103
S1131490A281B381A6019501281B390B4A0B5B0B72
S11314A0DA01C9012481358146815781281B390B12
S11314B04A0B5B0B2E153F05400751071CF47901BD
S11314C08A0161E0399632E0E735F307E1F66623F5
S11314D009F4FFC61E141F04100611062CF0C601E1
S11314E0B5010E941209F5C6E0926502F092660207
S11314F0009367021093680281E080932A02A80196
S11315009701C601B5010E94C904E3C68091CE01CA
S1131510882309F4DEC6E090CA01F090CB01009163
S1131520CC011091CD018091D501823039F0109217
S1131530CF0141E065E08BE491E00AC08091630053
S113154082FF09C01092CF0141E065E087E591E098
S11315500E94B601BEC680E00E94C603853039F4FD
S11315601092CF0141E065E08AE691E0F1CF83E09B
S11315708093D501B5E0EE0CFF1C001F111FBA9536
S1131580D1F7E0927202F092730200937402109306
S113159075029FC6029B8CC600916302109164027F
S11315A080E00E949E0280916200877F80936200A7
S11315B08FB7F894E82EFF24E801005E1F4F89914D
S11315C00E94F302C017D107D1F7EFBE80916200E9
S11315D088608093620080E00E942D0883E069C6E1
S11315E00E94D50876C62FB7F8943327809131022C
S11315F08093BB0183E08093D2012FBF8091BB0114
S1131600882309F066C681E08093340210926D024B
S11316100E9438035EC610923402C0905B02D090E0
S11316205C0280916D02882309F053C68FB7F89449
S1131630E82E8091D201833009F040C08091BB0133
S11316408823E1F580913B02882309F03CC634C627
S1131650EF2DE695E695E695FF274F2D5527E55C9A
S1131660FD4F9A012770307081E090E002C0880F2E
S1131670991F2A95E2F78095208128232083C0931F
S1131680D10111C02196C130D10511F4C0E0D0E0E0
S1131690FC2E8C2F0E944A028823D1F6C017D10752
S11316A089F74FEF50E0409331028FEF8093BB01F5
S11316B081E08093D20186E00E948301EFBE5FB691
S11316C0F8948091E401823091F0833020F48130E9
S11316D009F00FC106C0833099F1843009F009C1C3
S11316E035C0D092E601C092E50182E01DC04FE111
S11316F0C416D104E0F08091D801813019F410921D
S1131700D80157C0D092E601C092E50180916500EE
S1131710877F809365008091650080618093650078
S113172081E08093ED0183E08093E401DFC0809148
S1131730D801813009F0DAC085E00E948301D9C064
S1131740D092E801C092E70184E0EECF5DE3C516D4
S1131750D10408F4CBC0D092E801C092E70185E03F
S11317608093E401809162008D7F80936200609198
S1131770E7017091E801C091E501D091E601809103
S1131780D9018130C9F4D093C001C093BF017093D3
S1131790C2016093C10182E08093D9011092D30108
S11317A08CE00E94830140E067E286E791E00E94BA
S11317B0AA010E94D5089DC08091D901823061F5AB
S11317C08091BF019091C0018C599F4F8C179D0748
S11317D080F78091C1019091C2018C599F4F861767
S11317E0970738F7D093C401C093C3017093C6011F
S11317F06093C50183E08093D9011092D3018CE0FA
S11318000E94830140E26EE186E891E00E94AA0111
S113181081E08093D0016DC08091C3019091C40197
S1131820C817D90708F05BC08091BF019091C0012F
S11318308C179D0708F053C08091C5019091C60193
S11318406817790708F04BC08091C1019091C201DB
S11318508617970708F043C08090BF019090C0019D
S11318608091C1019091C201E090C301F090C40144
S11318706090BF017090C0012091C5013091C601F4
S1131880E091C101F091C201681B790B8827992767
S1131890A6E0660F771F881F991FAA95D1F72E1B04
S11318A03F0B442755270E94961459016A01C81911
S11318B0D909BE0188279927F7E0660F771F881F8B
S11318C0991FFA95D1F7E618F70800271127A80100
S11318D097010E949614DA01C901B50104C068ECAD
S11318E070E088EC90E00E94AE0803C080E00E94A3
S11318F03907852D99278FBFECC41ABA1D9A1C98F5
S11319001E9A06C01E98000000001E9A00000000E7
S1131910CF99F8CF1E981D9A8FEF8ABBDAC46091D5
S11319200F02610F80915D020E94F90680910F02FF
S1131930180F80915D0290915902890F612F815097
S11319400E94F9061C2F219680913002181738F353
S1131950C0E0D0E012C080915D0260910F02810F5F
S11319600E94F90660910F0280913002680F615065
S113197080915D02810F0E94F9061C2F21968091AF
S11319805902181740F38091D7018B7F70C3D09010
S1131990100280915E02D81A80916C02E82EFF2416
S11319A0C701880F991FC3E0D0E0C81BD90BAA2434
S11319B0BB24882499245AC0609110026E0D809132
S11319C05E028A0D0E94F906609110026E198091E0
S11319D05E028A0D0E94F906609110026E0D8091DC
S11319E05E028A190E94F906609110026E198091B4
S11319F05E028A190E94F90680911002682F6A0D0E
S1131A008E0D8D190E94F90680911002682F6A19B3
S1131A108E0D8D190E94F90680911002682F6A0DAF
S1131A208E198D190E94F90680911002682F6A1987
S1131A308E198D190E94F906D7FF04C02696C80D89
S1131A40D91D0DC0C5018E199F09880F991F880FD4
S1131A50991F2A96C80FD91F0894E108F108089421
S1131A60A11CB11C84E090E0880E991EEA14FB04CA
S1131A700CF0A2CF8091D7018D7FF9C2C0E0D0E0F5
S1131A80812F8C0F90915F0260911102890F0E9447
S1131A90E206E0913202F0913302E08185E0E8024F
S1131AA0F0011124EC0FFD1FEC5EFF4FC895E02DF3
S1131AB06E2F81E00E94C3062196C530D10501F73F
S1131AC01B5F80915F0260911102810F0E94E20608
S1131AD060E081E00E94C3061F5F80913202909112
S1131AE0330201969093330280933202E0913202E2
S1131AF0F09133028081882309F0C0CF8091D7010F
S1131B008E7F8093D7018091D701813009F4E1C39E
S1131B108091D701823009F4DCC3ABC210925A021F
S1131B201092D40180E060915A020E94E206609112
S1131B30D30181E00E94C3068091D4018F5F80931A
S1131B40D40187FFF0CF80915A028F5F80935A02AD
S1131B50883030F38091D7018F7E8093D7018091B4
S1131B60D701813009F4B5C38091D701823009F4DB
S1131B70B0C38091D7018F7E8093D701AAC3909080
S1131B802F0270906002892D87198093DD01609087
S1131B90EC0180901202861458F00F2EF0E02F2EE4
S1131BA0F0E03F2EF0E04F2EF0E05F2EF02D25C048
S1131BB0662D772768197109882777FD8095982FF6
S1131BC00E94C8137B018C01692D7727671971095D
S1131BD0882777FD8095982F0E94C8139B01AC013C
S1131BE0C801B7010E9465131B012C0182E0809398
S1131BF0DE01862D88198093DC016814E8F5682DD0
S1131C00772766197109882777FD8095982F0E9498
S1131C10C8135B016C01692D772767FD7095872FC9
S1131C20972F0E94C8137B018C0197FE08C020E007
S1131C3030E040E853E40E9423137B018C01672DBC
S1131C407727882777FD8095982F0E94C8139B01DA
S1131C50AC01C801B7010E9422139B01AC01C6016B
S1131C60B5010E9465131B012C0181E08093DE0104
S1131C70882D86198093DC019091DC018091DD012F
S1131C80891748F48091DC016091DD010E948A1477
S1131C908093DB0102C01092DB01681461F410929E
S1131CA0DE010F2EF0E02F2EF0E03F2EF0E04F2E5D
S1131CB0F0E05F2EF02D7914E9F41092DF010CC0EE
S1131CC08091DF01680F809160020E94F906809183
S1131CD0DF018F5F8093DF012091DF0160911202A9
S1131CE033278091EC019927861B9109281739071E
S1131CF03CF318C11092DF0107C18091DE018130ED
S1131D0009F098C01092DA018DC060911202772711
S1131D10882777FD8095982F0E94C8135B016C017A
S1131D201091DF019090DA01612F772767FD70959C
S1131D30872F972F0E94C81317FF06C020E030E0BA
S1131D4040E853E40E9423139B01AC01C201B1019A
S1131D500E9442149B01AC01C601B5010E942213EA
S1131D607B018C01692D7727882777FD8095982F33
S1131D700E94C8139B01AC01C801B7010E94231340
S1131D807B018C016091EC017727882777FD809592
S1131D90982F0E94C8139B01AC01C801B7010E948F
S1131DA0D5138823D4F11091DF019090DA0180904B
S1131DB0DF01612F772767FD7095872F972F0E948A
S1131DC0C81317FF06C020E030E040E853E40E9447
S1131DD023139B01AC01C201B1010E9442149B0177
S1131DE0AC01C601B5010E9422137B018C01692D4F
S1131DF07727882777FD8095982F0E94C8139B0129
S1131E00AC01C801B7010E9423130E94AB132091B7
S1131E106002882D820F0E94F9068091DA018F5F9B
S1131E208093DA019091DA018091DB01891708F03F
S1131E306CCF65C08091DE01823009F055C01092EC
S1131E40DA014AC01091DF01B090DA01A090DF01FD
S1131E50609112027727882777FD8095982F0E943A
S1131E60C8136B017C01612F772767FD7095872F5D
S1131E70972F0E94C81317FF06C020E030E040E807
S1131E8053E40E9423139B01AC01C201B1010E94DF
S1131E9042149B01AC01C701B6010E9423137B01CC
S1131EA08C016B2D7727882777FD8095982F0E94CA
S1131EB0C8139B01AC01C801B7010E9423130E94FF
S1131EC0AB13209160028A2D820F0E94F906809143
S1131ED0DA018F5F8093DA019091DA018091DB015E
S1131EE0891708F0AFCF0BC08091DE01882339F445
S1131EF08091DF0160911202840F0E94F9068091A3
S1131F00DF018F5F8093DF012091DF014091600248
S1131F10332780912F029927841B910982179307F5
S1131F200CF0EBCE8091D701877FA1C01092E30122
S1131F3094C080911302992787709070892B71F552
S1131F4020912902822F992787709070892B31F56F
S1131F502695269526952093E1011092E20118C05A
S1131F609091E2018091E301609113026695669578
S1131F706695690F90916102890F0E94E2066FEFE6
S1131F8081E00E94C3068091E2018F5F8093E201A9
S1131F909091E2018091E101981710F320912902B8
S1131FA02830E0F560911302862F9927877090708E
S1131FB0892BA1F58091E101882301F527702093F5
S1131FC0E1011092E20141E050E012C08091E00191
S1131FD02091E201FA0102C0EE0FFF1F2A95E2F7F9
S1131FE08E2B8093E0018091E2018F5F8093E20168
S1131FF09091E2018091E101981740F38091E3010F
S113200066956695669590916102890F0E94E20635
S11320106091E00181E00E94C3061AC01092E201BF
S113202011C06091E2018091E30190911302690F64
S113203090916102890F0E94F9068091E2018F5FFD
S11320408093E2019091E20180912902981748F36C
S11320508091E3018F5F8093E3019091E30180918C
S1132060E901981708F465CF8091D7018F7D80939B
S1132070D7010E94F4012DC18FB7F89499271092CB
S1132080580210925702109278021092770210921E
S1132090EB011092EA0110923602109235022BCC19
S11320A02FB7F894332780912C028093BE0182E0ED
S11320B08093D6012FBF8091BE01882309F009C106
S11320C0B89A2FB7F8943327809164008260809384
S11320D064002FBF2FB7F8943327809165008D7F5C
S11320E0809365002FBF8091D501813021F083302A
S11320F009F0EFC076C010E08FEF0E9477011F5FF8
S1132100183CD1F780E40E94770180E00E947701B7
S113211080E00E94770180E00E94770180E00E94C5
S1132120770185E90E9477018FEF0E9477018F3F45
S1132130D9F387E70E94770180E00E94770180E06D
S11321400E94770180E00E94770180E00E9477017D
S11321508FEF0E9477018FEF0E9477018F3FD9F3B1
S113216089E60E94770180E00E94770180E00E9466
S1132170770180E00E94770180E00E9477018FEF71
S11321800E9477018FEF0E94770199278F3FD1F347
S1132190882379F680E50E94770180E00E94770128
S11321A080E00E94770180E00E94770180E20E9433
S11321B077018FEF0E9477018FEF0E9477018F3FA5
S11321C0D9F382E08093D5012FB7F8943327809117
S11321D065008260809365002FBF80E00E94D7076E
S11321E078C02FB7F8943327809165008D7F809352
S11321F065002FBF81E50E947701809175020E94DE
S11322007701809174020E9477018091720290910B
S11322107302A0917402B0917502892F9A2FAB2F8B
S1132220BB270E947701809172020E9477018FEF91
S11322300E9477018FEF0E9477018F3FD9F38FEFD0
S11322400E9477018E3FD9F7CEEED1E08FEF0E9446
S113225077018993F2E0CE30DF07C1F780E00E9476
S1132260D7072FB7F8943327809165008260809355
S113227065002FBF82E08093D501A097D0936402BC
S1132280C093630281E08093CF018091CA01909151
S1132290CB01A091CC01B091CD010196A11DB11D3E
S11322A08093CA019093CB01A093CC01B093CD014C
S11322B084E00E9483010DC081E08093BB011092F1
S11322C0D2013798FBC98091D101082F1127E80169
S11322D0D9C9DF91CF911F910F91FF90EF90DF90BB
S11322E0CF90BF90AF909F908F907F906F905F90B2
S11322F04F903F902F900895809169028F3FB1F0E5
S1132300282F3327F901EC5EFD4F80818093690209
S11323108F3F11F4809379028FEF80832F3F31F048
S1132320822F0E94CB0981E090E0089580E090E044
S11323300895CDEFD0E1DEBFCDBF1FB7F89441E1E2
S113234050E06FEF70E084E192E00E941B138FEF86
S1132350809369028093790281E08EBD83E083BF1C
S11323604CB55DB58AE78A8309C02CB53DB5241701
S1132370350718F48A8181508A83A9018A818823C8
S1132380A1F782B7898392B789819817E1F32CB5B5
S11323903DB582B7898392B789819817E1F38CB5EB
S11323A09DB5821B930B409625E0969587952A95BB
S11323B0E1F790936B0280936A0213BE83B78EBDDC
S11323C08EB580BF12BE1DBC1CBC8FEF86BF86B706
S11323D080937C0080B7992787709070892BD1F700
S11323E015BA8FEF84BB16B880E285BF0E947C11BA
S11323F08823E1F710923B0280B7887080BF8BE09E
S113240083BF86EE81BF87B7826087BF0E94460480
S11324108FEF80932D020E947C118823E1F7812F96
S113242099278FBF78942FB7F8943327809164004D
S11324308B7F809364002FBF8091630082FF0BC069
S113244084E08093D5011092CF0141E065E087E5F7
S113245091E00E94B6012FB7F8943327809164006D
S11324608260809364002FBFB89A2FB7F894332703
S1132470809165008260809365002FBF81E0809326
S1132480D50180E00E94C603BD9882B18C6F82B9E9
S11324908AB38FEF8ABB83B1837083B91BBA1F9A47
S11324A06FE380E00E94C3061092D30110925A0297
S11324B01092D40180E060915A020E94E206609179
S11324C0D30181E00E94C3068091D4018F5F809381
S11324D0D40187FFF0CF80915A028F5F80935A0214
S11324E0883030F38091D9018130A1F08091D901F5
S11324F0823081F081E08093D9011092D3018CE085
S11325000E9483014CE360E081E991E00E94AA010A
S11325100E94D50844EF51E060E070E081E00E9441
S1132520B90748EE53E060E070E082E00E94B9072A
S11325300E941F04AB01BC0101E0E02E08EE13E091
S113254020E030E080E00E949A07899A8A9A80917C
S11325506100886080936100919A929A80916200F0
S1132560886080936200809161008B7F809361001A
S11325709298929A029BFECF64ED70E383E00E94EE
S11325807108029BFECF60E078E080E00E94710851
S1132590029BFECF86EE0E9496080E941F046333BE
S11325A071058105910558F4809144028D7F8093D3
S11325B0440241E060E083EA91E00E94B6018FB7F3
S11325C0F894482F55277FEFEEEAF0E0C895602D88
S11325D01AC087B7992783709070892B61F080B7F0
S11325E0992787709070892BD1F781B792B7891B8F
S11325F08C3008F082B785B7837E8062862B85BFD6
S113260078948895F894809169028F3F11F3282F6C
S11326103327F901EC5EFD4F9081909369029F3F4F
S113262011F49093790270832F3F99F24FBF822F58
S11326300E94CB09C4CFDC0101C06D9341505040CE
S1132640E0F708955058192EEFD001D0D2C0BA1730
S11326506207730784079507B1F188F40EF41094A8
S11326600B2EBA2FA02D062E622F202D072E732F8E
S1132670302D082E842F402D092E952F502DFF2705
S11326805523B9F0591B49F0573E98F046953795B4
S11326902795A795F0405395C9F776F0BA0F621FB6
S11326A0731F841F30F4879577956795B795F0402D
S11326B0939517FA0F2E0895BF1BBB27BA0B620B15
S11326C0730B840BF6CFDEF6DBC0AED001D091C025
S11326D0552359F0992369F09F575F57951B33F49D
S11326E042F4903811F4915805C09BC091589F3F13
S11326F009F4C6C0BB27112462177307840730F49A
S1132700660F771F881FBB1F915098F311D00F924B
S11327100FD00F920DD0A0E82617370748071B06E5
S113272009F0A048BA2F602D7F918F91002408955D
S1132730A0E80024621773078407B10528F0621B20
S1132740730B840BB1090A2A660F771F881FBB1FFE
S1132750A69581F7089597FB73D09F3738F0FEE96B
S1132760F91B982F872F762F6B2F05C086C096955F
S1132770879577956795F150D0F73EF490958095BD
S1132780709561957F4F8F4F9F4F0895E89403C0D4
S113279097FB0EF4F3DFB62F672F782F892F9EE96E
S11327A0002427C00ED05EF004C00BD026F001C078
S11327B008D019F020F48FEF089580E0089581E0A7
S11327C0089597FB092E052600F8689430D0E89404
S11327D007FC07C0621773078407950721F008F404
S11327E000940794989408959A95BB0F661F771FD9
S11327F0881F11249923A1F08823B2F79F3F59F031
S1132800BB0F48F421F4002011F460FF04C06F5F93
S11328107F4F8F4F9F4F881F9795879597F90895FE
S11328202CC09FEF80EC0895052E092607FA440F6B
S1132830551F5F3F79F0AA27A51708F051E0479587
S1132840880F991F9F3F31F0BB27B91708F091E01B
S1132850879508959F919F911124E3CF97FB880F4B
S1132860991F9F3F31F0BB27B91708F091E0879576
S113287008959F919F911124D4CF662777278827A5
S113288099270895D1DF01D0B4CF992339F0552386
S113289029F09F575F57950F13F49AF1F1CF915890
S11328A09F3FE1F3629FA12D0F92BB27639FA00D71
S11328B0B11DEE27729FA00DB11DEE1FAF93AA2785
S11328C0649FB00DE11D739FB00DE11DAA1F662723
S11328D0829FB00DE11DA61F5527749FE00DA11D19
S11328E0551F839FE00DA11D561F849FA00D511DF0
S11328F0852F7A2F6E2F1F900F9088231AF49395AB
S113290039F48FCF000C111CBB1F661F771F881F63
S113291001280895991B79E004C0991F961708F0BF
S1132920961B881F7A95C9F780950895A1E21A2EFF
S1132930AA1BBB1BFD010DC0AA1FBB1FEE1FFF1F5F
S1132940A217B307E407F50720F0A21BB30BE40BAF
S1132950F50B661F771F881F991F1A9469F76095F6
S11329607095809590959B01AC01BD01CF010895B0
S1052970FFCF93
S113297242353A20504C4159202D2042363A2053B8
S1132982544F500054696D653A202D2D2D2D2D0084
S1132992504C41590053544F500053746F7070653A
S11329A2642E2E2E00506C6179696E672E2E2E00D5
S11329B253746F707065642E2020004641494C3A6E
S11329C2204255535900004641494C3A204D4D434B
S11329D220454A454354454400005245414420455C
S11329E252524F52000050726573732052696768E5
S11329F2742F546F700043616C6962726174656410
S1132A02005072657373204C6566742F426F747440
S1132A126F6D004D503320496E6974204572726F98
S1132A227200FFFF0130303030300001FFFFFF360B
S10B2A32008000610320030091
S9030000FC
